:020000040000FA
:1000000090C3FF1F31030000690300006B03000071
:100010006D0300006F03000071030000000000008A
:10002000000000000000000000000000730300005A
:10003000750300000000000077030000C1340000D9
:10004000F5230000092400001D24000031240000D5
:1000500045240000592400006D2400008124000084
:1000600095240000A9240000BD240000D124000034
:10007000E5240000F92400000D25000021250000E2
:1000800035250000492500005D2500007125000090
:100090008525000099250000AD250000C125000040
:1000A000D5250000E9250000FD25000011260000EF
:1000B00025260000392600004D260000612600009C
:1000C000752600008D260000A5260000BD26000034
:1000D000D5260000ED260000052700001D270000A2
:1000E000352700004D270000652700007D27000010
:1000F00095270000AD270000C5270000DD27000080
:10010000F52700000D280000252800003D280000EC
:10011000552800006D280000852800009D2800005B
:10012000B5280000CD280000E5280000FD280000CB
:10013000152900002D290000452900005D29000037
:10014000752900008D290000A5290000BD290000A7
:10015000D5290000ED290000052A00001D2A000015
:10016000352A00004D2A0000652A00007D2A000083
:10017000952A0000AD2A0000C52A0000DD2A0000F3
:10018000F52A00000D2B0000252B00003D2B000060
:10019000552B00006D2B0000852B00009D2B0000CF
:1001A000B52B0000CD2B0000E52B0000FD2B00003F
:1001B000152C00002D2C0000452C00005D2C0000AB
:1001C000752C00008D2C0000A52C0000BD2C00001B
:1001D000D52C0000ED2C0000052D00001D2D000089
:1001E000352D00004D2D0000652D00007D2D0000F7
:1001F000952D0000AD2D0000C52D0000DD2D000067
:10020000F52D00000D2E0000252E00003D2E0000D3
:10021000552E00006D2E0000852E00009D2E000042
:10022000B52E0000CD2E0000E52E0000FD2E0000B2
:10023000152F00002D2F0000452F00005D2F00001E
:100240007B0300007B0300007B0300007B030000B6
:100250007B0300007B0300007B0300007B030000A6
:100260007B0300007B0300007B0300007B03000096
:100270007B0300007B0300007B0300007B03000086
:1002800000F002F800F045F80AA090E8000C824463
:100290008344AAF10107DA4501D100F03AF8AFF240
:1002A000090EBAE80F0013F0010F18BFFB1A43F054
:1002B00001031847143A0000343A0000103A24BFF2
:1002C00078C878C1FAD8520724BF30C830C144BFBB
:1002D00004680C60704700000023002400250026FD
:1002E000103A28BF78C1FBD8520728BF30C148BF99
:1002F0000B6070471FB503F03FFC9DE8030000F062
:100300004FF900F05DF81FBD10B5002000F07EF938
:1003100010BD00F0A4F91146FFF7ECFF03F026FB37
:1003200000F0DCF903B4FFF7EFFF03BC00F05EF868
:1003300015484FF01F01016014484FF0770101602C
:1003400013484FF07701016012484FF48851016063
:100350000E484FF0760101600D484FF076010160C4
:100360000D4880470D480047FEE7FEE7FEE7FEE741
:10037000FEE7FEE7FEE7FEE7FEE7FEE7084809497D
:10038000094A0A4B70470000100805400408054060
:100390000C08054000080540C1350000810200003E
:1003A0009083FF1F90C3FF1F90A3FF1F90A3FF1F09
:1003B0000B460146184600F0BBB8704770477047BF
:1003C00070B5064C7C44064D7D4404E0204601682F
:1003D00008448047241DAC42F8D170BD203900008C
:1003E00020390000004870479480FF1F0149182001
:1003F000ABBEFEE726000200004870479080FF1F5A
:10040000BFFFDFFFFFFEFFFFFFFFFFFFFFFFFFFF5D
:10041000FFFFFFFFFFFFFFFFFFFFFFFFFFFFFFFFEC
:100420004FF0000200B5134694469646203922BF8D
:10043000A0E80C50A0E80C50B1F12001BFF4F7AFD8
:10044000090728BFA0E80C5048BF0CC05DF804EBBA
:10045000890028BF40F8042B08BF704748BF20F828
:10046000022B11F0804F18BF00F8012B704770B5B8
:10047000064600F075F8056806F10B0020F0070449
:10048000B4429CBF002070BD2B466A68BAB11068A8
:10049000A04210D304F1080188423CBF5068586064
:1004A00007D35168101941601168091B0160586039
:1004B0001460101D70BD13465268002AE7D1214612
:1004C000284600F059F80028DED170BD70B504460A
:1004D000051F00F045F80068002C14BF446870BD8B
:1004E000002C18BFAC423CBF20466468F8D30168BA
:1004F0000A18AA4218BF456003D12A68054611446C
:10050000016028684119A1421CBF6C6070BD616820
:10051000696021680844286070BD10B5002000F0B3
:1005200096F8FFF7F1FEBDE810400120FFF75EBF2F
:100530002DE9F041074615460E461020FFF797FFBC
:1005400004000AD06760C4E9026500F00DF8016894
:10055000216004600020BDE8F0810120FBE700007D
:10056000004870479880FF1F00487047C880FF1FF1
:10057000704770477047704738B504460A460020F8
:100580006946AFF30080002808BF38BD02460099D5
:10059000204600F089F8012038BD012000F0C4B8E1
:1005A000F8B5AFF30080054600200C46102000BFD0
:1005B0000646A819A0420DD9324669460020AFF37D
:1005C0000080070008BF00F0AFF80098A04218BFF5
:1005D0000546C419FFF7C4FF05600746F01D20F06B
:1005E00007004619284600F00AF8B44208BFF8BDD3
:1005F000A21B31463868BDE8F84000F055B800212C
:100600000160C0E901107047102070472DE9F041EA
:100610000646FFF7A9FF8046454613E016B1E0689D
:10062000B0420ED120682860D4E90101D8F80070EA
:1006300088472046FFF74AFFD8F80000B842EBD1C0
:1006400000E025462C68002CE8D1BDE8F08110B50B
:1006500000F052F8BDE8104000F049B87047754608
:10066000FFF7CAFEAE4605006946534620F0070074
:10067000854618B020B5FFF781FEBDE820404FF059
:1006800000064FF000074FF000084FF0000BAC469B
:10069000ACE8C009ACE8C009ACE8C009ACE8C009E6
:1006A00021F007018D467047034640688C460028BC
:1006B00018BF88423CBF03464068F8D31868184406
:1006C000884207D00CF1030020F00700001D411AFA
:1006D000521A0146081D0A60FFF7F8BE10B504461D
:1006E000AFF300802046BDE81040FFF71BBE002896
:1006F00001D0FFF77BBE704710B5002102A000F0CB
:100700001AF8012010BD0000534947414252543AA3
:100710002041626E6F726D616C207465726D696EDE
:100720006174696F6E00000010B500F01DF8BDE83F
:100730001040FFF7DCBF70B505460C460A2000E00C
:100740006D1C00F039F835B128780028F8D102E0A6
:10075000641C00F031F814B120780028F8D1BDE80D
:1007600070400A2000F028B810B5012805D00021FB
:1007700003A0FFF7E0FF012010BD09A1F8E700008A
:1007800053494752544D454D3A204F7574206F667A
:100790002068656170206D656D6F727900000000E2
:1007A0003A2048656170206D656D6F727920636FC6
:1007B000727275707465640008B569468DF8000042
:1007C0000320ABBE08BD0000B0B504464FF2FC707C
:1007D000CBF6FE70204468280D4607D814F00300BD
:1007E00004D1206865F308002060B0BD43F6863070
:1007F000C0F200008F2100F049FD206865F3080079
:100800002060B0BDF0B585B005200321012205268A
:1008100001F08EF903AC204600F028FD01AD28461A
:1008200000F0DEFA47F2777042F21021C0F27770E2
:10083000C0F2110100F0E2FA4FF440500027ADF889
:100840000C0020468DF80E708DF8106000F030FC22
:1008500043F20010C1F21010029028468DF8047087
:1008600000F08AF9202000F0A1F80128FAD1042034
:100870000021002202F0BEFD0B200121012202F026
:10088000B9FD502001F060F84FF4404001F02EFD1A
:1008900002F0F6FB052000F0ADFB012001F032F87C
:1008A000002001F02FF8012001F00AF805B0F0BD9A
:1008B00080B548F28030C1F6FF70016841F40061F4
:1008C000016000BF0120022101F0B6FB0028F9D031
:1008D0000220BDE8804001F0B1B8000010B586B03C
:1008E00001AC204601F026FD0220ADF806000320F1
:1008F0000821224601F090FA03201021224601F03F
:100900008BFA03202021224601F086FA01204FF4C1
:100910008041224601F080FA06B010BD10B50446B1
:10092000C00711D1A00715D4600703D503202021EB
:1009300001F0A2FB200758BF10BD01204FF48041F9
:10094000BDE8104001F098BB0320082101F094FBA2
:10095000A007E9D50320102101F08EFB6007E9D53F
:10096000E4E7000010B50446C00711D1A00715D474
:10097000600703D50320202101F098FC200758BF11
:1009800010BD01204FF48041BDE8104001F08EBC45
:100990000320082101F08AFCA007E9D503201021DB
:1009A00001F084FC6007E9D5E4E7000010B50446D7
:1009B00010B114F0960007D043F6A530C0F2000045
:1009C00040F28B5100F062FC44F23C00C4F205009E
:1009D0000078204018BF012010BD0000B0B584B0E1
:1009E0000446022807D343F6A530C0F2000040F2C7
:1009F000E54100F04BFC44F23C05C4F20505B5F8B6
:100A0000C203C00707D143F6A530C0F2000040F290
:100A1000E64100F03BFC9CB3D5F8C400000639D495
:100A2000002001900198B0F5805F61D82878000718
:100A30006AD40198013001900198B0F5805F57D8D1
:100A40002878000760D40198013001900198B0F532
:100A5000805F4DD82878000756D401980130019066
:100A60000198B0F5805F43D8287800074CD40198EE
:100A7000013001900198B0F5805FD7D938E000BF10
:100A800015F8160C00F00700052837D16FF00500A7
:100A900004B0B0BD002003900398B0F5805F27D864
:100AA0002878C00730D10398013003900398B0F53F
:100AB000805F1DD82878C00726D1039801300390A5
:100AC0000398B0F5805F13D82878C0071CD103982D
:100AD000013003900398B0F5805F09D82878C007EB
:100AE00012D10398013003900398B0F5805FD7D9F5
:100AF0006FF0070058B104B0B0BD00BF012005F889
:100B0000120C002004B0B0BD00200028F3D100205A
:100B100005F8120C02900298B0F5805F27D828786B
:100B20008006EED40298013002900298B0F5805F02
:100B30001DD828788006E4D40298013002900298EB
:100B4000B0F5805F13D828788006DAD40298013097
:100B500002900298B0F5805F09D828788006D0D43A
:100B60000298013002900298B0F5805FD7D96FF0FB
:100B7000070004B0B0BD00002DE9F041002800F0EE
:100B800003810646044616F8040F00F018001828E2
:100B900007D143F6A530C0F2000040F2B94100F0A1
:100BA00075FB354635F8010FA97840EA014001464A
:100BB0006FF35F211339B1F5E67F0BD943F6A5300A
:100BC000C0F2000040F2BA4100F060FBA87829882A
:100BD00041EA00400021B1EB105F0BD143F6A53094
:100BE000C0F2000040F2BB4100F050FBA878298819
:100BF00041EA004096F9001048F20002C1F6FF7287
:100C0000B1F1FF3F01F01F01126801F10101C4BF02
:100C100041F20022C0F27A02B2FBF1F143F2016329
:100C2000A1F574226FF35F20A2F51072C0F26E136B
:100C300001309A4201FB00F607D343F6A530C0F21B
:100C400000004FF4986100F021FB4EF20040CFF21B
:100C5000B11041F601413044C0F64E61884207D3DD
:100C600043F6A530C0F2000040F2C14100F00EFB97
:100C7000A878298841F6406841EA0040012101EB4B
:100C80001051B6FBF1F1CFF61B784EF24107C0F6DA
:100C900006374144B9427BD210F4702F00F08880AF
:100CA00010F4704F0BD143F6A530C0F2000040F2B3
:100CB000C44100F0EBFAA878298841EA0040C0F36B
:100CC00003310131B6FBF1F14144B9420BD343F694
:100CD000A530C0F2000040F2C54100F0D7FAA87874
:100CE000298841EA0040C0F303400130B6FBF0F030
:100CF0004044B84207D343F6A530C0F2000040F2AA
:100D0000C64100F0C3FA2078022807D343F6A53085
:100D1000C0F200004FF4996100F0B8FA44F20015F7
:100D2000C4F20505B5F8FE02C00707D143F6A530A9
:100D3000C0F2000040F2C94100F0A8FA2868217909
:100D4000C90961F3C710286060682860207800280E
:100D500040D0B5F8FE02C00707D143F6A530C0F277
:100D6000000040F2E64100F091FA15F8DA0C00F0CC
:100D7000070005280FBF6FF00500012005F8D60C0D
:100D80000020BDE8F08100BF6FF00200BDE8F081F7
:100D900043F6A530C0F2000040F2C24100F076FAFE
:100DA000A878298841EA004010F4702F7FF478AFCA
:100DB00043F6A530C0F2000040F2C34100F066FAED
:100DC000A878298841EA004010F4704F7FF477AF8B
:100DD00069E700BF0120BDE8F041FFF7FFBD00005B
:100DE000002804BF6FF00200704741F20031C1F2E9
:100DF000101141600121017000207047F0B585B0ED
:100E000048F20006C4F2040632680C460492726886
:100E100005460392B1680291F06804F0E061B1F117
:100E2000E06F01906AD004F07000702872D004F472
:100E3000E020B0F5E02F7BD004F4E000B0F5E00F47
:100E400000F0848004F00700072800F08C8004F490
:100E5000E060B0F5E06F00F0948004F4E040B0F59D
:100E6000E04F00F09C8047F27770C0F27770054247
:100E700000F0A48044F2FE30C4F205000088C007F0
:100E800007D143F6A530C0F2000040F2A92100F0DE
:100E9000FDF944F22007C4F20507B87900F0070015
:100EA000052840F095803069C00707D143F6A5308A
:100EB000C0F200004FF42C7100F0E8F94FF6EE207C
:100EC000CFF6FF7030604FF0FF307060B060F060C0
:100ED0001E2002F007FD386804EA0501A843084314
:100EE00038601E2002F0FEFC0498306003987060A9
:100EF0000298B0600198F06070E000BF43F6A53042
:100F0000C0F2000040F2A12100F0C0F904F070002E
:100F100070288CD143F6A530C0F2000040F2A22127
:100F200000F0B4F904F4E020B0F5E02F7FF484AFD2
:100F300043F6A530C0F2000040F2A32100F0A6F96C
:100F400004F4E000B0F5E00F7FF47CAF43F6A53089
:100F5000C0F200004FF4297100F098F904F0070086
:100F600007287FF474AF43F6A530C0F2000040F2CA
:100F7000A52100F08BF904F4E060B0F5E06F7FF498
:100F80006CAF43F6A530C0F2000040F2A62100F09D
:100F90007DF904F4E040B0F5E04F7FF464AF43F630
:100FA000A530C0F2000040F2A72100F06FF947F22F
:100FB0007770C0F2777005427FF45CAF43F6A530DE
:100FC000C0F200004FF42A7100F060F952E700BF50
:100FD000386804EA0501A843084338601E2002F07F
:100FE00081FC02F09DFA4FF47A7005B0BDE8F04044
:100FF00002F06EBA70B584B048F20005C4F2040580
:101000002968044603916968062C0291A968019138
:10101000E868009007D343F6A530C0F2000040F224
:10102000372100F033F944F22606C4F20506B6F87B
:10103000D803C00707D143F6A530C0F200004FF433
:101040000E7100F023F93078052C05D000F0070070
:10105000052801D0347023E02869C00707D143F682
:10106000A530C0F200004FF4107100F00FF94FF6F8
:10107000EE20CFF6FF7028604FF0FF306860A86068
:10108000E8601E2002F02EFC1E20347002F02AFCC4
:1010900003982860029868600198A8600098E8604A
:1010A0001E2002F01FFC04B0BDE8704002F038BA08
:1010B000B0B582B000285FD004460078022807D37C
:1010C00043F6A530C0F200004FF45F7100F0DEF887
:1010D0006078010141EA1010C0B2042850D2A07813
:1010E00040F04000402858D1E07840F0800080284F
:1010F00060D120790138092807D343F6A530C0F222
:1011000000004FF4607100F0C1F844F23C05C4F2F5
:101110000505B5F8C203C00707D143F6A530C0F2F4
:10112000000040F2813100F0B1F8207985F86600C6
:101130006178E278A378114344F210421943C4F273
:10114000050220781170B5F8C213002801F00100E3
:101150003ED038B943F6A530C0F2000040F29D31D0
:1011600000F094F815F8160C00F0070003286DD174
:101170006FF0050002B0B0BD6FF0020002B0B0BD6C
:1011800043F6A530C0F2000040F27D3100F07EF859
:10119000A07840F040004028A6D043F6A530C0F229
:1011A000000040F27E3100F071F8E07840F08000FD
:1011B00080289ED043F6A530C0F2000040F27F3177
:1011C00000F064F820790138092896D29DE700BF25
:1011D00038B943F6A530C0F2000040F29D3100F06E
:1011E00055F8002005F80A0C01900198B0F5805FD1
:1011F00027D82878000735D401980130019001984C
:10120000B0F5805F1DD8287800072BD401980130F5
:1012100001900198B0F5805F13D82878000721D499
:101220000198013001900198B0F5805F09D82878C5
:10123000000717D40198013001900198B0F5805F44
:10124000D7D96FF0070002B0B0BD00BFD5F8C40019
:10125000000604D415F8120C00283FF489AF0120D1
:1012600005F80A0C002002B0B0BD0000002804BF41
:101270006FF00200704701460120088000204FF403
:10128000B0628870A1F8032070470000FEE70000FC
:10129000F0B581B0154643F20042044640F4806048
:1012A000C4F2050290420E464CD1042E54D2022DB7
:1012B00007D343F6C430C0F2000040F27D11FFF7BF
:1012C000E5FF48F2F001C1F6FF71087820B14FF058
:1012D000FF3001B0F0BD00BF01200870E26900FAE4
:1012E00006FE6FEA0E031A421CD04FF6FF7CE0693F
:1012F000002EC0F20A0C18BF10F0010038D1E069CE
:10130000012E18BF10F002004ED1E069022E18BF66
:1013100010F0040066D1E069032E18BF10F0080039
:1013200040F08080E069012D19BF184000F00F00E7
:101330000EF00F021043E061002000220A7001B09D
:10134000F0BD00BF43F6C430C0F2000040F27B1194
:10135000FFF79CFF042EAAD343F6C430C0F200006E
:101360004FF4BE71FFF792FF022DA2D2A9E700BF92
:10137000A06CA26E6245C2D8120CB2EB104FBED266
:10138000002244F6FD77E069C0071FBFE0695FEA0D
:10139000C070E0695FEAC070B1D0BA4202F10302E6
:1013A0006FF00700EFD9C8E7D4F88800D4F8A82078
:1013B0006245AAD8120CB2EB104FA6D2002244F616
:1013C000FD77E069800741BFE0695FEA8070E0690E
:1013D0005FEA807099D5BA4202F103026FF007000C
:1013E000EFD9AAE7D4F8C800D4F8E820624592D82B
:1013F000120CB2EB104FBFF48EAF002244F6FD7713
:10140000E069400741BFE0695FEA4070E0695FEA78
:1014100040707FF580AFBA4202F103026FF007001F
:10142000EED98AE7D4F80801D4F8282162453FF6BE
:1014300079AF120CB2EB104FBFF474AF002244F638
:10144000FD77E069000741BFE0695FEA0070E0698D
:101450005FEA00707FF566AFBA4202F103026FF0F7
:101460000700EED969E70000B0B543F20042044638
:1014700040F48060C4F2050290420D4602D155B995
:101480000EE000BF43F6C430C0F200004FF4B2716A
:10149000FFF7FCFE25B125F00F1008B9A561B0BD1E
:1014A00043F6C430C0F2000040F26511FFF7EEFED3
:1014B000A561B0BDB0B543F20042044640F480607F
:1014C000C4F2050290420D4604D1022D0BD22560D4
:1014D000B0BD00BF43F6C430C0F20000FB21FFF7EF
:1014E000D5FE022DF3D343F6C430C0F20000FC2138
:1014F000FFF7CCFE2560B0BD70B5144643F2004244
:10150000054640F48060C4F2050290420E460FD1B9
:10151000042E17D204B3E068002844D0B0F5007F51
:101520001ED0B0F5807F1ED12079C0071BD12AE0E4
:1015300043F6C430C0F200004FF46B71FFF7A6FE13
:10154000042EE7D343F6C430C0F2000040F2AD31C0
:10155000FFF79CFE002CDED16FF0020070BD00BFD3
:101560002079800714D043F6C430C0F2000040F266
:10157000B231FFF78BFEE068A8B1B0F5007F07D06D
:10158000B0F5807F07D1207AC00704D10BE000BFFF
:10159000207A800707D043F6C430C0F2000040F242
:1015A000B331FFF773FEA069032807D343F6C430B5
:1015B000C0F200004FF46D71FFF768FEE069082883
:1015C0002ED8012101FA00F040F21111084227D073
:1015D0002069B0F5806F2FD8206840F48050B0F5B6
:1015E000805F37D1606805EB86110864A0684864A5
:1015F000D4E904026FF39F2040EA02408864C86D7A
:101600002368E668D4E9065433432B4341F20F3292
:10161000234390431A401044C865002070BD00BFAA
:1016200043F6C430C0F2000040F2B531FFF72EFEA1
:101630002069B0F5806FCFD943F6C430C0F2000006
:1016400040F2B631FFF722FE206840F48050B0F53A
:10165000805FC7D043F6C430C0F2000040F2B7311B
:10166000FFF714FEBEE70000F0B581B0144643F268
:101670000042054640F48060C4F2050290420E46E6
:1016800038D1042E07D343F6C430C0F2000040F234
:101690002321FFF7FBFD05F14401B2018C5005F158
:1016A00064039858A0424FF0000031D040F6FE7617
:1016B00040F6FD7E40F6FC7C0025B0EB153F25D1C1
:1016C0008C509F58A74212D0B5421FD88C509F58BB
:1016D000A7420CD0754519D88C509F58A74206D008
:1016E000654513D88C509F580435A742E5D100209A
:1016F00001B0F0BD43F6C430C0F2000040F2222138
:10170000FFF7C4FD042EBED2C5E700BF6FF007008F
:1017100001B0F0BDF0B581B0144643F20042054679
:1017200040F48060C4F2050290420E4638D1042E87
:1017300007D343F6C430C0F2000040F20621FFF7A1
:10174000A5FD05F14001B2018C5005F160039858E8
:10175000A0424FF0000031D040F6FE7640F6FD7E0C
:1017600040F6FC7C0025B0EB153F25D18C509F58EE
:10177000A74212D0B5421FD88C509F58A7420CD018
:10178000754519D88C509F58A74206D0654513D887
:101790008C509F580435A742E5D1002001B0F0BD20
:1017A00043F6C430C0F2000040F20521FFF76EFDA1
:1017B000042EBED2C5E700BF6FF0070001B0F0BD38
:1017C0002DE9F041144643F20042054640F48060A2
:1017D000C4F2050290420E4654D1042E07D343F6BC
:1017E000C430C0F2000040F24121FFF74FFD05F187
:1017F0004801B201885805F16803C0EA04408850E6
:101800009858B4EB104F4FF0000008BFBDE8F081CE
:10181000260440F6FE7840F6FD7C40F6FC7E00276C
:10182000B0EB173F2AD18D58ADB235438D509D583E
:10183000B4EB154F1ED0474520D88D58ADB2354377
:101840008D509D58B4EB154F14D0674516D88D5860
:10185000ADB235438D509D58B4EB154F0AD0774546
:101860000CD88D580437ADB235438D509D58B4EB2C
:10187000154FD5D10020BDE8F08100BF6FF0070003
:10188000BDE8F08143F6C430C0F200004FF410719F
:10189000FFF7FCFC042EAAD3A1E70000002804BF38
:1018A0006FF002007047014600200122C1E90000EC
:1018B000C1E90200C1E90420C1E906007047000047
:1018C00010B50446022807D343F6E330C0F2000007
:1018D00040F27111FFF7DAFC40F20040C4F201005F
:1018E0000068012807D043F6E330C0F200004FF44F
:1018F000B971FFF7CBFC48F24010C4F2202004601D
:1019000010BD000010B50446022807D343F6E330AB
:10191000C0F2000040F26311FFF7B8FC40F2004053
:10192000C4F201000068012807D043F6E330C0F29A
:1019300000004FF4B271FFF7A9FC48F26010C4F246
:101940002020046010BD0000F0B581B040F20847CF
:10195000C4F2010757F8081C0446012907D043F6D2
:10196000E330C0F2000040F24F11FFF78FFCF12C82
:1019700007D343F6E330C0F200004FF4A871FFF73D
:1019800085FC3968220962F30711396048F20401C5
:10199000C1F6FF7144F22000096841F25972C4F2A5
:1019A00005000023CDF2B7123D6805F0F005A54211
:1019B00040D00568C5F3026521FA05F5A5FB02567E
:1019C000B3EB963F31D23E6806F0F006A64231D026
:1019D00006680133C6F3026621FA06F6A6FB026525
:1019E000B3EB953F21D23E6806F0F006A64221D027
:1019F00006680133C6F3026621FA06F6A6FB026505
:101A0000B3EB953F11D23E6806F0F006A64211D026
:101A10000668C6F3026621FA06F6A6FB02655E1C9E
:101A2000B6EB953F03F10203BED36FF0070001B0A0
:101A3000F0BD00BF002001B0F0BD000010B50446AD
:101A400001384FF6FF71884207D343F64140C0F298
:101A5000000040F20F21FFF719FC41F25800C4F2D8
:101A60000500046010BD000070B504460D4628B1A5
:101A700043F6EE20C7F20C00204006D043F60240A9
:101A8000C0F200007121FFF701FC022D06D343F6DE
:101A90000240C0F200007221FFF7F8FB48F2000696
:101AA000C4F204063069C00706D143F60240C0F212
:101AB00000007321FFF7EAFB3068012D14BF2043BB
:101AC000A043306070BD000070B504460D4678B18B
:101AD00040F28620CFF2F000204009D148F20406FF
:101AE000C4F204068DB930682043306070BD00BF79
:101AF00043F60240C0F200008421FFF7C7FB48F222
:101B00000406002DC4F20406EDD0012D04D1306886
:101B1000A043306070BD00BF43F60240C0F2000039
:101B20008521FFF7B3FB30682043306070BD0000B3
:101B3000F0B581B043F60447C4F20507154637F8FF
:101B4000082C0C46D107064600F0AE80062E80F029
:101B5000B680002C00F0BE80B001391F012D04F0CA
:101B6000010240F0C1801AB1425A42F4004242528E
:101B7000022CC0F04781A10703D5C15B41F40041AD
:101B8000C153042CC0F03E81610704D539188A88FE
:101B900042F400428A80082CC0F03481210704D529
:101BA00039180A8942F400420A81102CC0F02A81B7
:101BB000E10604D539188A8942F400428A81202C32
:101BC000C0F02081A10604D539180A8A42F40042E7
:101BD0000A82402CC0F01681610604D539188A8A21
:101BE00042F400428A82802CC0F00C81210604D588
:101BF00039180A8B42F400420A83B4F5807FC0F0A2
:101C00000181E10504D539188A8B42F400428A83A8
:101C1000B4F5007FC0F0F680A10504D539180A8C10
:101C200042F400420A84B4F5806FC0F0EB80610595
:101C300004D539188A8C42F400428A84B4F5006FC6
:101C4000C0F0E080210504D539180A8D42F4004225
:101C50000A85B4F5805FC0F0D580E10404D5391859
:101C60008A8D42F400428A85B4F5005FC0F0CA80D4
:101C7000A10404D539180A8E42F400420A86B4F54C
:101C8000804FC0F0BF80610404D539188A8E42F4B9
:101C900000428A8621B2B1F1FF3F00F3B38038449D
:101CA000018F41F40041B3E043F62140C0F200004F
:101CB00040F28121FFF7EAFA062EFFF44AAF43F61D
:101CC0002140C0F2000040F28221FFF7DFFA002C31
:101CD0007FF442AF43F62140C0F2000040F283217E
:101CE000FFF7D4FA38E700BF1AB10A5A6FF3DF32B0
:101CF0000A52012C40F28680A10703D5C15B6FF325
:101D0000DF31C153042C7DD3610704D539188A888B
:101D10006FF3DF328A80082C74D3210704D5391879
:101D20000A896FF3DF320A81102C6BD3E10604D5E8
:101D300039188A896FF3DF328A81202C62D3A10699
:101D400004D539180A8A6FF3DF320A82402C59D33E
:101D5000610604D539188A8A6FF3DF328A82802CB3
:101D600050D3210604D539180A8B6FF3DF320A836A
:101D7000B4F5807F46D3E10504D539188A8B6FF31B
:101D8000DF328A83B4F5007F3CD3A10504D539182E
:101D90000A8C6FF3DF320A84B4F5806F32D36105A9
:101DA00004D539188A8C6FF3DF328A84B4F5006F5A
:101DB00028D3210504D539180A8D6FF3DF320A853F
:101DC000B4F5805F1ED3E10404D539188A8D6FF312
:101DD000DF328A85B4F5005F14D3A10404D5391825
:101DE0000A8E6FF3DF320A86B4F5804F0AD361049E
:101DF00004D539188A8E6FF3DF328A8621B2B1F1A9
:101E0000FF3F01DD01B0F0BD3844018F6FF3DF31DA
:101E1000018701B0F0BD0000F0B581B0002A71D09B
:101E200043F6FC37C4F205070646388814460D46CB
:101E3000C0076BD0062E73D2002D7CD020880228DC
:101E400080F08580608840F00200022840F08D809C
:101E5000A08840F00400042840F09580E088002825
:101E600018BF102840F09880208940F48040B0F5D9
:101E7000804F40F09D80608940F04000402840F055
:101E8000A580A08940F40070B0F5007F40F0AD80DF
:101E9000E08940F48050B0F5805F40F0B580208A42
:101EA00040F40040B0F5004F40F0BD8007EB8610D5
:101EB000011D002242F6885C4DF27727E80716D014
:101EC00020886688E3883043A688304318436389B6
:101ED000A6891843E389304326891843238A30436F
:101EE0008E5A184306EA0C033840184488520020E2
:101EF000B0EB550F04D06D083C2A02F10402DDD18D
:101F000001B0F0BD6FF0020001B0F0BD43F621401A
:101F1000C0F200004FF48071FFF7B8F9062E8BD3A2
:101F200043F62140C0F2000040F20111FFF7AEF984
:101F3000002D7FF483AF43F62140C0F200004FF440
:101F40008171FFF7A3F920880228FFF47BAF43F6E5
:101F50002140C0F2000040F20311FFF797F96088BA
:101F600040F0020002283FF473AF43F62140C0F274
:101F700000004FF48271FFF789F9A08840F0040057
:101F800004283FF46BAF43F62140C0F2000040F25A
:101F90000511FFF77BF961E720283FF465AF43F6B1
:101FA0002140C0F200004FF48371FFF76FF95BE747
:101FB00043F62140C0F2000040F20711FFF766F936
:101FC000608940F0400040283FF45BAF43F6214079
:101FD000C0F200004FF48471FFF758F9A08940F473
:101FE0000070B0F5007F3FF453AF43F62140C0F2DC
:101FF000000040F20911FFF749F9E08940F48050F0
:10200000B0F5805F3FF44BAF43F62140C0F20000D3
:102010004FF48571FFF73AF9208A40F40040B0F59B
:10202000004F3FF443AF43F62140C0F2000040F2BE
:102030000B11FFF72BF939E7B0B5054606280C461A
:1020400007D343F62140C0F200004FF4FF71FFF7C1
:102050001DF93CB943F62140C0F2000040F2FF11E7
:10206000FFF714F943F600012801C4F20501085AEC
:10207000204018BF0120B0BDB0B5054606280C466B
:1020800007D343F62140C0F2000040F24A21FFF797
:10209000FDF83CB943F62140C0F2000040F24B216C
:1020A000FFF7F4F843F60A012801C4F205010A5AC1
:1020B00022430A52B0BD0000F0B581B01546064675
:1020C00006280C4604D26CB1102D15D220E000BFBA
:1020D00043F62140C0F200004FF4BE71FFF7D6F87E
:1020E000002CF1D143F62140C0F2000040F27D11F6
:1020F000FFF7CCF8102D0BD3A5F120001C2807D337
:1021000043F62140C0F200004FF4BF71FFF7BEF864
:1021100043F6FC37C4F205073888C0070AD0E00749
:102120004FEA861105F03F0012D1012C18D801B0FA
:10213000F0BD00BF43F62140C0F2000040F27F1125
:10214000FFF7A4F8E0074FEA861105F03F00ECD056
:102150007A18D38823F03F030344D380012CE6D9B7
:10216000A20705D57A18538923F03F03034453810E
:10217000042CDCD3620705D57A18D38923F03F03FA
:102180000344D381082CD2D3220705D57A18538A69
:1021900023F03F0303445382102CC8D3E20605D535
:1021A0007A18D38A23F03F030344D382202CBED372
:1021B000A20605D57A18538B23F03F0303445383BB
:1021C000402CB4D3620605D57A18D38B23F03F0395
:1021D0000344D383802CAAD3220605D57A18538CC6
:1021E00023F03F0303445384B4F5807F9FD3E2057B
:1021F00005D57A18D38C23F03F030344D384B4F578
:10220000007F94D3A20505D57A18538D23F03F03A0
:1022100003445385B4F5806FFFF489AF620505D59B
:102220007A18D38D23F03F030344D385B4F5006FB0
:10223000FFF47DAF220505D57A18538E23F03F03B6
:1022400003445386B4F5805FFFF471AFE20405D513
:102250007A18D38E23F03F030344D386B4F5005F8E
:10226000FFF465AFA20405D57A18538F23F03F031E
:1022700003445387B4F5804FFFF459AF620405D58A
:102280007A18D38F23F03F030344D38722B2B2F1ED
:10229000FF3F3FF74CAF3944B1F8422022F03F02F4
:1022A0001044A1F8420001B0F0BD0000B0B50546F1
:1022B00006280C4607D343F62140C0F200004FF435
:1022C0000E71FEF7E3FF3CB943F62140C0F2000077
:1022D00040F23921FEF7DAFF43F608012801C4F283
:1022E00005010A5A22430A52B0BD0000B0B50446A7
:1022F000800407D043F62140C0F200004FF4ED7196
:10230000FEF7C4FF43F6F835C4F20505A888C007F8
:1023100007D143F62140C0F2000040F2DB11FEF786
:10232000B5FF288804F440416FF39F3008442880AB
:10233000B0BD0000002804BF6FF0020070470146E6
:1023400000200882C860886048600860704700000C
:10235000B0B548B3B0F800C00546BCF5007F08D35F
:1023600043F64140C0F20000CD21FEF78FFFB5F8E3
:1023700000C04FEA5C1101EB410000F110014B007D
:10238000B5F9021025248B424FF0000304EB400006
:102390004FF0000288BF0123884238BF0122202964
:1023A00006D353EA020003D06FF00200B0BD00BFB5
:1023B00041F25C02C4F2050252F8210040F2FF1320
:1023C0006FF35F20984203D142F821C009E000BFBB
:1023D00052F821006FF35F2060451CBF6FF00100D1
:1023E000B0BD686848F28012C1F6FF7242F8210061
:1023F0000020B0BD80B548F28010C1F6FF700068C3
:102400008047BFF34F8F80BD80B548F28010C1F682
:10241000FF7040688047BFF34F8F80BD80B548F2A2
:102420008010C1F6FF7080688047BFF34F8F80BD7A
:1024300080B548F28010C1F6FF70C0688047BFF3D6
:102440004F8F80BD80B548F28010C1F6FF700069E3
:102450008047BFF34F8F80BD80B548F28010C1F632
:10246000FF7040698047BFF34F8F80BD80B548F251
:102470008010C1F6FF7080698047BFF34F8F80BD29
:1024800080B548F28010C1F6FF70C0698047BFF385
:102490004F8F80BD80B548F28010C1F6FF70006A92
:1024A0008047BFF34F8F80BD80B548F28010C1F6E2
:1024B000FF70406A8047BFF34F8F80BD80B548F200
:1024C0008010C1F6FF70806A8047BFF34F8F80BDD8
:1024D00080B548F28010C1F6FF70C06A8047BFF334
:1024E0004F8F80BD80B548F28010C1F6FF70006B41
:1024F0008047BFF34F8F80BD80B548F28010C1F692
:10250000FF70406B8047BFF34F8F80BD80B548F2AE
:102510008010C1F6FF70806B8047BFF34F8F80BD86
:1025200080B548F28010C1F6FF70C06B8047BFF3E2
:102530004F8F80BD80B548F28010C1F6FF70006CEF
:102540008047BFF34F8F80BD80B548F28010C1F641
:10255000FF70406C8047BFF34F8F80BD80B548F25D
:102560008010C1F6FF70806C8047BFF34F8F80BD35
:1025700080B548F28010C1F6FF70C06C8047BFF391
:102580004F8F80BD80B548F28010C1F6FF70006D9E
:102590008047BFF34F8F80BD80B548F28010C1F6F1
:1025A000FF70406D8047BFF34F8F80BD80B548F20C
:1025B0008010C1F6FF70806D8047BFF34F8F80BDE4
:1025C00080B548F28010C1F6FF70C06D8047BFF340
:1025D0004F8F80BD80B548F28010C1F6FF70006E4D
:1025E0008047BFF34F8F80BD80B548F28010C1F6A1
:1025F000FF70406E8047BFF34F8F80BD80B548F2BB
:102600008010C1F6FF70806E8047BFF34F8F80BD92
:1026100080B548F28010C1F6FF70C06E8047BFF3EE
:102620004F8F80BD80B548F28010C1F6FF70006FFB
:102630008047BFF34F8F80BD80B548F28010C1F650
:10264000FF70406F8047BFF34F8F80BD80B548F269
:102650008010C1F6FF70806F8047BFF34F8F80BD41
:1026600080B548F28010C1F6FF70C06F8047BFF39D
:102670004F8F80BD80B548F28010C1F6FF70D0F852
:1026800080008047BFF34F8F80BD000080B548F2C7
:102690008010C1F6FF70D0F884008047BFF34F8FE1
:1026A00080BD000080B548F28010C1F6FF70D0F800
:1026B00088008047BFF34F8F80BD000080B548F28F
:1026C0008010C1F6FF70D0F88C008047BFF34F8FA9
:1026D00080BD000080B548F28010C1F6FF70D0F8D0
:1026E00090008047BFF34F8F80BD000080B548F257
:1026F0008010C1F6FF70D0F894008047BFF34F8F71
:1027000080BD000080B548F28010C1F6FF70D0F89F
:1027100098008047BFF34F8F80BD000080B548F21E
:102720008010C1F6FF70D0F89C008047BFF34F8F38
:1027300080BD000080B548F28010C1F6FF70D0F86F
:10274000A0008047BFF34F8F80BD000080B548F2E6
:102750008010C1F6FF70D0F8A4008047BFF34F8F00
:1027600080BD000080B548F28010C1F6FF70D0F83F
:10277000A8008047BFF34F8F80BD000080B548F2AE
:102780008010C1F6FF70D0F8AC008047BFF34F8FC8
:1027900080BD000080B548F28010C1F6FF70D0F80F
:1027A000B0008047BFF34F8F80BD000080B548F276
:1027B0008010C1F6FF70D0F8B4008047BFF34F8F90
:1027C00080BD000080B548F28010C1F6FF70D0F8DF
:1027D000B8008047BFF34F8F80BD000080B548F23E
:1027E0008010C1F6FF70D0F8BC008047BFF34F8F58
:1027F00080BD000080B548F28010C1F6FF70D0F8AF
:10280000C0008047BFF34F8F80BD000080B548F205
:102810008010C1F6FF70D0F8C4008047BFF34F8F1F
:1028200080BD000080B548F28010C1F6FF70D0F87E
:10283000C8008047BFF34F8F80BD000080B548F2CD
:102840008010C1F6FF70D0F8CC008047BFF34F8FE7
:1028500080BD000080B548F28010C1F6FF70D0F84E
:10286000D0008047BFF34F8F80BD000080B548F295
:102870008010C1F6FF70D0F8D4008047BFF34F8FAF
:1028800080BD000080B548F28010C1F6FF70D0F81E
:10289000D8008047BFF34F8F80BD000080B548F25D
:1028A0008010C1F6FF70D0F8DC008047BFF34F8F77
:1028B00080BD000080B548F28010C1F6FF70D0F8EE
:1028C000E0008047BFF34F8F80BD000080B548F225
:1028D0008010C1F6FF70D0F8E4008047BFF34F8F3F
:1028E00080BD000080B548F28010C1F6FF70D0F8BE
:1028F000E8008047BFF34F8F80BD000080B548F2ED
:102900008010C1F6FF70D0F8EC008047BFF34F8F06
:1029100080BD000080B548F28010C1F6FF70D0F88D
:10292000F0008047BFF34F8F80BD000080B548F2B4
:102930008010C1F6FF70D0F8F4008047BFF34F8FCE
:1029400080BD000080B548F28010C1F6FF70D0F85D
:10295000F8008047BFF34F8F80BD000080B548F27C
:102960008010C1F6FF70D0F8FC008047BFF34F8F96
:1029700080BD000080B548F28010C1F6FF70D0F82D
:1029800000018047BFF34F8F80BD000080B548F243
:102990008010C1F6FF70D0F804018047BFF34F8F5D
:1029A00080BD000080B548F28010C1F6FF70D0F8FD
:1029B00008018047BFF34F8F80BD000080B548F20B
:1029C0008010C1F6FF70D0F80C018047BFF34F8F25
:1029D00080BD000080B548F28010C1F6FF70D0F8CD
:1029E00010018047BFF34F8F80BD000080B548F2D3
:1029F0008010C1F6FF70D0F814018047BFF34F8FED
:102A000080BD000080B548F28010C1F6FF70D0F89C
:102A100018018047BFF34F8F80BD000080B548F29A
:102A20008010C1F6FF70D0F81C018047BFF34F8FB4
:102A300080BD000080B548F28010C1F6FF70D0F86C
:102A400020018047BFF34F8F80BD000080B548F262
:102A50008010C1F6FF70D0F824018047BFF34F8F7C
:102A600080BD000080B548F28010C1F6FF70D0F83C
:102A700028018047BFF34F8F80BD000080B548F22A
:102A80008010C1F6FF70D0F82C018047BFF34F8F44
:102A900080BD000080B548F28010C1F6FF70D0F80C
:102AA00030018047BFF34F8F80BD000080B548F2F2
:102AB0008010C1F6FF70D0F834018047BFF34F8F0C
:102AC00080BD000080B548F28010C1F6FF70D0F8DC
:102AD00038018047BFF34F8F80BD000080B548F2BA
:102AE0008010C1F6FF70D0F83C018047BFF34F8FD4
:102AF00080BD000080B548F28010C1F6FF70D0F8AC
:102B000040018047BFF34F8F80BD000080B548F281
:102B10008010C1F6FF70D0F844018047BFF34F8F9B
:102B200080BD000080B548F28010C1F6FF70D0F87B
:102B300048018047BFF34F8F80BD000080B548F249
:102B40008010C1F6FF70D0F84C018047BFF34F8F63
:102B500080BD000080B548F28010C1F6FF70D0F84B
:102B600050018047BFF34F8F80BD000080B548F211
:102B70008010C1F6FF70D0F854018047BFF34F8F2B
:102B800080BD000080B548F28010C1F6FF70D0F81B
:102B900058018047BFF34F8F80BD000080B548F2D9
:102BA0008010C1F6FF70D0F85C018047BFF34F8FF3
:102BB00080BD000080B548F28010C1F6FF70D0F8EB
:102BC00060018047BFF34F8F80BD000080B548F2A1
:102BD0008010C1F6FF70D0F864018047BFF34F8FBB
:102BE00080BD000080B548F28010C1F6FF70D0F8BB
:102BF00068018047BFF34F8F80BD000080B548F269
:102C00008010C1F6FF70D0F86C018047BFF34F8F82
:102C100080BD000080B548F28010C1F6FF70D0F88A
:102C200070018047BFF34F8F80BD000080B548F230
:102C30008010C1F6FF70D0F874018047BFF34F8F4A
:102C400080BD000080B548F28010C1F6FF70D0F85A
:102C500078018047BFF34F8F80BD000080B548F2F8
:102C60008010C1F6FF70D0F87C018047BFF34F8F12
:102C700080BD000080B548F28010C1F6FF70D0F82A
:102C800080018047BFF34F8F80BD000080B548F2C0
:102C90008010C1F6FF70D0F884018047BFF34F8FDA
:102CA00080BD000080B548F28010C1F6FF70D0F8FA
:102CB00088018047BFF34F8F80BD000080B548F288
:102CC0008010C1F6FF70D0F88C018047BFF34F8FA2
:102CD00080BD000080B548F28010C1F6FF70D0F8CA
:102CE00090018047BFF34F8F80BD000080B548F250
:102CF0008010C1F6FF70D0F894018047BFF34F8F6A
:102D000080BD000080B548F28010C1F6FF70D0F899
:102D100098018047BFF34F8F80BD000080B548F217
:102D20008010C1F6FF70D0F89C018047BFF34F8F31
:102D300080BD000080B548F28010C1F6FF70D0F869
:102D4000A0018047BFF34F8F80BD000080B548F2DF
:102D50008010C1F6FF70D0F8A4018047BFF34F8FF9
:102D600080BD000080B548F28010C1F6FF70D0F839
:102D7000A8018047BFF34F8F80BD000080B548F2A7
:102D80008010C1F6FF70D0F8AC018047BFF34F8FC1
:102D900080BD000080B548F28010C1F6FF70D0F809
:102DA000B0018047BFF34F8F80BD000080B548F26F
:102DB0008010C1F6FF70D0F8B4018047BFF34F8F89
:102DC00080BD000080B548F28010C1F6FF70D0F8D9
:102DD000B8018047BFF34F8F80BD000080B548F237
:102DE0008010C1F6FF70D0F8BC018047BFF34F8F51
:102DF00080BD000080B548F28010C1F6FF70D0F8A9
:102E0000C0018047BFF34F8F80BD000080B548F2FE
:102E10008010C1F6FF70D0F8C4018047BFF34F8F18
:102E200080BD000080B548F28010C1F6FF70D0F878
:102E3000C8018047BFF34F8F80BD000080B548F2C6
:102E40008010C1F6FF70D0F8CC018047BFF34F8FE0
:102E500080BD000080B548F28010C1F6FF70D0F848
:102E6000D0018047BFF34F8F80BD000080B548F28E
:102E70008010C1F6FF70D0F8D4018047BFF34F8FA8
:102E800080BD000080B548F28010C1F6FF70D0F818
:102E9000D8018047BFF34F8F80BD000080B548F256
:102EA0008010C1F6FF70D0F8DC018047BFF34F8F70
:102EB00080BD000080B548F28010C1F6FF70D0F8E8
:102EC000E0018047BFF34F8F80BD000080B548F21E
:102ED0008010C1F6FF70D0F8E4018047BFF34F8F38
:102EE00080BD000080B548F28010C1F6FF70D0F8B8
:102EF000E8018047BFF34F8F80BD000080B548F2E6
:102F00008010C1F6FF70D0F8EC018047BFF34F8FFF
:102F100080BD000080B548F28010C1F6FF70D0F887
:102F2000F0018047BFF34F8F80BD000080B548F2AD
:102F30008010C1F6FF70D0F8F4018047BFF34F8FC7
:102F400080BD000080B548F28010C1F6FF70D0F857
:102F5000F8018047BFF34F8F80BD000080B548F275
:102F60008010C1F6FF70D0F8FC018047BFF34F8F8F
:102F700080BD0000C10709D040F20041C4F2010148
:102F800040F223120A6043F210220A60810707D53B
:102F900048F210010122C4F20401CAF2A5520A60EB
:102FA00041074AF2015C42BF43F6FC32C4F205021B
:102FB000A2F800C0C20644F2FE32C4F2050204D5F3
:102FC00013880CF1070119431180410604D51188BB
:102FD0000CF1020319431180000658BF704740F6F8
:102FE0000400C4F205007721016081607047000091
:102FF000C1071DD1810723D441072BD4C10644F258
:10300000FE31C4F2050132D4420605D50A8842F4E5
:10301000254222F003020A80000658BF704740F69E
:103020000400C4F20500762101608160704700BF92
:1030300040F20041C4F2010100220A608107DBD5A1
:1030400048F210010022C4F20401CAF2A5520A603B
:103050004107D3D543F6FC31C4F205014FF42542B4
:103060000A80C10644F2FE31C4F20501CCD50A88BB
:1030700042F4254222F008020A804206CCD5C5E778
:1030800010B544F20244C4F2050434F8040C80077D
:1030900007D443F66740C0F2000040F2AD41FEF7AE
:1030A000F5F8207800F0C0000F3020701020607319
:1030B0001E2000F017FC002010BD0000B0B5044633
:1030C0004FF6FF70C4F2010084420D460CDC4CF256
:1030D0000000C4F20100844211D04CF20040C4F25E
:1030E000010084420BD02BE00020C4F20200844295
:1030F00005D040F20040C4F20200844220D1022DEB
:1031000007D343F68640C0F2000040F26321FEF789
:10311000BDF86069002D18BF10F0040007D043F619
:103120008640C0F200004FF41971FEF7AFF86068F6
:10313000012D20F0400008BF40306060B0BD00BFEE
:1031400043F68640C0F2000040F26221FEF79EF88E
:10315000022DD6D2DDE70000F0B581B007464FF66C
:10316000FF70C4F2010087420D460DDC4CF20000F6
:10317000C4F20100874213D04CF20040C4F20100B7
:1031800087420DD00AE100BF0020C4F2020087424E
:1031900006D040F20040C4F20200874240F0FE80B8
:1031A000002D00F00C812868022825D2686840F0C4
:1031B000020002282DD1A86840F00800082835D167
:1031C000E86840F48050B0F5805F3DD12869002860
:1031D00018BFB0F5004F40F08180686904283DD2E7
:1031E000A8694FEAB000082845D2E8694FEA3021C3
:1031F0000C294DD25AE000BF43F68640C0F20000D1
:103200004FF4F871FEF742F8686840F002000228B7
:10321000D1D043F68640C0F2000040F2F111FEF733
:1032200035F8A86840F008000828C9D043F6864061
:10323000C0F200004FF4F971FEF728F8E86840F496
:103240008050B0F5805FC1D043F68640C0F20000E8
:1032500040F2F311FEF71AF8B8E700BF43F68640D4
:10326000C0F2000040F2F511FEF710F8A8694FEA2D
:10327000B0000828B9D343F68640C0F200004FF4EE
:10328000FB71FEF703F8E8694FEA30210C290DD3F2
:10329000A0F540604FEA3020042807D343F686406B
:1032A000C0F2000040F2F711FDF7F0FF286A40F489
:1032B0008050B0F5805F1FD1686A40F080008028A0
:1032C00027D1A86A04282FD2A868082837D1E9682E
:1032D000B1F5805F73D0296836E000BFB0F5404F8C
:1032E0003FF47BAF43F68640C0F200004FF4FA7122
:1032F000FDF7CCFF71E700BF43F68640C0F2000047
:103300004FF4FC71FDF7C2FF686A40F0800080282E
:10331000D7D043F68640C0F2000040F2F911FDF725
:10332000B5FFA86A0428CFD343F68640C0F2000058
:103330004FF4FD71FDF7AAFFA8680828C7D02968D7
:10334000012901D1B0B3012141EA000369686A6A29
:1033500005F10C0C9CE850101943114321433143F3
:103360007960F968AA6A890861F39F020828FA60FF
:103370000AD105F1180207CA40EA0C0008431043BD
:10338000B861002001B0F0BDD5E9070140EA0C00AA
:103390000843B861002001B0F0BD00BF43F686408D
:1033A000C0F2000040F2ED11FDF770FF002D7FF438
:1033B000FAAE04E0696941F002010229C3D16FF05D
:1033C000020001B0F0BD0000002804BF6FF0020051
:1033D00070470146002008224FF48063C1E90000D5
:1033E000C1E90220C1E90400C1E90623C1E90800DE
:1033F000886270472DE9F0470546013890460F284E
:10340000894647D2B9F1080F4ED2B8F1080F06D35A
:1034100043F6A540C0F20000C921FDF737FF40F692
:10342000000AC4F2050ADAF80400772806D043F649
:10343000A540C0F20000CA21FDF728FF002D08BFFB
:10344000BDE8F0874FF0000C0721002207E000BF25
:10345000BCEB550F4FEA550502F1010218D0EB07FE
:10346000F6D0D300DCB20433DBB2DAF8006001FA44
:1034700003F701FA04F0384326EA000709FA03F3D8
:1034800008FA04F6334318403843CAF80000DFE76F
:10349000BDE8F08743F6A540C0F20000C721FDF764
:1034A000F5FEB9F1080FB0D343F6A540C0F2000015
:1034B000C821FDF7EBFEB8F1080FA9D2AFE7000075
:1034C00048F2F400C1F6FF700168013101607047F5
:1034D00048F20400C1F6FF70006844F6D351C1F20F
:1034E0006201A0FB01014FF0FF3000EB91100021C1
:1034F0004EF62352B1EB106FCEF200021EBF012038
:10350000117070474EF21003CEF200035860F020A5
:10351000107007209960186000201170704700003B
:1035200080B540F28460C4F20100006842F20041BC
:1035300048F2000C44F20012C0F2F401C1F6FF7C24
:10354000C4F20502C00704BF42F60051C0F23111B7
:10355000CCF8001012F8DA3C03F00703052B88BF03
:1035600080BDDFE803F007030B030B1141F20021DC
:10357000C0F27A01CCF8041080BD00BF4FF40041C6
:10358000CCF8041080BD00BF1068D2F800E01368CA
:10359000126803F01F0312065CBF41F20021C0F263
:1035A0007A015A1CC0F30820B1FBF2F10130484304
:1035B000012101EB1E71B0FBF1F1CCF8041080BDCC
:1035C00080B540F28460C4F20100006842F200411C
:1035D00048F2000C44F20012C0F2F401C1F6FF7C84
:1035E000C4F20502C00704BF42F60051C0F2311117
:1035F000CCF8001012F8DA3C03F00703052B2AD8A8
:10360000DFE803F027040A040A0E00BF41F200219C
:10361000C0F27A011DE000BF4FF4004119E000BF85
:103620001068D2F800E01368126803F01F03120656
:103630005CBF41F20021C0F27A015A1CC0F308209D
:10364000B1FBF2F101304843012101EB1E71B0FBE7
:10365000F1F1CCF804104EF60850CEF20000002133
:10366000016080BD10B548F28434C1F6FF74204675
:10367000002100F0CFF843F6210040F20002C0F232
:103680000000C0F200022146BDE81040FCF790BEE9
:1036900048F2F80243F20000C1F6FF720123C4F2BF
:1036A000050002211370FDF7DFBE000070B548F27F
:1036B000F80648F2FC05C1F6FF760020C1F6FF755A
:1036C00043F20004307028468021C4F20504FCF760
:1036D000A7FE48F20802C1F6FF7220460021FEF75D
:1036E00019F8204600218022FEF76AF820460121C1
:1036F0002A46FDF7B9FF204601218022FEF760F837
:10370000204600210122FDF7C3FD204601210122B0
:10371000FDF7BEFDA4F55C3420460121FFF7CEFC89
:10372000307830B9307820B9307810B93078002846
:10373000F6D020460021FFF7C1FC0120BDE8704013
:1037400000F0B8B880B50820FDF70CF9642000F04F
:10375000B1F80820FDF7E2F86420BDE8804000F0F1
:10376000A9B8000070B50668C6B104460D4609E068
:10377000511A7161F5608047207A002818BF70BD2A
:10378000B6695EB170680028FAD031780029F7D0A8
:10379000D6E90212AA1A8A42EAD2F1E770BD000005
:1037A0002DE9F04105689846044616460F46ADB12E
:1037B00028464168B94227D0806978B14168B9424A
:1037C00022D0806950B14168B9421DD0806928B1CA
:1037D0004168B94218D080690028EAD11C2000F065
:1037E00053F8002180F80080C0E90176C0E9031198
:1037F00041618161002D1ABF61681831214608605E
:103800006060BDE8F08100BF866080F80080BDE8A0
:10381000F081000001720021C0E900117047000032
:10382000B0B50446006828B1856900F02AF8002D7B
:103830002846F9D12046B0BD804701A000F037F8F6
:103840007465726D696E6174655F68616E646C65E4
:103850007220756E65787065637465646C7920722A
:10386000657475726E65640048F27C10C1F6FF7075
:103870000068704748F28800C1F6FF700068FFF7E3
:10388000DBFFFCF723BE000010B50446002808BF8C
:10389000012400BF2046FCF7EAFD002818BF10BD38
:1038A000FFF7E2FF08B18047F4E7002010BDFCF706
:1038B00034FE000048F2F401C1F6FF710A6808E026
:1038C0000B689B1A834228BF70470B689B1A834280
:1038D00007D20B689B1A834203D20B689B1A834260
:1038E000EED3704710B548F20401C1F6FF710968C4
:1038F0004DF68362C4F21B32A1FB022344F6D3527D
:10390000C1F262024EF2180CA1FB0212CEF2000CC0
:10391000990CDCF8003001FB00FE9209002112E056
:10392000DCF800000C1AE118002CD8BF11447145D6
:1039300088BF10BDDCF80030C01A01440028D8BF91
:103940001144714511D8DCF800001C1A6318002CD2
:10395000D8BF1344734508D8DCF80010401A03445C
:103960000028D8BF13447345DAD910BD9AB043F28A
:103970000008C720C4F20508FFF7FCFAFCF742FF75
:103980004FF47A70FFF7A4FDFCF7A8FF6D462846B8
:10399000FEF7D0FC2020ADF80600002080212A464A
:1039A00000274FF08009FEF737FA00204FF48071AE
:1039B0002A46FEF731FA012001212A460124FEF7AA
:1039C0002BFA022020212A46FEF726FA0020802129
:1039D0002A22FEF771FB00204FF480712B22FEF7A4
:1039E0006BFB012001212822FEF766FB022020212B
:1039F0002922FEF761FB4FF480300121FEF764F8C5
:103A00000FAE3046FFF7E0FC082011901020159013
:103A10004FF48060A8F55C35CDE91607284631469D
:103A2000CDE90F77CDE913741997FFF795FB4FF4A4
:103A300010300121FEF718F807AE3046FDF72EFFD3
:103A400048F20800C1F6FF70CDE9080540460021A4
:103A50003246CDE90A74CDE90C940E97FDF74CFD82
:103A600010B100BFFEE700BF40F61406C4F2010625
:103A700030464FF49671FCF7A7FE4FF48050079044
:103A800004200E9048F2FC00C1F6FF70099007AACE
:103A9000404601210D970895FDF72EFD10B100BF9E
:103AA000FEE700BF301D40F22B11FCF78DFE2120F8
:103AB000C0F20600059043F29160C0F2000006904B
:103AC00005A8FEF745FCBDF91600B0F1FF3F15DD76
:103AD00000F01F0101224EF2001302FA01F1420927
:103AE000CEF2000303EB8207C7F880111844F027D9
:103AF00080F8007343F8221008E000BF4EF614511E
:103B000000F00F00CEF20001F022425440460121A5
:103B1000FDF7D0FC404600210122FDF7B9FB4046ED
:103B200001210122FDF7B4FB8320FFF761FA48F27F
:103B30008434C1F6FF7443F24571C0F2000120469F
:103B40000A220123FFF72CFE43F2AD61C0F200010F
:103B500020460A220123FFF723FE00BF00F006F8EB
:103B600001462046FFF7FEFDF8E7000048F2F400AA
:103B7000C1F6FF700068704710B5FCF733FC4FF0DA
:103B80000001016010BD2E2E2F2E2E2F447269765B
:103B900065722F7372632F686333325F6C6C5F6181
:103BA0006F732E63002E2E2F2E2E2F447269766592
:103BB000722F7372632F686333325F6C6C5F636C58
:103BC0006B2E63002E2E2F2E2E2F44726976657277
:103BD0002F7372632F686333325F6C6C5F646D6147
:103BE0002E63002E2E2F2E2E2F4472697665722F93
:103BF0007372632F686333325F6C6C5F65666D2E22
:103C000063002E2E2F2E2E2F4472697665722F732D
:103C100072632F686333325F6C6C5F6663672E6319
:103C2000002E2E2F2E2E2F4472697665722F7372FE
:103C3000632F686333325F6C6C5F6770696F2E63EC
:103C4000002E2E2F2E2E2F4472697665722F7372DE
:103C5000632F686333325F6C6C5F696E7465727278
:103C6000757074732E63002E2E2F2E2E2F447269C2
:103C70007665722F7372632F686333325F6C6C5F8B
:103C80007077632E63002E2E2F2E2E2F44726976AE
:103C900065722F7372632F686333325F6C6C5F736E
:103CA00070692E63002E2E2F2E2E2F44726976659A
:103CB000722F7372632F686333325F6C6C5F737241
:103CC000616D2E6300000000F03C00000880FF1FC3
:103CD00088000000BC020000783D00009080FF1FBB
:103CE00000430000D80200007DF9FFFF0000000043
:103CF00068656C6C6F21776F736869736865692D8F
:103D00002D2D2D2D2D2D2D2D2D2D6E697368697363
:103D1000686569000000000000000000000000006D
:103D20000000000000000000000000000000000093
:103D30000000000000000000000000000000000083
:103D40000000000000000000000000000000000073
:103D50000000000000000000000000000000000063
:103D60000000000000000000000000000000000053
:083D70001B050000753800007E
:040000050000028174
:00000001FF
