:020000040000FA
:10000000D8C3FF1F2D030000650300006703000035
:10001000690300006B0300006D0300000000000096
:100020000000000000000000000000006F0300005E
:10003000710300000000000073030000094000008D
:10004000652B0000792B00008D2B0000A12B0000F8
:10005000B52B0000C92B0000DD2B0000F12B0000A8
:10006000052C0000192C00002D2C0000412C000054
:10007000552C0000692C00007D2C0000912C000004
:10008000A52C0000B92C0000CD2C0000E12C0000B4
:10009000F52C0000092D00001D2D0000312D000061
:1000A000452D0000592D00006D2D0000812D000010
:1000B000952D0000A92D0000BD2D0000D12D0000C0
:1000C000E52D0000FD2D0000152E00002D2E000056
:1000D000452E00005D2E0000752E00008D2E0000C4
:1000E000A52E0000BD2E0000D52E0000ED2E000034
:1000F000052F00001D2F0000352F00004D2F0000A0
:10010000652F00007D2F0000952F0000AD2F00000F
:10011000C52F0000DD2F0000F52F00000D3000007E
:10012000253000003D300000553000006D300000EB
:10013000853000009D300000B5300000CD3000005B
:10014000E5300000FD300000153100002D310000C9
:10015000453100005D310000753100008D31000037
:10016000A5310000BD310000D5310000ED310000A7
:10017000053200001D320000353200004D32000013
:10018000653200007D32000095320000AD32000083
:10019000C5320000DD320000F53200000D330000F2
:1001A000253300003D330000553300006D3300005F
:1001B000853300009D330000B5330000CD330000CF
:1001C000E5330000FD330000153400002D3400003D
:1001D000453400005D340000753400008D340000AB
:1001E000A5340000BD340000D5340000ED3400001B
:1001F000053500001D350000353500004D35000087
:10020000653500007D35000095350000AD350000F6
:10021000C5350000DD350000F53500000D36000065
:10022000253600003D360000553600006D360000D2
:10023000853600009D360000B5360000CD36000042
:1002400077030000770300007703000077030000C6
:1002500077030000770300007703000077030000B6
:1002600077030000770300007703000077030000A6
:100270007703000077030000770300007703000096
:1002800000F002F800F043F80AA090E8000C824465
:100290008344AAF10107DA4501D100F038F8AFF242
:1002A000090EBAE80F0013F0010F18BFFB1A43F054
:1002B00001031847A0530000C0530000103A24BFA8
:1002C00078C878C1FAD8520724BF30C830C144BFBB
:1002D00004680C60704700000023002400250026FD
:1002E000103A28BF78C1FBD8520728BF30C148BF99
:1002F0000B6070471FB59DE8030000F01DF900F08A
:10030000EDF81FBD10B5002000F0BEF910BD00F0E3
:10031000EBF91146FFF7EEFF04F0D0FC00F009FA0C
:1003200003B4FFF7EFFF03BC00F086F915484FF068
:100330001F01016014484FF07701016013484FF02E
:100340007701016012484FF4885101600E484FF068
:10035000760101600D484FF0760101600D4880473D
:100360000D480047FEE7FEE7FEE7FEE7FEE7FEE793
:10037000FEE7FEE7FEE7FEE708480949094A0A4B9F
:100380007047000010080540040805400C080540AF
:10039000000805404D41000081020000D883FF1F86
:1003A000D8C3FF1FD8A3FF1FD8A3FF1F70B50446F3
:1003B000051F00F0A5F80068002C14BF446870BD4C
:1003C000002C18BFAC423CBF20466468F8D30168DB
:1003D0000A18AA4218BF456003D12A68054611448D
:1003E000016028684119A1421CBF6C6070BD616842
:1003F000696021680844286070BD70477047704785
:10040000BFFFDFFFFFFEFFFFFFFFFFFFFFFFFFFF5D
:10041000FFFFFFFFFFFFFFFFFFFFFFFFFFFFFFFFEC
:1004200070B5064600F06CF8056806F10B0020F088
:100430000704B4429CBF002070BD2B466A68BAB165
:100440001068A04210D304F1080188423CBF5068F4
:10045000586007D35168101941601168091B016089
:1004600058601460101D70BD13465268002AE7D111
:100470002146284600F04CF80028DED170BD0B461E
:100480000146184600F099B802F0FF0343EA032240
:1004900042EA024200F002B84FF000020429C0F024
:1004A000128010F0030C00F0A180CCF1040CBCF120
:1004B000020F18BF00F8012BA8BF20F8022BA1EBF8
:1004C0000C0100F093B85FEAC17C24BF00F8012B57
:1004D00000F8012B48BF00F8012B704770B5064C9F
:1004E0007C44064D7D4404E0204601680844804772
:1004F000241DAC42F8D170BD905100009051000015
:10050000004870473080FF1F704770477047704742
:1005100038B504460A4600206946AFF3008000283B
:1005200008BF38BD02460099204600F093F801202C
:1005300038BD012000F0D0B8F8B5AFF30080054613
:1005400000200C46102000BF0646A819A0420DD975
:10055000324669460020AFF30080070008BF00F074
:10056000BBF80098A04218BF0546C419FFF7C8FFA2
:1005700005600746F01D20F007004619284600F0E8
:100580000AF8B44208BFF8BDA21B31463868BDE87E
:10059000F84000F05FB800210160C0E90110704729
:1005A0001020704710B5002000F08FF8FFF7AAFE6A
:1005B000BDE81040012000F03FB82DE9F0410746AA
:1005C00015460E461020FFF72BFF04000AD0676087
:1005D000C4E9026500F03AF8016821600460002077
:1005E000BDE8F0810120FBE74FF0000200B51346A3
:1005F00094469646203922BFA0E80C50A0E80C5043
:10060000B1F12001BFF4F7AF090728BFA0E80C50F3
:1006100048BF0CC05DF804EB890028BF40F8042BEC
:1006200008BF704748BF20F8022B11F0804F18BF59
:1006300000F8012B7047000001491820ABBEFEE70F
:1006400026000200004870472880FF1F00487047BE
:100650006080FF1F034640688C46002818BF884210
:100660003CBF03464068F8D318681844884207D056
:100670000CF1030020F00700001D411A521A014638
:10068000081D0A60FFF792BE2DE9F0410646FFF70C
:10069000DDFF8046454613E016B1E068B0420ED15A
:1006A00020682860D4E90101D8F800708847204606
:1006B000FFF77CFED8F80000B842EBD100E02546F9
:1006C0002C68002CE8D1BDE8F08110B500F040F8AE
:1006D000BDE8104000F036B810B500F051F8BDE8A4
:1006E000104000F02FB870477546FFF7ABFFAE46DD
:1006F00005006946534620F00700854618B020B52E
:10070000FFF73AFEBDE820404FF000064FF000072B
:100710004FF000084FF0000BAC46ACE8C009ACE865
:10072000C009ACE8C009ACE8C00921F007018D465A
:10073000704710B50446AFF300802046BDE8104076
:10074000FFF7EEBD002801D0FFF776BF704700002D
:1007500010B5002102A000F03BF8012010BD000000
:10076000534947414252543A2041626E6F726D6163
:100770006C207465726D696E6174696F6E00000043
:1007800010B5012805D0002103A000F021F80120B8
:1007900010BD09A1F8E7000053494752544D454D9B
:1007A0003A204F7574206F662068656170206D6512
:1007B0006D6F7279000000003A2048656170206D0D
:1007C000656D6F727920636F727275707465640005
:1007D00070B505460C460A2000E06D1C00F011F8CB
:1007E00035B128780028F8D102E0641C00F009F83F
:1007F00014B120780028F8D1BDE870400A20AFF38A
:10080000008008B569468DF800000320ABBE08BD26
:1008100080B584B003908DF80B108DF80A208DF808
:100820000930FFE703980021C4F20401884205D192
:10083000FFE79DF80A0011280DD3FFE7039840F267
:100840000041C4F20401884206D1FFE79DF80A0086
:10085000082801D8FFE708E045F23350C0F2000055
:1008600040F2651100F060FEFFE7FFE7FFE79DF84B
:100870000B0028B1FFE79DF80B00012801D1FFE72D
:1008800008E045F23350C0F200004FF4B37100F0BD
:100890004BFEFFE7FFE7FFE79DF8090028B1FFE700
:1008A0009DF80900012801D1FFE708E045F2335027
:1008B000C0F2000040F2671100F036FEFFE7FFE7EC
:1008C00003989DF80B1000EB81000C3001909DF80F
:1008D000090001280AD1FFE79DF80A10012000FA5B
:1008E00001F2019908681043086009E09DF80A10B8
:1008F000012000FA01F20199086890430860FFE7BF
:1009000004B080BD80B582B001908DF803108DF8E1
:100910000220FFE701980021C4F20401884205D1BA
:10092000FFE79DF8030011280DD3FFE7019840F27F
:100930000041C4F20401884206D1FFE79DF803009C
:10094000082801D8FFE708E045F23350C0F2000064
:100950004FF4EA7100F0E8FDFFE7FFE7FFE79DF8DD
:10096000020028B1FFE79DF80200012801D1FFE74E
:1009700008E045F23350C0F2000040F2D51100F01B
:10098000D3FDFFE7FFE79DF8020001280AD1FFE74A
:100990009DF80310012000FA01F201994869104303
:1009A000486109E09DF80310012000FA01F2019965
:1009B000486990434861FFE702B080BD80B582B0CE
:1009C0000190ADF80210FFE701980021C4F2040184
:1009D000884208D0FFE7019840F20041C4F20401C8
:1009E000884201D1FFE708E045F23350C0F2000031
:1009F00040F2C31100F098FDFFE7FFE7FFE7BDF805
:100A0000020040F4E060B0F5E06F01D1FFE708E0DC
:100A100045F23350C0F200004FF4E27100F084FD63
:100A2000FFE7FFE70198408820F4E060BDF802107E
:100A300001F4E06108440199488002B080BD0000E3
:100A400080B584B0039002916FF002000190FFE73F
:100A500003980021C4F20401884208D0FFE70398FC
:100A600040F20041C4F20401884201D1FFE707E0EF
:100A700045F23350C0F20000E52100F055FDFFE7DC
:100A8000FFE70298002856D0FFE7FFE702980088AA
:100A900078B1FFE70298008801280AD0FFE70298A2
:100AA0000088022805D0FFE702980088032801D1BA
:100AB000FFE707E045F23350C0F20000E82100F004
:100AC00033FDFFE7FFE7FFE702984088202809D0C1
:100AD000FFE702984088102804D0FFE7029840887A
:100AE00008B9FFE707E045F23350C0F20000E92102
:100AF00000F01AFDFFE7FFE7FFE70298808828B1C2
:100B0000FFE702988088802801D1FFE707E045F2DF
:100B10003350C0F20000EA2100F006FDFFE7FFE7D6
:100B2000029908884A8810438988084303994880B5
:100B300000200190FFE7019804B080BD80B584B02B
:100B400003908DF80B108DF80A20FFE79DF80A003E
:100B5000052801D3FFE708E045F23350C0F200005A
:100B600040F2A51100F0E0FCFFE7FFE7FFE7039884
:100B70000021C4F20401884205D1FFE79DF80B0073
:100B800011280DD3FFE7039840F20041C4F204019D
:100B9000884206D1FFE79DF80B00082801D8FFE73F
:100BA00008E045F23350C0F2000040F2A71100F017
:100BB000BBFCFFE7FFE703989DF80B1008442030CB
:100BC00001909DF80B000F2805D8FFE79DF80A005B
:100BD0000199087005E09DF80A00039981F830003A
:100BE000FFE704B080BD000080B548F2C431C1F613
:100BF000FF71086840F400600860FFE701200221EF
:100C000001F064F808B9FFE7F8E7022000F078FD8A
:100C100080BD000080B582B0019000200090019856
:100C200020B9FFE76FF00200009003E0019801F0A7
:100C30000FFAFFE7009802B080BD000080B582B0D7
:100C40008DF80700FFE79DF8070040B1FFE79DF82A
:100C5000070040F06900692801D1FFE708E045F28C
:100C60005250C0F2000040F28B5100F05DFCFFE7F3
:100C7000FFE744F23C00C4F2050000789DF807103D
:100C80000840C0B2002818BF012002B080BD00009B
:100C900080B582B08DF8070000200090FFE79DF836
:100CA000070028B1FFE79DF80700012801D1FFE701
:100CB00008E045F25250C0F2000040F2E54100F079
:100CC00033FCFFE7FFE7FFE744F2FE30C4F2050024
:100CD0000088C00708B1FFE708E045F25250C0F2B3
:100CE000000040F2E64100F01FFCFFE7FFE79DF83F
:100CF0000700B0B9FFE744F22600C4F2050000780F
:100D000000F00700052804D1FFE76FF00500009010
:100D100006E044F22A01C4F2050101200870FFE751
:100D200029E044F20010C4F205000068C1B20020BE
:100D3000B0EBD11F07D1FFE708204FF4805100F03E
:100D400061FA009006E001204FF4805100F05AFA59
:100D50000090FFE7009868B9FFE744F22A01C4F267
:100D600005010020087020204FF4805100F04AFA5D
:100D70000090FFE7FFE7009802B080BD80B586B025
:100D80000590059820B9FFE76FF002000490D1E1CB
:100D9000FFE7059801790020B0EBD11F07D0FFE7EE
:100DA000059801790120B0EBD11F01D1FFE708E0E0
:100DB00045F25250C0F200004FF4976100F0B4FBCE
:100DC000FFE7FFE7FFE70598007900F01F0001301B
:100DD000182808D8FFE70598007900F01F000130B7
:100DE00008B1FFE708E045F25250C0F2000040F2BF
:100DF000B94100F099FBFFE7FFE7FFE70598B0F87E
:100E000005006FF35F200130B0F5F07F0AD8FFE7EF
:100E10000598B0F805006FF35F200130142801D366
:100E2000FFE708E045F25250C0F2000040F2BA413C
:100E300000F07AFBFFE7FFE7FFE70598C0790104C0
:100E4000012000EB115010280AD8FFE70598C0795F
:100E50000104012000EB1150022801D3FFE708E054
:100E600045F25250C0F2000040F2BB4100F05CFB82
:100E7000FFE7FFE7059801790020B0EBD11F06D10D
:100E8000FFE741F20020C0F27A00019006E048F24C
:100E90000000C1F6FF7000680190FFE70198059916
:100EA000097901F01F010131B0FBF1F003900398C3
:100EB0000599B1F805106FF35F21013148430290A5
:100EC000FFE7039847F64001C0F27D11884209D838
:100ED000FFE7039844F24021C0F20F01884201D39A
:100EE000FFE708E045F25250C0F200004FF498616D
:100EF00000F01AFBFFE7FFE7FFE7029843F6000167
:100F0000C1F69C41884209D8FFE7029841F60041AA
:100F1000C0F64E61884201D3FFE708E045F2525027
:100F2000C0F2000040F2C14100F0FEFAFFE7FFE727
:100F3000FFE702980599C9790A04012101EB1251D2
:100F4000B0FBF1F04CF20021C0F6EB31884211D831
:100F5000FFE702980599C9790A04012101EB1251B2
:100F6000B0FBF1F04EF2C011C0F2E401884201D3AF
:100F7000FFE708E045F25250C0F2000040F2C241E3
:100F800000F0D2FAFFE7FFE7FFE70598C07900F02D
:100F90000F000130102809D8FFE70598C07900F04C
:100FA0000F000130022801D3FFE708E045F252505C
:100FB000C0F2000040F2C34100F0B6FAFFE7FFE7DD
:100FC000FFE70598B0F80510012000EB113010285C
:100FD0000AD8FFE70598B0F80510012000EB1130A2
:100FE000022801D3FFE708E045F25250C0F20000AA
:100FF00040F2C44100F098FAFFE7FFE7FFE70298EC
:101000000599B1F80520012101EB1231B0FBF1F097
:101010004CF20021C0F6EB31884211D8FFE702986C
:101020000599B1F80520012101EB1231B0FBF1F077
:101030004EF2C011C0F2E401884201D3FFE708E09C
:1010400045F25250C0F2000040F2C54100F06CFA87
:10105000FFE7FFE7FFE702980599C97901F00F0163
:101060000131B0FBF1F04CF20021C0F6EB318842C7
:1010700010D8FFE702980599C97901F00F010131F5
:10108000B0FBF1F04EF2C011C0F2E401884201D38E
:10109000FFE708E045F25250C0F2000040F2C641BE
:1010A00000F042FAFFE7FFE7FFE705980078012824
:1010B00004D0FFE70598007808B9FFE708E045F29B
:1010C0005250C0F200004FF4996100F02DFAFFE792
:1010D000FFE7FFE744F2FE30C4F205000088C007D6
:1010E00008B1FFE708E045F25250C0F2000040F2BC
:1010F000C94100F019FAFFE7FFE744F20011C4F21A
:1011000005010868059A1279D20962F3C7100860D0
:101110000598406808600598007828B9FFE7012025
:10112000FFF7B6FD049004E00020FFF7B1FD049046
:10113000FFE7FFE7049806B080BD000082B0019091
:1011400000200090019820B9FFE76FF002000090A6
:101150003DE00199002048600199087900F07F0086
:1011600008710199087900F0E0000871019931F8DF
:10117000050F8A7800F47E4013308A700880019A47
:1011800032F8050F917840EA0141012060F31F51C8
:101190001180090C9170019A32F8051F937841EA89
:1011A00003434FF6FF7CC0F2F00C03EA0C0303F597
:1011B00080331B0C93701180019A32F8051F9378CD
:1011C00060F31F319370118001990870FFE7009858
:1011D00002B0704780B582B00190009101980099EB
:1011E00002F0F8FB02F01AFF02B080BD80B582B0B9
:1011F0008DF807009DF8070002F038FE02F00EFFA0
:1012000002B080BD80B584B08DF80F00029100203F
:1012100001906FF007000090FFE701980299884263
:101220000ED8FFE79DF80F00FFF708FD012803D156
:10123000FFE70020009003E0019801300190ECE707
:10124000009804B080BD000080B582B08DF8070022
:1012500000200090FFE79DF8070028B1FFE79DF808
:101260000700012801D1FFE708E045F25250C0F223
:1012700000004FF4677100F057F9FFE7FFE7FFE761
:1012800044F2FE30C4F205000088C00708B1FFE751
:1012900008E045F25250C0F2000040F29D3100F0EB
:1012A00043F9FFE7FFE79DF80700A8BBFFE744F21B
:1012B0002600C4F20500007800F00700032804D1DE
:1012C000FFE76FF00500009025E044F20010C4F243
:1012D00005000068C1B20020B0EBD11F13D1FFE7B9
:1012E00044F22A00C4F20500007820B9FFE76FF04D
:1012F0000500009006E044F23201C4F2050101202D
:101300000870FFE706E044F23201C4F20501012053
:101310000870FFE7FFE70CE044F23201C4F2050178
:101320000020087008204FF48051FFF76BFF0090F9
:10133000FFE7009802B080BD80B582B001900198AF
:1013400020B9FFE76FF002000090CBE0FFE70198C3
:101350000078012804D0FFE70198007808B9FFE77A
:1013600008E045F25250C0F200004FF45F7100F007
:10137000DBF8FFE7FFE7FFE70198407878B1FFE788
:101380000198407810280AD0FFE70198407820287B
:1013900005D0FFE701984078302801D1FFE708E049
:1013A00045F25250C0F2000040F27D3100F0BCF82E
:1013B000FFE7FFE7FFE70198807828B1FFE7019892
:1013C0008078402801D1FFE708E045F25250C0F292
:1013D000000040F27E3100F0A7F8FFE7FFE7FFE7EB
:1013E0000198C078802804D0FFE70198C07808B938
:1013F000FFE708E045F25250C0F2000040F27F31B2
:1014000000F092F8FFE7FFE7FFE701980079012875
:1014100028D0FFE701980079022823D0FFE7019840
:10142000007903281ED0FFE701980079042819D01D
:10143000FFE701980079052814D0FFE701980079AB
:1014400006280FD0FFE70198007907280AD0FFE7A8
:1014500001980079082805D0FFE70198007909284C
:1014600001D1FFE708E045F25250C0F200004FF40E
:10147000607100F059F8FFE7FFE7FFE744F2FE3044
:10148000C4F205000088C00708B1FFE708E045F294
:101490005250C0F2000040F2813100F045F8FFE701
:1014A000FFE70198007944F2A201C4F20501087037
:1014B000019842788178C0781043084344F2104183
:1014C000C4F2050108700198007828B9FFE70120EF
:1014D000FFF7BAFE009004E00020FFF7B5FE009091
:1014E000FFE7FFE7009802B080BD000082B00190E6
:1014F00000200090019820B9FFE76FF002000090F3
:101500000EE001990120087001990020887001996E
:10151000487001998020C870019905200871FFE783
:10152000009802B07047000082B001900091FFE780
:10153000FEE7000080B582B08DF80700FFE79DF858
:10154000070028B1FFE79DF80700012801D1FFE758
:1015500008E045F27150C0F2000040F27111FFF74F
:10156000E3FFFFE7FFE7FFE740F20040C4F20100BE
:101570000068012801D1FFE708E045F27150C0F290
:1015800000004FF4B971FFF7CFFFFFE7FFE79DF8C9
:10159000070048F24011C4F22021086002B080BD6B
:1015A00080B582B08DF80700FFE79DF8070028B1ED
:1015B000FFE79DF80700012801D1FFE708E045F2A9
:1015C0007150C0F2000040F26311FFF7ADFFFFE77A
:1015D000FFE7FFE740F20040C4F201000068012885
:1015E00001D1FFE708E045F27150C0F200004FF46E
:1015F000B271FFF799FFFFE7FFE79DF8070048F298
:101600006011C4F22021086002B080BD40F20041A8
:10161000C4F20101002008607047000040F2004160
:10162000C4F2010140F22310086043F21020086068
:101630007047000080B584B0029000200190FFE761
:1016400040F20040C4F201000068012801D1FFE728
:1016500008E045F27150C0F2000040F24F11FFF770
:1016600063FFFFE7FFE7FFE70298F02801D8FFE7F5
:1016700008E045F27150C0F200004FF4A871FFF786
:1016800053FFFFE7FFE740F20841C4F20101086899
:10169000029A120962F307100860FFE7029840F20D
:1016A0000841C4F20101096801F0F001884220D02C
:1016B000FFE7019801300190019848F20401C1F65A
:1016C000FF71096844F22002C4F205021268C2F3F5
:1016D0000262D14041F25972CDF2B712A1FB022150
:1016E000B0EB913F04D9FFE76FF00700039003E0F0
:1016F000D4E700200390FFE7039804B080BD00000A
:1017000080B582B00190FFE7019840B1FFE70198F2
:101710004FF6FF710843884201D1FFE708E045F228
:10172000EE50C0F2000040F20F21FFF7FDFEFFE790
:10173000FFE7019841F25801C4F20501086002B0C8
:1017400080BD000080B582B001908DF80310FFE7E6
:10175000019850B1FFE701984FF67951C0F60F712B
:101760000843884201D1FFE707E045F29050C0F2FC
:1017700000008421FFF7D8FEFFE7FFE7FFE79DF8B1
:10178000030028B1FFE79DF80300012801D1FFE71E
:1017900007E045F29050C0F200008521FFF7C4FE3B
:1017A000FFE7FFE79DF80300012809D1FFE7019A51
:1017B00048F20401C4F2040108689043086008E09C
:1017C000019A48F20401C4F2040108681043086059
:1017D000FFE702B080BD000080B582B001908DF8B7
:1017E0000310FFE7019840B1FFE7019841F20311B0
:1017F0000843884201D1FFE707E045F29050C0F26C
:101800000000A821FFF790FEFFE7FFE7FFE79DF844
:10181000030028B1FFE79DF80300012801D1FFE78D
:1018200007E045F29050C0F20000A921FFF77CFECE
:10183000FFE7FFE79DF80300012809D1FFE7019AC0
:1018400048F20C01C4F2040108689043086008E003
:10185000019A48F20C01C4F20401086810430860C0
:10186000FFE702B080BD000080B584B08DF80F00A6
:10187000ADF80C108DF80B20FFE743F6FC30C4F2F6
:1018800005000088C00708B1FFE708E045F2AF5047
:10189000C0F2000040F28121FFF746FEFFE7FFE7BC
:1018A000FFE79DF80F00C8B1FFE79DF80F00012882
:1018B00014D0FFE79DF80F0002280FD0FFE79DF836
:1018C0000F0003280AD0FFE79DF80F00042805D079
:1018D000FFE79DF80F00052801D1FFE708E045F27A
:1018E000AF50C0F2000040F28221FFF71DFEFFE77B
:1018F000FFE7FFE7BDF80C0028B1FFE7BDF80C00DB
:1019000008B1FFE708E045F2AF50C0F2000040F236
:101910008321FFF709FEFFE7FFE700208DF80300B2
:10192000FFE79DF803000F2835D8FFE7BDF80C004E
:10193000C007F8B1FFE79DF80F0080019DF8031084
:1019400000EB810043F60041C4F205010844019018
:101950009DF80B00012806D1FFE70199088840F4A3
:101960000040088005E0019908886FF3DF300880A7
:10197000FFE7FFE7BDF80C004008ADF80C00BDF82C
:101980000C0008B9FFE706E0FFE79DF8030001300F
:101990008DF80300C5E704B080BD000080B588B0B5
:1019A0008DF81F00ADF81C100692002003900698D9
:1019B00020B9FFE76FF00200039073E1FFE743F601
:1019C000FC30C4F205000088C00708B1FFE708E05A
:1019D00045F2AF50C0F200004FF48071FFF7A4FD54
:1019E000FFE7FFE7FFE79DF81F00C8B1FFE79DF89D
:1019F0001F00012814D0FFE79DF81F0002280FD018
:101A0000FFE79DF81F0003280AD0FFE79DF81F009D
:101A1000042805D0FFE79DF81F00052801D1FFE746
:101A200008E045F2AF50C0F2000040F20111FFF7AC
:101A30007BFDFFE7FFE7FFE7BDF81C0028B1FFE7EC
:101A4000BDF81C0008B1FFE708E045F2AF50C0F256
:101A500000004FF48171FFF767FDFFE7FFE7FFE745
:101A60000698008828B1FFE706980088012801D170
:101A7000FFE708E045F2AF50C0F2000040F203116A
:101A8000FFF752FDFFE7FFE7FFE70698408828B120
:101A9000FFE706984088022801D1FFE708E045F2F9
:101AA000AF50C0F200004FF48271FFF73DFDFFE739
:101AB000FFE7FFE70698808828B1FFE7069880884F
:101AC000042801D1FFE708E045F2AF50C0F2000062
:101AD00040F20511FFF728FDFFE7FFE7FFE7069853
:101AE000C08850B1FFE70698C088102805D0FFE7EE
:101AF0000698C088202801D1FFE708E045F2AF50E2
:101B0000C0F200004FF48371FFF70EFDFFE7FFE71F
:101B1000FFE70698008930B1FFE706980089B0F525
:101B2000804F01D1FFE708E045F2AF50C0F200005E
:101B300040F20711FFF7F8FCFFE7FFE7FFE7069821
:101B4000408928B1FFE706984089402801D1FFE786
:101B500008E045F2AF50C0F200004FF48471FFF787
:101B6000E3FCFFE7FFE7FFE70698808930B1FFE776
:101B700006988089B0F5007F01D1FFE708E045F2C3
:101B8000AF50C0F2000040F20911FFF7CDFCFFE7B3
:101B9000FFE7FFE70698C08930B1FFE70698C089E4
:101BA000B0F5805F01D1FFE708E045F2AF50C0F229
:101BB00000004FF48571FFF7B7FCFFE7FFE7FFE791
:101BC0000698008A30B1FFE70698008AB0F5004F0A
:101BD00001D1FFE708E045F2AF50C0F2000040F24B
:101BE0000B11FFF7A1FCFFE7FFE700208DF81700BE
:101BF000FFE79DF817000F2853D8FFE7BDF81C003A
:101C0000C007E8B3FFE70699019108884A881043A6
:101C10008A881043CA8810434A8910438A8910432E
:101C2000CA89104309890843ADF8140045F27720AA
:101C3000ADF812000698018ABDF814000843ADF80B
:101C40001400BDF8120040F40040ADF812009DF8F9
:101C50001F0080019DF8171000EB810043F6004142
:101C6000C4F205010844029002980088BDF81220D1
:101C70009043BDF814101140084302990880FFE713
:101C8000BDF81C004008ADF81C00BDF81C0008B9E8
:101C9000FFE706E0FFE79DF8170001308DF8170019
:101CA000A7E7FFE7039808B080BD000043F6FC31CA
:101CB000C4F205014FF425400880704743F6FC311B
:101CC000C4F205014AF201500880704780B582B025
:101CD0008DF80700ADF80410FFE79DF80700C8B1C4
:101CE000FFE79DF80700012814D0FFE79DF80700E3
:101CF00002280FD0FFE79DF8070003280AD0FFE76E
:101D00009DF80700042805D0FFE79DF80700052887
:101D100001D1FFE708E045F2AF50C0F200004FF4F8
:101D2000FF71FFF701FCFFE7FFE7FFE7BDF80400E5
:101D300028B1FFE7BDF8040008B1FFE708E045F26D
:101D4000AF50C0F2000040F2FF11FFF7EDFBFFE7DC
:101D5000FFE79DF80700010143F60000C4F205000B
:101D6000405ABDF80410084080B2002818BF012076
:101D700002B080BD80B584B08DF80F00ADF80C10B6
:101D8000ADF80A20FFE79DF80F00C8B1FFE79DF806
:101D90000F00012814D0FFE79DF80F0002280FD094
:101DA000FFE79DF80F0003280AD0FFE79DF80F001A
:101DB000042805D0FFE79DF80F00052801D1FFE7B3
:101DC00008E045F2AF50C0F200004FF4BE71FFF7DB
:101DD000ABFBFFE7FFE7FFE7BDF80C0028B1FFE72B
:101DE000BDF80C0008B1FFE708E045F2AF50C0F2C3
:101DF000000040F27D11FFF797FBFFE7FFE7FFE7E9
:101E0000BDF80A0010280AD3FFE7BDF80A00202811
:101E100006D3FFE7BDF80A003B2801D8FFE708E03A
:101E200045F2AF50C0F200004FF4BF71FFF77CFBEA
:101E3000FFE7FFE7FFE743F6FC30C4F20500008848
:101E4000C00708B1FFE708E045F2AF50C0F200005C
:101E500040F27F11FFF768FBFFE7FFE700208DF8F6
:101E60000900FFE79DF809000F282CD8FFE7BDF80F
:101E70000C00C007B0B1FFE79DF80F0080019DF88E
:101E8000091000EB810043F60241C4F20501084449
:101E9000019001980088BDF80A1061F305000199CE
:101EA0000880FFE7BDF80C004008ADF80C00BDF855
:101EB0000C0008B9FFE706E0FFE79DF809000130D4
:101EC0008DF80900CEE704B080BD000080B582B077
:101ED000ADF80600FFE7BDF8060090B1FFE7BDF8DA
:101EE0000600B0F5804F0CD0FFE7BDF80600B0F556
:101EF000004F06D0FFE7BDF80600B0F5404F01D116
:101F0000FFE708E045F2AF50C0F200004FF4ED717A
:101F1000FFF70AFBFFE7FFE7FFE743F6FC30C4F2F9
:101F200005000088C00708B1FFE708E045F2AF50A0
:101F3000C0F2000040F2DB11FFF7F6FAFFE7FFE71F
:101F400043F6F831C4F2050108886FF39F30BDF8FD
:101F5000062002F440421044088002B080BD000018
:101F600083B0029000200190029820B9FFE76FF043
:101F70000200019014E0029900200090088002996C
:101F800048800299C88002990882029908810299C2
:101F90004881029988810299C88102998880FFE767
:101FA000019803B07047000080B582B08DF807003B
:101FB000ADF80410FFE79DF80700C8B1FFE79DF8F2
:101FC0000700012814D0FFE79DF8070002280FD072
:101FD000FFE79DF8070003280AD0FFE79DF80700F8
:101FE000042805D0FFE79DF80700052801D1FFE789
:101FF00008E045F2AF50C0F2000040F26D21FFF75B
:1020000093FAFFE7FFE7FFE7BDF8040028B1FFE719
:10201000BDF8040008B1FFE708E045F2AF50C0F298
:10202000000040F26E21FFF77FFAFFE7FFE79DF81F
:10203000071043F60C00C4F2050000EB01100090FD
:10204000BDF80420009908881043088002B080BDC4
:1020500085B0049044F22600C4F20500007800F038
:1020600007000146009105286BD80099DFE801F0D0
:10207000030B12171E2348F20000C1F6FF70006820
:10208000049908605EE0049941F20020C0F27A00F1
:10209000086057E004994FF40040086052E004994A
:1020A00041F20020C0F27A0008604BE004994FF43E
:1020B0000040086046E044F20010C4F205000168E8
:1020C000090F8DF806100168090A8DF807100168DC
:1020D00001F01F018DF805100068C1B20020B0EBBF
:1020E000D11F15D1FFE79DF80500411C41F20020EA
:1020F000C0F27A00B0FBF1F09DF8071001314843BF
:102100009DF806100131B0FBF1F00499086017E06A
:1021100048F20000C1F6FF700068029002989DF836
:1021200005100131B0FBF1F09DF807100131484373
:102130009DF806100131B0FBF1F004990860FFE74B
:1021400000E0FFE744F22000C4F2050003900068BD
:102150000399086004990868039AD27802F007028C
:10216000D040486004990868039A1278C2F30212BA
:10217000D040C86004990868039A927802F0070278
:10218000D040886104990868039A5278C2F3021219
:10219000D040486104990868039A9278C2F3021209
:1021A000D040C86104990868039A127802F00702C7
:1021B000D040886004990868039A527802F00702B8
:1021C000D040086105B0704780B59AB01990189159
:1021D0001792002016901190022110910B901898E0
:1021E00018B1FFE7179820B9FFE76FF002001690CB
:1021F00024E1FFE719984EF20001C4F2040188427D
:1022000010D0FFE719984EF20041C4F20401884251
:1022100008D0FFE719984EF60001C4F20401884285
:1022200001D1FFE708E045F2CF50C0F200004FF4C3
:102230008A71FFF779F9FFE7FFE7FFE71898406831
:1022400050B1FFE71898406841F68021C0F20601BE
:10225000884201D8FFE708E045F2CF50C0F2000005
:1022600040F21511FFF760F9FFE7FFE7FFE7189865
:102270000068072801D8FFE708E045F2CF50C0F218
:1022800000004FF48B71FFF74FF9FFE7FFE748F2CB
:102290000400C1F6FF70006844F22001C4F2050199
:1022A0000968C1F30231C8401590189801680120EF
:1022B000884014901898806813901898406812907D
:1022C0001998006BC006002807D5FFE71998006B26
:1022D00000F0030001301190FFE71898006818B96A
:1022E000FFE703201090FFE71498002800F0A1807A
:1022F000FFE7159802F064FF0590129802F060FF66
:102300000146059802F046FE0690149802F058FF28
:102310000146069802F03EFE0E90109802F050FF23
:102320000146084602F09EFD0790119802F048FF12
:102330000146084602F096FD0146079802F092FD1C
:102340000890139802F03CFF0146089802F08AFDBD
:102350000D900E980D9902F0FBFF0C900E980990CD
:1023600002F00EFF02F02CFF0146099802F0F0FF88
:102370004FF07C5102F0FBFD58B9FFE70E9802F0D8
:10238000FFFE02F01DFF4FF07E5102F06BFD0E903C
:1023900006E00E9802F0F4FE02F012FF0E90FFE746
:1023A0000E980D9902F0CEFD20B9FFE76FF0020004
:1023B00016903DE00020C4F278200A900C980A990B
:1023C00002F0CEFD20B9FFE76FF0020016902EE07C
:1023D000159801900E9802F0D3FE01460198B0FBCB
:1023E000F1F01499B0FBF1F00F90129802F0E8FEB2
:1023F00002900F9802F0E4FE01460298039102F069
:10240000A7FF039902F0C6FD0B901898006800041E
:1024100004900C9802F0B4FE0146049840EA510082
:10242000A1EB510140EA01201999C862FFE7FFE7DB
:1024300003E06FF002001690FFE7FFE7179838B14E
:10244000FFE7169820B9FFE70B9817990860FFE798
:1024500016981AB080BD000080B582B0019000913E
:10246000FFE701984EF20001C4F20401884210D047
:10247000FFE701984EF20041C4F20401884208D0FF
:10248000FFE701984EF60001C4F20401884201D131
:10249000FFE708E045F2CF50C0F2000040F28D2186
:1024A000FFF742F8FFE7FFE7FFE7009850B1FFE7CB
:1024B000009845F25F21C0F2F0010843884201D143
:1024C000FFE708E045F2CF50C0F2000040F28E2155
:1024D000FFF72AF8FFE7FFE700980199086202B0CA
:1024E00080BD000080B582B001908DF80310FFE739
:1024F00001984EF20001C4F20401884210D0FFE7B7
:1025000001984EF20041C4F20401884208D0FFE76E
:1025100001984EF60001C4F20401884201D1FFE7A0
:1025200008E045F2CF50C0F200004FF4EF71FEF723
:10253000FBFFFFE7FFE7FFE79DF8030028B1FFE798
:102540009DF80300012801D1FFE708E045F2CF50D4
:10255000C0F2000040F2DF11FEF7E6FFFFE7FFE701
:10256000019800689DF8031061F30000019908606C
:1025700002B080BD80B582B00190FFE701984EF2B5
:102580000001C4F20401884210D0FFE701984EF226
:102590000041C4F20401884208D0FFE701984EF6DA
:1025A0000001C4F20401884201D1FFE708E045F2CE
:1025B000CF50C0F200004FF4AE71FEF7B5FFFFE759
:1025C000FFE70199086820F0010008600199086898
:1025D00040F400400860002002B080BD80B582B0A9
:1025E00001900091FFE701984EF20001C4F204014E
:1025F000884210D0FFE701984EF20041C4F2040176
:10260000884208D0FFE701984EF60001C4F20401A9
:10261000884201D1FFE708E045F2CF50C0F2000048
:102620004FF41F71FEF780FFFFE7FFE7FFE7009819
:1026300050B1FFE7009845F2DF61C0F2F7010843AF
:10264000884201D1FFE708E045F2CF50C0F2000018
:1026500040F27D21FEF768FFFFE7FFE70198C069C0
:1026600000990840002818BF012002B080BD00007A
:1026700080B584B0039002910192029820B9FFE7DF
:102680006FF00200009077E0FFE703984EF2000140
:10269000C4F20401884210D0FFE703984EF20041D3
:1026A000C4F20401884208D0FFE703984EF6000107
:1026B000C4F20401884201D1FFE708E045F2CF509F
:1026C000C0F200004FF4C471FEF72EFFFFE7FFE7F2
:1026D000FFE70298406850B1FFE70298406841F672
:1026E0008021C0F20601884201D8FFE708E045F2E8
:1026F000CF50C0F2000040F28911FEF715FFFFE74E
:10270000FFE7FFE702980068072801D8FFE708E025
:1027100045F2CF50C0F200004FF4C571FEF704FF40
:10272000FFE7FFE70399086820F0010008600399BC
:10273000086840F4004008600399086840F0010010
:10274000086003980299019AFFF73EFD00900399F3
:10275000086820F0400008600399086820F40040F1
:1027600008600399086820F001000860039908696F
:1027700020F480500861FFE7009804B080BD00009D
:1027800080B584B0039002918DF80720FFE703988D
:102790004EF20001C4F20401884210D0FFE7039812
:1027A0004EF20041C4F20401884208D0FFE70398CA
:1027B0004EF60001C4F20401884201D1FFE708E0AF
:1027C00045F2CF50C0F2000040F2AE21FEF7ACFE61
:1027D000FFE7FFE7FFE7029850B1FFE7029845F2F5
:1027E000DF21C0F2F0010843884201D1FFE708E091
:1027F00045F2CF50C0F2000040F2AF21FEF794FE48
:10280000FFE7FFE7FFE79DF8070028B1FFE79DF826
:102810000700012801D1FFE708E045F2CF50C0F2E0
:1028200000004FF42C71FEF77FFEFFE7FFE79DF8F5
:102830000700012806D1FFE7029A03994868104370
:10284000486005E0029A0399486890434860FFE7B2
:1028500004B080BD80B582B00190FFE701984EF2D0
:102860000001C4F20401884210D0FFE701984EF243
:102870000041C4F20401884208D0FFE701984EF6F7
:102880000001C4F20401884201D1FFE708E045F2EB
:10289000CF50C0F2000040F2D121FEF745FEFFE725
:1028A000FFE7019890F8280002B080BD80B586B09F
:1028B00005900491039202930598049900EB81001E
:1028C00010300190FFE705984EF20001C4F20401B8
:1028D000884210D0FFE705984EF20041C4F204018F
:1028E000884208D0FFE705984EF60001C4F20401C3
:1028F000884201D1FFE708E045F2CF50C0F2000066
:102900004FF4D771FEF710FEFFE7FFE7FFE70498EB
:1029100020B1FFE70498012801D1FFE708E045F264
:10292000CF50C0F2000040F2AF11FEF7FDFDFFE70F
:10293000FFE7FFE70398B0F5805F04D1FFE7029857
:1029400080280DD3FFE70398B0F5104F05D1FFE7BE
:102950000298B0F5806F03D3FFE7039808B9FFE74B
:1029600008E045F2CF50C0F200004FF4D871FEF7F6
:10297000DBFDFFE7FFE7039830B9FFE7019908683F
:1029800020F48050086020E00398B0F5104F0DD17E
:10299000FFE70198006849F2FF3290430399029BD8
:1029A000194311400844019908600DE0019800683E
:1029B00049F2FF3290430399029B41EA43011140DF
:1029C000084401990860FFE7FFE706B080BD0000FA
:1029D00082B0019000200090019820B9FFE76FF0CD
:1029E0000200009009E001994CF2503048600199D2
:1029F0000020886001990860FFE7009802B07047E6
:102A000080B582B001908DF80310FFE701984EF277
:102A10000001C4F20401884210D0FFE701984EF291
:102A20000041C4F20401884208D0FFE701984EF645
:102A30000001C4F20401884201D1FFE708E045F239
:102A4000CF50C0F2000040F2C321FEF76DFDFFE75A
:102A5000FFE79DF80300019981F8240002B080BDD2
:102A600080B584B0039000200190039820B9FFE75F
:102A70006FF00200019071E0FFE703980088B0F565
:102A8000007F01DAFFE707E045F2EE50C0F20000F8
:102A9000CD21FEF749FDFFE7FFE7039908884009CC
:102AA00000EB4002202000EB4200B1F90210884206
:102AB0000DD8FFE703990888400900EB4002252064
:102AC00000EB4200B1F9021088420AD2FFE70398F6
:102AD000B0F90200202804D3FFE76FF00200019054
:102AE0003BE00398B0F9021041F25C00C4F205002B
:102AF00000EB81000290029800686FF35F2040F2C3
:102B0000FF1188420FD1FFE70398008802990860FF
:102B100003994868B1F9022048F2C411C1F6FF7167
:102B200041F8220018E003980088029909686FF3C1
:102B30005F2188420BD1FFE703994868B1F9022071
:102B400048F2C411C1F6FF7141F8220003E06FF0B2
:102B500001000190FFE7FFE7FFE7FFE7019804B0FE
:102B600080BD000080B548F2C410C1F6FF70006857
:102B70008047BFF34F8F80BD80B548F2C410C1F6C7
:102B8000FF7040688047BFF34F8F80BD80B548F22B
:102B9000C410C1F6FF7080688047BFF34F8F80BDBF
:102BA00080B548F2C410C1F6FF70C0688047BFF31B
:102BB0004F8F80BD80B548F2C410C1F6FF70006928
:102BC0008047BFF34F8F80BD80B548F2C410C1F677
:102BD000FF7040698047BFF34F8F80BD80B548F2DA
:102BE000C410C1F6FF7080698047BFF34F8F80BD6E
:102BF00080B548F2C410C1F6FF70C0698047BFF3CA
:102C00004F8F80BD80B548F2C410C1F6FF70006AD6
:102C10008047BFF34F8F80BD80B548F2C410C1F626
:102C2000FF70406A8047BFF34F8F80BD80B548F288
:102C3000C410C1F6FF70806A8047BFF34F8F80BD1C
:102C400080B548F2C410C1F6FF70C06A8047BFF378
:102C50004F8F80BD80B548F2C410C1F6FF70006B85
:102C60008047BFF34F8F80BD80B548F2C410C1F6D6
:102C7000FF70406B8047BFF34F8F80BD80B548F237
:102C8000C410C1F6FF70806B8047BFF34F8F80BDCB
:102C900080B548F2C410C1F6FF70C06B8047BFF327
:102CA0004F8F80BD80B548F2C410C1F6FF70006C34
:102CB0008047BFF34F8F80BD80B548F2C410C1F686
:102CC000FF70406C8047BFF34F8F80BD80B548F2E6
:102CD000C410C1F6FF70806C8047BFF34F8F80BD7A
:102CE00080B548F2C410C1F6FF70C06C8047BFF3D6
:102CF0004F8F80BD80B548F2C410C1F6FF70006DE3
:102D00008047BFF34F8F80BD80B548F2C410C1F635
:102D1000FF70406D8047BFF34F8F80BD80B548F294
:102D2000C410C1F6FF70806D8047BFF34F8F80BD28
:102D300080B548F2C410C1F6FF70C06D8047BFF384
:102D40004F8F80BD80B548F2C410C1F6FF70006E91
:102D50008047BFF34F8F80BD80B548F2C410C1F6E5
:102D6000FF70406E8047BFF34F8F80BD80B548F243
:102D7000C410C1F6FF70806E8047BFF34F8F80BDD7
:102D800080B548F2C410C1F6FF70C06E8047BFF333
:102D90004F8F80BD80B548F2C410C1F6FF70006F40
:102DA0008047BFF34F8F80BD80B548F2C410C1F695
:102DB000FF70406F8047BFF34F8F80BD80B548F2F2
:102DC000C410C1F6FF70806F8047BFF34F8F80BD86
:102DD00080B548F2C410C1F6FF70C06F8047BFF3E2
:102DE0004F8F80BD80B548F2C410C1F6FF70D0F897
:102DF00080008047BFF34F8F80BD000080B548F250
:102E0000C410C1F6FF70D0F884008047BFF34F8F25
:102E100080BD000080B548F2C410C1F6FF70D0F844
:102E200088008047BFF34F8F80BD000080B548F217
:102E3000C410C1F6FF70D0F88C008047BFF34F8FED
:102E400080BD000080B548F2C410C1F6FF70D0F814
:102E500090008047BFF34F8F80BD000080B548F2DF
:102E6000C410C1F6FF70D0F894008047BFF34F8FB5
:102E700080BD000080B548F2C410C1F6FF70D0F8E4
:102E800098008047BFF34F8F80BD000080B548F2A7
:102E9000C410C1F6FF70D0F89C008047BFF34F8F7D
:102EA00080BD000080B548F2C410C1F6FF70D0F8B4
:102EB000A0008047BFF34F8F80BD000080B548F26F
:102EC000C410C1F6FF70D0F8A4008047BFF34F8F45
:102ED00080BD000080B548F2C410C1F6FF70D0F884
:102EE000A8008047BFF34F8F80BD000080B548F237
:102EF000C410C1F6FF70D0F8AC008047BFF34F8F0D
:102F000080BD000080B548F2C410C1F6FF70D0F853
:102F1000B0008047BFF34F8F80BD000080B548F2FE
:102F2000C410C1F6FF70D0F8B4008047BFF34F8FD4
:102F300080BD000080B548F2C410C1F6FF70D0F823
:102F4000B8008047BFF34F8F80BD000080B548F2C6
:102F5000C410C1F6FF70D0F8BC008047BFF34F8F9C
:102F600080BD000080B548F2C410C1F6FF70D0F8F3
:102F7000C0008047BFF34F8F80BD000080B548F28E
:102F8000C410C1F6FF70D0F8C4008047BFF34F8F64
:102F900080BD000080B548F2C410C1F6FF70D0F8C3
:102FA000C8008047BFF34F8F80BD000080B548F256
:102FB000C410C1F6FF70D0F8CC008047BFF34F8F2C
:102FC00080BD000080B548F2C410C1F6FF70D0F893
:102FD000D0008047BFF34F8F80BD000080B548F21E
:102FE000C410C1F6FF70D0F8D4008047BFF34F8FF4
:102FF00080BD000080B548F2C410C1F6FF70D0F863
:10300000D8008047BFF34F8F80BD000080B548F2E5
:10301000C410C1F6FF70D0F8DC008047BFF34F8FBB
:1030200080BD000080B548F2C410C1F6FF70D0F832
:10303000E0008047BFF34F8F80BD000080B548F2AD
:10304000C410C1F6FF70D0F8E4008047BFF34F8F83
:1030500080BD000080B548F2C410C1F6FF70D0F802
:10306000E8008047BFF34F8F80BD000080B548F275
:10307000C410C1F6FF70D0F8EC008047BFF34F8F4B
:1030800080BD000080B548F2C410C1F6FF70D0F8D2
:10309000F0008047BFF34F8F80BD000080B548F23D
:1030A000C410C1F6FF70D0F8F4008047BFF34F8F13
:1030B00080BD000080B548F2C410C1F6FF70D0F8A2
:1030C000F8008047BFF34F8F80BD000080B548F205
:1030D000C410C1F6FF70D0F8FC008047BFF34F8FDB
:1030E00080BD000080B548F2C410C1F6FF70D0F872
:1030F00000018047BFF34F8F80BD000080B548F2CC
:10310000C410C1F6FF70D0F804018047BFF34F8FA1
:1031100080BD000080B548F2C410C1F6FF70D0F841
:1031200008018047BFF34F8F80BD000080B548F293
:10313000C410C1F6FF70D0F80C018047BFF34F8F69
:1031400080BD000080B548F2C410C1F6FF70D0F811
:1031500010018047BFF34F8F80BD000080B548F25B
:10316000C410C1F6FF70D0F814018047BFF34F8F31
:1031700080BD000080B548F2C410C1F6FF70D0F8E1
:1031800018018047BFF34F8F80BD000080B548F223
:10319000C410C1F6FF70D0F81C018047BFF34F8FF9
:1031A00080BD000080B548F2C410C1F6FF70D0F8B1
:1031B00020018047BFF34F8F80BD000080B548F2EB
:1031C000C410C1F6FF70D0F824018047BFF34F8FC1
:1031D00080BD000080B548F2C410C1F6FF70D0F881
:1031E00028018047BFF34F8F80BD000080B548F2B3
:1031F000C410C1F6FF70D0F82C018047BFF34F8F89
:1032000080BD000080B548F2C410C1F6FF70D0F850
:1032100030018047BFF34F8F80BD000080B548F27A
:10322000C410C1F6FF70D0F834018047BFF34F8F50
:1032300080BD000080B548F2C410C1F6FF70D0F820
:1032400038018047BFF34F8F80BD000080B548F242
:10325000C410C1F6FF70D0F83C018047BFF34F8F18
:1032600080BD000080B548F2C410C1F6FF70D0F8F0
:1032700040018047BFF34F8F80BD000080B548F20A
:10328000C410C1F6FF70D0F844018047BFF34F8FE0
:1032900080BD000080B548F2C410C1F6FF70D0F8C0
:1032A00048018047BFF34F8F80BD000080B548F2D2
:1032B000C410C1F6FF70D0F84C018047BFF34F8FA8
:1032C00080BD000080B548F2C410C1F6FF70D0F890
:1032D00050018047BFF34F8F80BD000080B548F29A
:1032E000C410C1F6FF70D0F854018047BFF34F8F70
:1032F00080BD000080B548F2C410C1F6FF70D0F860
:1033000058018047BFF34F8F80BD000080B548F261
:10331000C410C1F6FF70D0F85C018047BFF34F8F37
:1033200080BD000080B548F2C410C1F6FF70D0F82F
:1033300060018047BFF34F8F80BD000080B548F229
:10334000C410C1F6FF70D0F864018047BFF34F8FFF
:1033500080BD000080B548F2C410C1F6FF70D0F8FF
:1033600068018047BFF34F8F80BD000080B548F2F1
:10337000C410C1F6FF70D0F86C018047BFF34F8FC7
:1033800080BD000080B548F2C410C1F6FF70D0F8CF
:1033900070018047BFF34F8F80BD000080B548F2B9
:1033A000C410C1F6FF70D0F874018047BFF34F8F8F
:1033B00080BD000080B548F2C410C1F6FF70D0F89F
:1033C00078018047BFF34F8F80BD000080B548F281
:1033D000C410C1F6FF70D0F87C018047BFF34F8F57
:1033E00080BD000080B548F2C410C1F6FF70D0F86F
:1033F00080018047BFF34F8F80BD000080B548F249
:10340000C410C1F6FF70D0F884018047BFF34F8F1E
:1034100080BD000080B548F2C410C1F6FF70D0F83E
:1034200088018047BFF34F8F80BD000080B548F210
:10343000C410C1F6FF70D0F88C018047BFF34F8FE6
:1034400080BD000080B548F2C410C1F6FF70D0F80E
:1034500090018047BFF34F8F80BD000080B548F2D8
:10346000C410C1F6FF70D0F894018047BFF34F8FAE
:1034700080BD000080B548F2C410C1F6FF70D0F8DE
:1034800098018047BFF34F8F80BD000080B548F2A0
:10349000C410C1F6FF70D0F89C018047BFF34F8F76
:1034A00080BD000080B548F2C410C1F6FF70D0F8AE
:1034B000A0018047BFF34F8F80BD000080B548F268
:1034C000C410C1F6FF70D0F8A4018047BFF34F8F3E
:1034D00080BD000080B548F2C410C1F6FF70D0F87E
:1034E000A8018047BFF34F8F80BD000080B548F230
:1034F000C410C1F6FF70D0F8AC018047BFF34F8F06
:1035000080BD000080B548F2C410C1F6FF70D0F84D
:10351000B0018047BFF34F8F80BD000080B548F2F7
:10352000C410C1F6FF70D0F8B4018047BFF34F8FCD
:1035300080BD000080B548F2C410C1F6FF70D0F81D
:10354000B8018047BFF34F8F80BD000080B548F2BF
:10355000C410C1F6FF70D0F8BC018047BFF34F8F95
:1035600080BD000080B548F2C410C1F6FF70D0F8ED
:10357000C0018047BFF34F8F80BD000080B548F287
:10358000C410C1F6FF70D0F8C4018047BFF34F8F5D
:1035900080BD000080B548F2C410C1F6FF70D0F8BD
:1035A000C8018047BFF34F8F80BD000080B548F24F
:1035B000C410C1F6FF70D0F8CC018047BFF34F8F25
:1035C00080BD000080B548F2C410C1F6FF70D0F88D
:1035D000D0018047BFF34F8F80BD000080B548F217
:1035E000C410C1F6FF70D0F8D4018047BFF34F8FED
:1035F00080BD000080B548F2C410C1F6FF70D0F85D
:10360000D8018047BFF34F8F80BD000080B548F2DE
:10361000C410C1F6FF70D0F8DC018047BFF34F8FB4
:1036200080BD000080B548F2C410C1F6FF70D0F82C
:10363000E0018047BFF34F8F80BD000080B548F2A6
:10364000C410C1F6FF70D0F8E4018047BFF34F8F7C
:1036500080BD000080B548F2C410C1F6FF70D0F8FC
:10366000E8018047BFF34F8F80BD000080B548F26E
:10367000C410C1F6FF70D0F8EC018047BFF34F8F44
:1036800080BD000080B548F2C410C1F6FF70D0F8CC
:10369000F0018047BFF34F8F80BD000080B548F236
:1036A000C410C1F6FF70D0F8F4018047BFF34F8F0C
:1036B00080BD000080B548F2C410C1F6FF70D0F89C
:1036C000F8018047BFF34F8F80BD000080B548F2FE
:1036D000C410C1F6FF70D0F8FC018047BFF34F8FD4
:1036E00080BD000080B582B001909DF80400C00745
:1036F00018B1FFE7FDF792FFFFE79DF80400800790
:10370000002803D5FFE700F073F8FFE79DF80400F9
:103710004007002803D5FFE7FEF7D0FAFFE79DF842
:103720000400C006002805D5FFE74AF2085000F063
:10373000A3F8FFE79DF804004006002805D5FFE741
:103740004AF2035000F098F8FFE79DF804000006E5
:10375000002803D5FFE700F0A9F8FFE702B080BD1D
:1037600080B582B001909DF80400C00718B1FFE752
:10377000FDF74CFFFFE79DF804008007002803D504
:10378000FFE700F02BF8FFE79DF804004007002852
:1037900003D5FFE7FEF78AFAFFE79DF80400C006AD
:1037A000002805D5FFE74AF2085000F055F8FFE77A
:1037B0009DF804004006002805D5FFE74AF20350B3
:1037C00000F04AF8FFE79DF804000006002803D542
:1037D000FFE700F05FF8FFE702B080BD48F210019C
:1037E000C4F204010020CAF2A5500860704700002E
:1037F00048F21001C4F204010120CAF2A550086089
:103800007047000080B5FFE744F2FE30C4F20500C7
:1038100000888007002801D5FFE708E045F2146022
:10382000C0F2000040F2AE41FDF77EFEFFE7FFE789
:1038300044F20241C4F20501087800F0C0000F30E4
:10384000087044F20F41C4F20501102008701E20D8
:1038500001F0E8F9002080BD81B0ADF80200BDF8AC
:10386000022044F2FE31C4F205010888904340F47E
:103870002540088001B0704781B0ADF80200BDF866
:10388000022044F2FE31C4F205010888104308808A
:1038900001B0704740F60401C4F2050176200860CB
:1038A00040F60C01C4F205010860704740F60401BF
:1038B000C4F205017720086040F60C01C4F205014E
:1038C0000860704780B584B0039002910192002097
:1038D0008DF80300FFE7039838B1FFE7039840F045
:1038E0000F000F2801D1FFE707E045F23360C0F277
:1038F0000000C721FDF718FEFFE7FFE7FFE702988A
:10390000072801D8FFE707E045F23360C0F2000066
:10391000C821FDF709FEFFE7FFE7FFE70198072849
:1039200001D8FFE707E045F23360C0F20000C9218B
:10393000FDF7FAFDFFE7FFE7FFE740F60400C4F2FA
:1039400005000068772801D1FFE707E045F2336002
:10395000C0F20000CA21FDF7E7FDFFE7FFE7FFE740
:103960000398A8B3FFE79DF80C00C00738B3FFE742
:103970009DF80300C0008DF801009DF8010004309F
:103980008DF8020040F60001C4F2050108689DF8B8
:1039900002C0072303FA0CF29DF801E003FA0EF3CC
:1039A00013439843029A02FA0CF2DDF804C00CFAB1
:1039B0000EFC42EA0C021A4010430860FFE703982D
:1039C000400803909DF8030001308DF80300C7E71D
:1039D00004B080BD80B588B00790069100208DF8B6
:1039E000170048F20000C4F204000068049048F296
:1039F0000400C4F204000068039048F20800C4F216
:103A000004000068029048F20C00C4F20400006850
:103A10000190FFE79DF81B00400750B3FFE70698B1
:103A200000F0E060B0F1807F23D0FFE7069800F05F
:103A3000E060B0F1007F1CD0FFE7069800F0E06086
:103A4000B0F1407F15D0FFE7069800F0E060B0F1DC
:103A5000806F0ED0FFE7069800F0E060B0F1A06F35
:103A600007D0FFE7069800F0E060B0F1C06F01D129
:103A7000FFE708E045F25250C0F2000040F2A121F9
:103A8000FDF752FDFFE7FFE7FFE79DF8180010F094
:103A9000700F24D0FFE7069800F0700010281ED0A9
:103AA000FFE7069800F07000202818D0FFE706987E
:103AB00000F07000302812D0FFE7069800F0700088
:103AC00040280CD0FFE7069800F07000502806D080
:103AD000FFE7069800F07000602801D1FFE708E0DA
:103AE00045F25250C0F2000040F2A221FDF71CFD49
:103AF000FFE7FFE7FFE79DF81A00400750B3FFE735
:103B0000069800F4E020B0F5803F23D0FFE7069848
:103B100000F4E020B0F5003F1CD0FFE7069800F469
:103B2000E020B0F5403F15D0FFE7069800F4E02014
:103B3000B0F5802F0ED0FFE7069800F4E020B0F536
:103B4000A02F07D0FFE7069800F4E020B0F5C02FC3
:103B500001D1FFE708E045F25250C0F2000040F208
:103B6000A321FDF7E1FCFFE7FFE7FFE79DF81A005F
:103B700010F0700F2AD0FFE7069800F4E000B0F5CF
:103B8000801F23D0FFE7069800F4E000B0F5001F87
:103B90001CD0FFE7069800F4E000B0F5401F15D0F8
:103BA000FFE7069800F4E000B0F5800F0ED0FFE7C5
:103BB000069800F4E000B0F5A00F07D0FFE70698E4
:103BC00000F4E000B0F5C00F01D1FFE708E045F2D6
:103BD0005250C0F200004FF42971FDF7A5FCFFE739
:103BE000FFE7FFE79DF81800400720B3FFE70698BE
:103BF00000F0070001281ED0FFE7069800F007003C
:103C0000022818D0FFE7069800F00700032812D01A
:103C1000FFE7069800F0070004280CD0FFE706989D
:103C200000F00700052806D0FFE7069800F007001F
:103C3000062801D1FFE708E045F25250C0F200002B
:103C400040F2A521FDF770FCFFE7FFE7FFE79DF8D5
:103C50001900400750B3FFE7069800F4E060B0F5A4
:103C6000807F23D0FFE7069800F4E060B0F5007F86
:103C70001CD0FFE7069800F4E060B0F5407F15D057
:103C8000FFE7069800F4E060B0F5806F0ED0FFE724
:103C9000069800F4E060B0F5A06F07D0FFE7069843
:103CA00000F4E060B0F5C06F01D1FFE708E045F235
:103CB0005250C0F2000040F2A621FDF735FCFFE7AC
:103CC000FFE7FFE79DF8190010F0700F2AD0FFE71B
:103CD000069800F4E040B0F5805F23D0FFE7069837
:103CE00000F4E040B0F5005F1CD0FFE7069800F458
:103CF000E040B0F5405F15D0FFE7069800F4E040E3
:103D0000B0F5804F0ED0FFE7069800F4E040B0F524
:103D1000A04F07D0FFE7069800F4E040B0F5C04F91
:103D200001D1FFE708E045F25250C0F2000040F236
:103D3000A721FDF7F9FBFFE7FFE7FFE7079847F249
:103D40007771C0F27771084201D0FFE708E045F2D1
:103D50005250C0F200004FF42A71FDF7E5FBFFE777
:103D6000FFE7FFE744F2FE30C4F205000088C00719
:103D700008B1FFE708E045F25250C0F2000040F2FF
:103D8000A921FDF7D1FBFFE7FFE744F22600C4F2CB
:103D90000500007800F00700052835D1FFE7012075
:103DA0008DF81700FFE748F21000C4F20400006825
:103DB000C00708B1FFE708E045F25250C0F200002A
:103DC0004FF42C71FDF7B0FBFFE7FFE748F200016D
:103DD000C4F204014FF6EE20CFF6FF70086048F2FF
:103DE0000401C4F204014FF0FF30086048F20801FA
:103DF000C4F20401086048F20C01C4F20401086036
:103E00001E2000F00FFFFFE744F22001C4F205017D
:103E10000868079B9843069A1A40104308601E20C2
:103E200000F000FF9DF8170001281CD1FFE704985F
:103E300048F20001C4F204010860039848F204014A
:103E4000C4F204010860029848F20801C4F20401B7
:103E50000860019848F20C01C4F2040108601E20B9
:103E600000F0E0FEFFE708B080BD000080B586B03E
:103E70008DF8170000208DF8160048F20000C4F2FB
:103E800004000068049048F20400C4F204000068D2
:103E9000039048F20800C4F204000068029048F25F
:103EA0000C00C4F2040000680190FFE79DF81700C1
:103EB000C8B1FFE79DF81700012814D0FFE79DF86F
:103EC000170002280FD0FFE79DF8170003280AD03B
:103ED000FFE79DF81700042805D0FFE79DF81700BD
:103EE000052801D1FFE708E045F25250C0F200007A
:103EF00040F23721FDF718FBFFE7FFE7FFE744F249
:103F0000FE30C4F205000088C00708B1FFE708E0F2
:103F100045F25250C0F200004FF40E71FDF704FB61
:103F2000FFE7FFE744F22600C4F20500007800F046
:103F30000700052805D0FFE79DF81700052835D1B3
:103F4000FFE701208DF81600FFE748F21000C4F2E9
:103F500004000068C00708B1FFE708E045F25250CE
:103F6000C0F200004FF41071FDF7DEFAFFE7FFE743
:103F700048F20001C4F204014FF6EE20CFF6FF70C4
:103F8000086048F20401C4F204014FF0FF300860F9
:103F900048F20801C4F20401086048F20C01C4F2BE
:103FA000040108601E2000F03DFEFFE79DF81700A9
:103FB00044F22601C4F2050108701E2000F032FE12
:103FC0009DF8160001281CD1FFE7049848F2000173
:103FD000C4F204010860039848F20401C4F2040129
:103FE0000860029848F20801C4F2040108600198D0
:103FF00048F20C01C4F2040108601E2000F012FE19
:10400000FFE706B080BD000048F2A801C1F6FF71CD
:10401000086801300860BFF34F8F704786B040F2E8
:104020008460C4F201000068C00750B1FFE748F2A5
:104030000001C1F6FF7142F20040C0F2F4000860D6
:1040400009E048F20001C1F6FF7142F60050C0F2EB
:1040500031100860FFE744F22600C4F20500007842
:1040600000F007008DF817009DF817000146009139
:10407000052867D80099DFE801F0030E18202A32DE
:1040800048F20000C1F6FF70006848F20401C1F672
:10409000FF71086057E048F20401C1F6FF7141F278
:1040A0000020C0F27A0008604DE048F20401C1F639
:1040B000FF714FF40040086045E048F20401C1F68A
:1040C000FF7141F20020C0F27A0008603BE048F244
:1040D0000401C1F6FF714FF40040086033E044F280
:1040E0000010C4F205000168C1F3082104910168C1
:1040F000090F0391016801F01F0102910068000699
:10410000002806D4FFE741F20020C0F27A000190B7
:1041100006E048F20000C1F6FF7000680190FFE77A
:10412000019802990131B0FBF1F004990131484343
:1041300003990131B0FBF1F048F20401C1F6FF71BF
:10414000086000E0FFE706B07047000080B5FFF7A9
:1041500065FF4EF60851CEF200010020086080BDD8
:1041600080B500F0DFFC80BD80B584B0ADF80E00F6
:104170000291BDF90E00002805D4FFE7BDF90E003D
:10418000532801DBFFE7FFE7BDF90E0000EB40021B
:1041900045F23A41C0F200018818895C4909019151
:1041A00000F05CFC01460198029AFDF7F7FB04B0B1
:1041B00080BD000080B58CB0052003900321012252
:1041C0000592FDF751FB0AA80490FDF78FF908A8A6
:1041D0000790FCF7B3FF47F27770C0F2777042F2B6
:1041E0001021C0F21101FCF7F5FF03990498002299
:1041F00006928DF82A2030238DF829308DF828205A
:104200008DF82C10FDF798F8059B069907980991F1
:104210009DF8242002F0E0028DF82420BDF825202E
:1042200002F47E423132ADF825209DF827C0BDF85A
:10423000252042EA0C4263F31F52ADF82520120CF0
:104240008DF827209DF827C04FF4700202EA0C4237
:1042500002F58032120C8DF82720BDF8252063F37B
:104260001F32ADF825208DF820109DF8241001F0A4
:104270007F018DF82410FCF781FDFFE72020FCF77B
:10428000DDFC012801D0FFE7F8E7042000220192BD
:104290001146FFF717FB0B20012202921146FFF790
:1042A00011FB5020FDF7C6F94FF44040FDF70EFE1C
:1042B000FFF7A8FA0520FCF799FF0298FDF770F9BF
:1042C0000198FDF76DF90298FDF734F900F0D6F882
:1042D0000CB080BD80B584B0039003984068012184
:1042E000FDF77AFA0398008AADF8040003988089F4
:1042F000ADF806000398C089ADF80800039800687F
:1043000001A9FCF79DFB04B080BD000080B590B012
:10431000202001210691FDF715FA069A48F2AC001B
:10432000C1F6FF708021FCF7AFF8002005904FF434
:1043300000713322FDF71EFD05984FF48071322283
:10434000FDF718FD4EF20040C4F204000890FEF79D
:1043500011F9069848F2AC11C1F6FF7108740CA867
:104360000790FEF735FB069A079908980C9241F6DC
:104370008022C0F206020D9205220E9209AAFEF7D3
:1043800077F90F900F9800286CD1FFE74EF20040AC
:10439000C4F20400039000214FF480521123FEF771
:1043A00085FA01200490ADF82A0040F2AB10ADF878
:1043B000280044F21550C0F200000B900AA80190AA
:1043C000FEF74EFBBDF92A0000F0ECF9BDF92A001A
:1043D0000F21029100F0C4F9BDF92A0000F086F91E
:1043E00001980221ADF82A104FF4D471ADF82810CD
:1043F00044F28161C0F200010B91FEF731FBBDF97F
:104400002A0000F0CFF90299BDF92A0000F0A8F9BE
:10441000BDF92A0000F06AF901980421ADF82A10CC
:104420004FF4D571ADF8281044F2AD61C0F200012F
:104430000B91FEF715FBBDF92A0000F0B3F90299C4
:10444000BDF92A0000F08CF9BDF92A0000F04EF900
:1044500003980499FEF746F80398049A4221FEF760
:104460008FF9FFE70F9810B080BD000082B0019077
:104470008DF803109DF8030002B0704780B588B036
:104480006846FCF7C7FB009948F28800C1F6FF7048
:10449000016001994160029981600399C1600499AA
:1044A000016105994161069981610799C1610068BF
:1044B00048F20401C1F6FF71086008B080BD000039
:1044C00080B582B0009000980138B0F1807F03D3AE
:1044D000FFE70120019019E0009801384EF2140125
:1044E000CEF2000108604FF0FF300F2100F016F906
:1044F0004EF21801CEF20001002008604EF21002C8
:10450000CEF20002072111600190FFE7019802B08E
:1045100080BD000080B58AB04EF20040C4F20400B5
:104520000221FEF75BF801283FD1FFE74EF2004081
:10453000C4F20400099041F21201FDF78DFF0998C1
:104540004FF48021FEF74AF8012817D1FFE74EF219
:104550000040C4F204000790082101220892FEF7EF
:104560000FF900F037F901460798FEF749FA079866
:10457000089A41F21001FEF703F915E04EF20040EF
:10458000C4F204004FF48021FEF728F850B9FFE789
:104590004EF20040C4F2040041F210010122FEF785
:1045A000EFF800E0FFE7FFE767E04EF20040C4F2FB
:1045B00004004FF48051FEF711F801282DD1FFE7D8
:1045C0004EF20040C4F2040006904FF48051FDF713
:1045D00043FF06984FF48021FEF700F8012812D11E
:1045E000FFE74EF20040C4F2040005900821049158
:1045F0000022FEF7C5F804990598FDF72DFF0598F0
:10460000FEF728F908E04EF20040C4F20400402111
:104610000022FEF7B5F8FFE72EE04EF20040C4F2AC
:1046200004001021FDF7DAFF012823D1FFE74EF245
:104630000040C4F20400029041F2580100220192AD
:10464000FEF79EF802981021FDF706FF01990298E7
:10465000FDF748FF029848F2AC12C1F6FF72012143
:1046600003911174FDF73EFF0298039A4221FEF771
:1046700087F800E0FFE7FFE7FFE70AB080BD000032
:1046800080B54EF20040C4F204004021FDF7A6FFC1
:10469000012809D1FFE74EF20040C4F20400FEF702
:1046A000D9F800F0B9F8FFE780BD000080B54EF200
:1046B0000040C4F204000821FDF790FF012814D146
:1046C000FFE74EF20040C4F204004FF48051FDF7C2
:1046D00085FF50B9FFE700F07DF801464EF200403B
:1046E000C4F20400FEF78CF9FFE780BD81B0ADF89D
:1046F0000200BDF9020000280ED4FFE7BDF9021048
:1047000001F01F02012090404A094EF20011CEF242
:10471000000141F82200FFE701B0704782B0ADF818
:1047200006000091BDF9060000280AD4FFE70098B2
:104730000001BDF906104EF20042CEF2000288548C
:104740000BE000980001BDF8061001F00F014EF6D5
:104750001452CEF200028854FFE702B07047000006
:1047600082B0ADF806000091BDF9060000280AD419
:10477000FFE700980001BDF906104EF20042CEF2AC
:10478000000288540BE000980001BDF8061001F00B
:104790000F014EF61452CEF200028854FFE702B029
:1047A0007047000081B0ADF80200BDF9020000289A
:1047B0000ED4FFE7BDF9021001F01F020120904066
:1047C0004A094EF28021CEF2000141F82200FFE7B3
:1047D00001B0704781B048F2AC11C1F6FF71C868F2
:1047E0004968884210D2FFE748F2AC11C1F6FF7168
:1047F000CA6848F2AC00C1F6FF70805C8DF8030017
:10480000C8680130C86003E0FF208DF80300FFE7AF
:104810009DF8030001B0704781B08DF8030048F2A5
:10482000AC11C1F6FF71C8684968884210D2FFE731
:104830009DF8030048F2AC11C1F6FF71CB6848F255
:10484000AC02C1F6FF72D054C8680130C860FFE7FF
:1048500001B0704780B501204FF48041FDF7A4FB03
:10486000642000F0C5F980BD84B0039002910192EC
:104870000298009000980199884205D3FFE70098BC
:104880000199401A019007E0019840420190009977
:10489000019808440190FFE7019804B070470000B8
:1048A00084B003900291039800680190002000906A
:1048B000FFE7019808B9FFE70CE00198406802990A
:1048C000884203D1FFE70198009003E001988069D6
:1048D0000190EEE7009804B07047000080B586B004
:1048E000059004910598019000680390FFE70398F4
:1048F00008B9FFE72CE00398406828B3FFE7039866
:104900000078C00700B3FFE701980499039AD268C2
:10491000FFF7AAFF0290029803998968884212D390
:10492000FFE7029803998A68801A486104980399FE
:10493000C8600398406880470198007AC00708B1B2
:10494000FFE705E0FFE7FFE7039880690390CEE704
:1049500006B080BD80B588B00690059104928DF8B0
:104960000F30069801900599FFF79AFF0290029880
:1049700060B1FFE70498029988609DF80F000299E2
:1049800000F0010008700298079033E0FFE71C2058
:1049900000F0B4F80290FFE7029818B9FFE7002092
:1049A000079027E001980599029A51600499029AAC
:1049B00091609DF80F10029A01F001011170029AA6
:1049C0000021D160029A1161029A5161029A9161AB
:1049D000006820B9FFE701990298086004E0019996
:1049E000029849688861FFE7019902984860029837
:1049F0000790FFE7079808B080BD000082B00190E3
:104A00008DF8031001989DF8031001F00101017267
:104A100000210160416002B07047000080B586B09F
:104A200004900498059000680390FFE7039808B984
:104A3000FFE70FE003980290039880690390FFE777
:104A40000298019020B1FFE7019800F054F8FFE7C9
:104A5000FFE7EBE7059806B080BD000081B000904D
:104A60000098007800F01F010120884080B201B05A
:104A70007047000083B001900198007800F00300B7
:104A800001460091012804D0FFE70098022806D0D3
:104A900006E048F20800C1F6FF70029003E0FFE76D
:104AA00000200290FFE7029803B07047804701A002
:104AB00000F04FF87465726D696E6174655F6861CE
:104AC0006E646C657220756E65787065637465647C
:104AD0006C792072657475726E65640048F2C0105E
:104AE000C1F6FF700068704748F21C00C1F6FF7005
:104AF0000068FFF7DBFFFBF759BC000010B5044668
:104B0000002808BF012400BF2046FBF789FC0028CD
:104B100018BF10BDFFF7E2FF08B18047F4E700209F
:104B200010BD000080B582B048F2C830C1F6FF70F9
:104B300001900021FFF762FF019944F61D20C0F2A9
:104B4000000040F20002C0F20002FBF798FC02B045
:104B500080BDFBF727FD000080B582B00190019871
:104B6000807CC00708B1FFE706E00198FFF7B2FBC1
:104B7000019901208874FFE702B080BD82B00190E6
:104B80008DF803100198807CC00708B9FFE7FFE7A4
:104B900002B0704780B584B003908DF80B108DF88B
:104BA0000A2003989DF80B10FFF760FC8DF80900B0
:104BB00003990868097A9DF8092001230193FBF7FE
:104BC00027FE039800689DF809109DF80A20FBF75E
:104BD000B5FF039800684FF40071FBF7EFFE019AF0
:104BE000039800689DF80910FBF78CFE04B080BDA7
:104BF00083B0029048F2A800C1F6FF7000680190EF
:104C000002980090FFE748F2A800C1F6FF70006824
:104C10000199401A0099884201D2FFE7F3E703B0F7
:104C20007047000086B005900020049048F204010F
:104C3000C1F6FF7109684DF68362C4F21B32A1FB15
:104C40000221890C059A514303914EF21801CEF2CC
:104C5000000109680291029901910090FFE74EF26C
:104C60001800CEF200000068019002980199401AE5
:104C700000900098012805DBFFE70099049808449C
:104C8000049011E0009848F20401C1F6FF71096830
:104C900044F6D352C1F26202A1FB022100EB911152
:104CA000049808440490FFE704980399884202D9C5
:104CB000FFE706B0704701980290D0E780B582B058
:104CC000002000900190C720FEF70CFDFFF772FA5C
:104CD00000F0B0F8009A1E20052100F021F8FFF73F
:104CE00015FB8320FEF73CFD48F2C830C1F6FF708B
:104CF00044F65501C0F200010A220123FFF72AFE03
:104D0000FFE700F009F8014648F2C830C1F6FF702D
:104D1000FFF7E4FDF5E7000080B500F09DF880BDE9
:104D200080B58AB0ADF826008DF825108DF82420C6
:104D3000BDF92600002805D4FFE7BDF92600532859
:104D400001DBFFE7FFE7BDF92600532801DBFFE7A2
:104D50006EE0BDF9260000EB400145F23A40C0F29A
:104D60000000084440788DF8200008A8FFF782FE74
:104D700007909DF8200080088DF81B000798D8B197
:104D8000FFE79DF81B00FF2816D0FFE79DF82500E0
:104D900003280AD1FFE70798FFF7DEFE07989DF882
:104DA0001B103222FFF7F6FE05E007989DF81B1056
:104DB000FFF7E4FEFFE7FFE702A8FDF7D1F89DF853
:104DC000250001460191072827D80199DFE801F065
:104DD0000408250F25171E170020ADF80A001DE056
:104DE0000020ADF80A004020ADF8120016E00020C7
:104DF000ADF80A004FF40040ADF818000EE00220B4
:104E0000ADF80A004020ADF8120007E00220ADF82E
:104E10000A000420ADF80C00FFE709E09DF824002B
:104E2000ADF80800BDF9260002A9FFF79DF9FFE7DC
:104E30000AB080BD80B588B06846FBF7EBFE0098ED
:104E400044F6D351C1F26201A0FB01108009FFF7C3
:104E500037FB08B080BD000048F2A800C1F6FF7023
:104E60000068704790EA010F48BF81F0004100F1EF
:104E70007682421A3CBF801A89184FEAD052A2EBC0
:104E8000D1534FF07F4C1CEA410F18BF9CEA026FD0
:104E900000F03B804FF0004C4CEA00204CEA01212E
:104EA00021FA03FC10EB0C0C1ED202F1FF325FEA78
:104EB0001C2040EBC25038BF70471CF07F0F4FEAF8
:104EC000400C18BFBCF17F4F38BF7047C3F12003BF
:104ED000994008BF20F00100BCF17F4F38BF7047F8
:104EE000A0F1C04000F02EBA4FEA3C00000A40EBAF
:104EF000C25028BF1CF0FF0F4FEA400CE6D018BF8D
:104F0000BCF17F4F38BF7047EAE79CEA026F05D0DB
:104F100010EA5C0F08BF00F00040704710B500F0C9
:104F2000CBF900BF64FBBE3E10B500F0F5F80CBF36
:104F30000120002010BD10B500F0EEF814BF0120D4
:104F4000002010BD10B500F04FF98CBF01200020EB
:104F500010BD10B500F048F92CBF0120002010BD95
:104F600010B500F075F994BF0120002010BD10B5F8
:104F700000F06EF934BF0120002010BD401058BF72
:104F8000C0F14040491058BFC1F140418142EFF3A8
:104F9000008070474FF47F0C1CEAD0121EBF1CEA41
:104FA000D11392EA0C0F93EA0C0F00F0858090EA7F
:104FB000010F48BF42F4807240F4000C41F400003D
:104FC0002CF07F4120F07F4000B5A2EB030281422C
:104FD0000FF2081CACEB504E9EF800E0C0F1000050
:104FE0004FEA4E0E00FB0EFC38BF49004FEA2C1C66
:104FF0000CFB0EF34FEACE1E0EEB635E4FEA112C54
:105000000EFB0CFC4FEAC1214FEA1C5300FB0311BD
:1050100002F5FA024FEA112C0EFB0CFC4FEA0131AB
:105020004FEADC4C00FB0C1142EB2242C14228BF8C
:1050300009184CEB03335DF804EB10EB410143EB33
:10504000C250B2F57C0F38BF704729D512F0F00F6F
:105050001CBF00F1C04000F0004070470081828317
:105060008485868788898B8C8D8E8F919293959677
:1050700097999A9C9D9FA0A2A3A5A7A8AAACAEB001
:10508000B2B3B5B7B9BCBEC0C2C5C7C9CCCED1D406
:10509000D7D9DCDFE2E6E9ECF0F3F7FAFE00000036
:1050A0004FEA400C0CF1807CBCF17E4F28BF70476A
:1050B000B0F1C04000F046B90CEAD11390EA010FFC
:1050C00048BF42F48072624538BF634507D213F48B
:1050D0007F0F16D080EA010000F00040704710B545
:1050E00000F0EAF8097EFC3E00F005B880EA010015
:1050F00000F00040704780EA010000F0004000F03E
:1051000021B912F47F0F04BF0248704780EA010002
:1051100000F018B90000C07F50EA010C00F11380C4
:105120001CF5000F58BFBCF5000F01D48842704732
:1051300007D710F5000F58BF11F5000F15D488429E
:105140007047894270471CF5000F04D5BCF5000F6D
:10515000F7D5814270474FF0807C1CEB400F38BF81
:105160001CEB410F01D28142704710B500F0A4F84A
:10517000922449004FF000504FF08051FFF7FEBEDF
:10518000C10DD1F19E0206DB4FEA002343F000433C
:1051900023FA02F07047004207D54FEA4001B1F10F
:1051A000FE4F02D24FF00000704710B500F084F8B7
:1051B00049922480002070476FEA20007047000069
:1051C000B0FA80F310FA03F2C3F19D030AD0D905B7
:1051D00001EB1220530638BF704700F1010008BFF1
:1051E00020F001007047000050EA010C00F113802C
:1051F0001CF5000F58BFBCF5000F01D48842704762
:1052000007D710F5000F58BF11F5000F15D48842CD
:105210007047894270471CF5000F04D5BCF5000F9C
:10522000F7D5814270474FF0807C1CEB400F38BFB0
:105230001CEB410F01D28142704710B500F03CF8E1
:10524000922449004FF080504FF00051FFF796BE76
:1052500050EA010C00F113801CF5000F58BFBCF59B
:10526000000F01D48842704707D710F5000F58BFD0
:1052700011F5000F15D488427047894270471CF51C
:10528000000F04D5BCF5000FF7D5814270474FF0F1
:10529000807C1CEB400F38BF1CEB410F01D28142D8
:1052A000704710B500F008F8922449004FF0005004
:1052B0004FF08051FFF762BE0EF1020E2EF0030E8A
:1052C0005EF8044B244204D44FEA4102B2F17F4F0E
:1052D00011D84FEA4003B3F17F4F0CD80ED14FEAFB
:1052E000D07C0CEB4C0C0CF1020CB2F17F4F08BFE0
:1052F0004CEBD17C04E04FF0080C01E04FEAD17C8C
:105300000CEB4C0324FA03F404F00704B4F1040C8E
:1053100006D20EEB840CBDE810404CF0010C604747
:10532000DFE80CF0070802024FF00040A0F5800013
:1053300010BD0846420018BFD2F1807288BF00F04D
:10534000004010BDFF2141EAD050C0057047000069
:1053500090EA010F48BF81F000413FF58AAD421A43
:1053600004D882F00042A0EB020011444FEAD05270
:10537000A2EBD1534FF07F4C1CEA410F18BF9CEABF
:10538000026F4AD04FF0004C4CEA00204CEA012159
:1053900021FA03FCB0EB0C0C0FD412F0FE0F36D048
:1053A0005FEA4C001DD5001240EBC25038BF704779
:1053B0001CF03F0F18BF70470BE05FEA1C20A2F102
:1053C000010240EBC25038BF70471CF07F0F18BF7E
:1053D0007047C3F12003994014BF401E20F0010024
:1053E00070474FEA1223800808BF7047B0FA80FC6C
:1053F000A2EB0C02CCF1280C60FA0CF093EA122F0D
:1054000004BF00EBC25070474FEAC3707047130AE5
:105410005FEADC1008BF7047F6E79CEA026F04D031
:1054200010EA5C0F08BF0020704710B5FFF744FF7B
:1054300040DFF63E81F00040704700010201050A9E
:10544000020945030D4D04116305156B0619430749
:105450001D4B0800010900090A00110B00190C007E
:10546000460D004E0E00560F005E20215321255B95
:1054700022003923006624006E25007626007E2750
:10548000000C28001429001C2A007D2B00002C0091
:10549000392D00212E00292F0031402922412D2AAB
:1054A00042313243353A443973453D7B46007D47AE
:1054B000007548006D4900654A00454B004D4C00A1
:1054C000554D003C4E00244F002CA00055A1005D1E
:1054D000A2003400000000000000000000000000F6
:1054E00000000000000000000000000000000000BC
:1054F00000000000000000000000000000000000AC
:10550000000000000000000000000000000000009B
:10551000000000000000000000000000000000008B
:10552000000000000000000000000000000000007B
:105530000000002E2E2F2E2E2F4472697665722FBA
:105540007372632F686333325F6C6C5F6164632EC8
:1055500063002E2E2F2E2E2F4472697665722F73C4
:1055600072632F686333325F6C6C5F636C6B2E63A6
:10557000002E2E2F2E2E2F4472697665722F737295
:10558000632F686333325F6C6C5F65666D2E6300FA
:105590002E2E2F2E2E2F4472697665722F73726312
:1055A0002F686333325F6C6C5F6663672E63002E17
:1055B0002E2F2E2E2F4472697665722F7372632FF1
:1055C000686333325F6C6C5F6770696F2E63002EA7
:1055D0002E2F2E2E2F4472697665722F7372632FD1
:1055E000686333325F6C6C5F6932632E63002E2E0A
:1055F0002F2E2E2F4472697665722F7372632F6877
:105600006333325F6C6C5F696E746572727570744F
:10561000732E63002E2E2F2E2E2F44726976657204
:105620002F7372632F686333325F6C6C5F707763C4
:105630002E63002E2E2F2E2E2F4472697665722F28
:105640007372632F686333325F6C6C5F7372616D6A
:105650002E630000785600000880FF1F2000000025
:10566000BC020000985600002880FF1FB0430000D5
:10567000D8020000EDEAFFFF000004400100000036
:10568000000011000000000000000000A50500005F
:08569000E94A000000000000DF
:040000050000028174
:00000001FF
