:020000040000FA
:1000000010CDFF1F21040000590400005B04000014
:100010005D0400005F0400006104000000000000B7
:100020000000000000000000000000006304000069
:10003000650400000000000067040000A5570000F0
:10004000E93F0000FD3F0000114000002540000096
:10005000394000004D400000614000007540000044
:10006000894000009D400000B1400000C5400000F4
:10007000D9400000ED4000000141000015410000A2
:10008000294100003D410000514100006541000050
:10009000794100008D410000A1410000B541000000
:1000A000C9410000DD410000F141000005420000AF
:1000B000194200002D42000041420000554200005C
:1000C000694200008142000099420000B1420000F4
:1000D000C9420000E1420000F94200001143000063
:1000E00029430000414300005943000071430000D0
:1000F00089430000A1430000B9430000D143000040
:10010000E9430000014400001944000031440000AC
:10011000494400006144000079440000914400001B
:10012000A9440000C1440000D9440000F14400008B
:1001300009450000214500003945000051450000F7
:10014000694500008145000099450000B145000067
:10015000C9450000E1450000F945000011460000D6
:100160002946000041460000594600007146000043
:1001700089460000A1460000B9460000D1460000B3
:10018000E946000001470000194700003147000020
:10019000494700006147000079470000914700008F
:1001A000A9470000C1470000D9470000F1470000FF
:1001B000094800002148000039480000514800006B
:1001C000694800008148000099480000B1480000DB
:1001D000C9480000E1480000F9480000114900004A
:1001E00029490000414900005949000071490000B7
:1001F00089490000A1490000B9490000D149000027
:10020000E9490000014A0000194A0000314A000093
:10021000494A0000614A0000794A0000914A000002
:10022000A94A0000C14A0000D94A0000F14A000072
:10023000094B0000214B0000394B0000514B0000DE
:100240006B0400006B0400006B0400006B040000F2
:100250006B0400006B0400006B0400006B040000E2
:100260006B0400006B0400006B0400006B040000D2
:100270006B0400006B0400006B0400006B040000C2
:1002800000F002F800F099F80AA090E8000C82440F
:100290008344AAF10107DA4501D100F08EF8AFF2EC
:1002A000090EBAE80F0013F0010F18BFFB1A43F054
:1002B00001031847F495000014960000103A24BF7B
:1002C00078C878C1FAD8520724BF30C830C144BFBB
:1002D00004680C60704700000023002400250026FD
:1002E000103A28BF78C1FBD8520728BF30C148BF99
:1002F0000B6070476E2900F01B83702900F0658445
:10030000662909F02680652909F02380672909F00C
:100310002080612909F01F8003681B0A28BF41F073
:100320008001692900F0C882642900F0C58275291E
:1003300000F0C2826F2900F0F383782900F0318445
:10034000E92900F08D83E42900F08A83F52900F083
:100350008783EF2900F0F083F82900F030840368E8
:10036000DB0928BF41F08001632901F07B817329FB
:1003700001F08081E32901F08B81F32901F0908164
:10038000002070471FB59DE8030000F0FDF900F064
:10039000DFF904000020002108F08AFA401C6060A8
:1003A0000020002108F09AFAE06000F0BFF91FBDBC
:1003B00010B5002001F09CF910BD01F0C9F91146FB
:1003C000FFF7E0FF07F0ACFD01F09AFA03B4FFF786
:1003D000EFFF03BC00F0EAFC10B500F0B9F9001D16
:1003E00010BD00BFCD8400000B460146184600F04A
:1003F000C6BC704770477047004870472081FF1F98
:10040000BFFFDFFFFFFEFFFFFFFFFFFFFFFFFFFF5D
:10041000FFFFFFFFFFFFFFFFFFFFFFFFFFFFFFFFEC
:1004200015484FF01F01016014484FF0770101603B
:1004300013484FF07701016012484FF48851016072
:100440000E484FF0760101600D484FF076010160D3
:100450000D4880470D480047FEE7FEE7FEE7FEE750
:10046000FEE7FEE7FEE7FEE7FEE7FEE7084809498C
:10047000094A0A4B7047000010080540040805406F
:100480000C08054000080540E95800008102000002
:10049000108DFF1F10CDFF1F10ADFF1F10ADFF1FF0
:1004A00070B50646FFF7A8FF056806F10B0020F0BF
:1004B0000704B4429CBF002070BD2B466A68BAB1E5
:1004C0001068A04210D304F1080188423CBF506874
:1004D000586007D35168101941601168091B016009
:1004E00058601460101D70BD13465268002AE7D191
:1004F0002146284600F034F90028DED170BD70B5E1
:100500000446051FFFF778FF0068002C14BF4468FD
:1005100070BD002C18BFAC423CBF20466468F8D3C5
:1005200001680A18AA4218BF456003D12A68054627
:100530001144016028684119A1421CBF6C6070BD64
:100540006168696021680844286070BD53EA020C44
:1005500000F069802DE9F04B4FF00006002B1FBF23
:10056000B3FA83F503FA05F424FA05F65E4012BFE8
:100570001643B2FA82F502FA05F4C5F120051EBF52
:1005800022FA05FC44EA0C04203556EA044C4FEAF2
:10059000144418BF641C4FF000084FF0000990424B
:1005A00071EB030C39D3002919BFB1FA81F701FAB5
:1005B00007F6B0FA80F700FA07F6C7F120071EBF6A
:1005C00020FA07FC46EA0C062037B6FBF4FCA7EB42
:1005D0000507103F07F01F0BCBF120062CFA06F69B
:1005E0000CFA0BFB44BFB3460026202FA4BF5E4687
:1005F0004FF0000B5BEA060C08BF4FF0010B19EB44
:100600000B0948EB0608ABFB027C06FB02CC0BFB9C
:1006100003CCC01B71EB0C01C1E70B4602464146FF
:100620004846BDE8F08B13B5084318BF4FF0FF30C4
:100630000146AFF30080BDE81C4070477CB51D4605
:1006400016460C00009001D02044401E074B7B440E
:100650002A4669460190304600F083F905461CB1F0
:100660000020694600F090F928467CBD4103000057
:1006700010B5431C02E010F8011B71B18107FAD1DB
:100680004FF0013202C88C1A8C4314EAC211F9D01F
:10069000C01A0A0603D0C01E10BDC01A10BD0A043D
:1006A00001D0801E10BD0902FCD0401E10BD00000C
:1006B00030B44FF0013C50F8042B51F8043BCCFA15
:1006C00052F4D51A20D1FCB950F8042B51F8043B50
:1006D000CCFA52F4D51A17D1B4B950F8042B51F80A
:1006E000043BCCFA52F4D51A0ED16CB950F8042B55
:1006F00051F8043BCCFA52F4D51A05D1002CDAD0CB
:1007000030BC4FF00000704729BAB1FA81F111F006
:100710001801D1F120008440F2D1CA40CB4012F040
:10072000FF0213F0FF0330BCD01A704770B5064CBF
:100730007C44064D7D4404E020460168084480471F
:10074000241DAC42F8D170BDC0920000C4920000DC
:10075000004870473881FF1F7047704770477047E7
:1007600038B504460A4600206946AFF300800028E9
:1007700008BF38BD02460099204600F025FB012045
:1007800038BD012000F0DCBFF8B5AFF300800546AE
:1007900000200C46102000BF0646A819A0420DD923
:1007A000324669460020AFF30080070008BF00F022
:1007B000C7FF0098A04218BF0546C419FFF71CFEEA
:1007C00005600746F01D20F007004619284600F096
:1007D0000AF8B44208BFF8BDA21B31463868BDE82C
:1007E000F84000F0F1BA00210160C0E90110704743
:1007F0001020704770B5044685690068C10601D5B0
:10080000302600E02026C00707D070BDD4E90121C2
:1008100030469047206A401C20626D1EF6D570BDA0
:1008200070B5044685690078C00707D170BDD4E96A
:10083000012120209047206A401C20626D1EF6D5C1
:1008400070BD09684A0501D540B27047C905FCD59D
:1008500000B2704709684A0501D5C0B27047C905A2
:10086000FCD580B2704770B50C460546012A05D00C
:100870002878800600D5EA69002302E0012305E01C
:100880005B1C934202D2E05C0028F9D1A869E6180B
:10089000C01AA861286A184428622846FFF7AAFFF0
:1008A00004E0D5E9012114F8010B9047B442F8D3D4
:1008B0002846FFF7B5FF70BD2DE9F041064600243C
:1008C00010687529314616A510D0FFF7BAFF002829
:1008D00002DA404213A507E031688A0701D512A564
:1008E00002E0490704D511A5012401E0FFF7B2FF9A
:1008F00000210A2206F1240709E0B0FBF2FCB0FB5C
:10090000F2F302FB1C00303078541846491C0028D2
:10091000F3D123462A463046BDE8F04100F0B3BA91
:10092000000000002D0000002B000000200000004F
:1009300011680268006A530501D508700AE0D30502
:1009400001D5088006E0130603D5C217C1E90002ED
:1009500000E008600120704701694A1C02610878C4
:10096000704700B58FB0CDE90131002105910549EF
:100970007944CDE903101146684600F031F90FB013
:1009800000BD0000E5FFFFFF0A6802F8010B0A60E6
:100990007047D1E900239A4202D2531C0B601070B9
:1009A000704700002DE9FF5F15468A460446DFF8D0
:1009B000AC80F8440027D8E900103E46CDE900108D
:1009C00010E03AF816106A4602A800F06DFE411CCD
:1009D00007D02178890603D5E269391891420DD8EC
:1009E0000744761C2078800602D5E069B84205DD10
:1009F000AE42E6DB3AF816000028E2D1A069C01B3F
:100A0000A0612046FFF7F6FED8E90010CDE90010FE
:100A1000002017E03AF818106A4602A800F044FED9
:100A2000B0F1FF3F81460BD000250DF1080B05E02A
:100A3000D4E901211BF8050090476D1C4D45F7D303
:100A400008F10100B0428046E4DB206A38442062AD
:100A50002046FFF7E5FEBDE8FF9F0000A6890000E5
:100A60002DE9F0418046D21D22F007020025D2E98F
:100A70000002F52915A614D0011E72F1000106DA54
:100A80000023D0EB030063EB020211A608E0D8F8C4
:100A900000108B0701D50FA602E0490701D50EA66D
:100AA00001251146002408F1240704E000F0A6F90E
:100AB00030323A55641C50EA0102F7D12B463246D7
:100AC00021464046BDE8F04100F0DDB900000000DD
:100AD0002D0000002B0000002000000030B4002199
:100AE00000F1240408E002F00705D208303542EA9C
:100AF0004372DB086554491C52EA0305F3D10468CC
:100B0000002310A2250708D504F020040C4304D0CC
:100B1000C46901230CA2641EC46130BC00F0B3B9E7
:100B200010B5044621461068FFF794FE02462046A1
:100B3000BDE810400023D1E7D21D22F00701D1E922
:100B40000023CBE70000000030000000F0B40D46A9
:100B50000188090502D5214C7C4402E01F4C7C44ED
:100B60000E34002100F1240608E002F00F071209FC
:100B7000E75D42EA03721B097754491C52EA0307F6
:100B8000F3D102780023120704D5702D06D009B1E5
:100B9000022311342246F0BC00F075B90123103451
:100BA000F8E770B504460D4621461068FFF752FE7F
:100BB000024629462046BDE870400023C6E7D21D04
:100BC00022F00703D3E90023C0E70368126843F06B
:100BD000200303600823C3610023B7E708880000EF
:100BE0002DE9F05F894604464FF0000ADFF874B142
:100BF000FB44C0F820A02046E1688847002874D054
:100C0000252806D0D4E901219047206A401C2062A3
:100C1000F1E700265F462046E16888472028054620
:100C200007DB312D05D2781910F8200C08B10643E6
:100C3000F1E7B00701D526F00406C4F81CA0002790
:100C4000C4F818A02A2D09D0284607F029FE38B389
:100C500004EB8708303DC8F8185019E059F8041B18
:100C6000204604EB87029161E1688847012F054621
:100C700018D1E069002820DA26F020061DE0D8F817
:100C8000180000EB800005EB40003038C8F8180071
:100C90002046E1688847054607F002FE0028EED1AD
:100CA000012F0AD02E2D08D12046E16888477F1CED
:100CB0000546022F46F02006C4DBA069002803DAAF
:100CC000404246F00106A061F00701D026F0100670
:100CD0006C2D0BD0682D09D04C2D39D06A2D35D014
:100CE000742D35D07A2D33D016E038E0E1682F46E8
:100CF00020468847B842054609D16C2F26D04FF4CC
:100D00008060E168064320468847054604E06C2F72
:100D10001AD04FF4807006430DB3A5F14100192895
:100D200002D8203546F400664A4629462046266009
:100D30004E46FFF7DFFA80B101280BD0F61D26F0F2
:100D4000070000F1080956E74020E4E78020D8E7D3
:100D50000020D6E706F104094DE7284652E7206A4D
:100D6000BDE8F09F9887000010B5002000F0E1FC7E
:100D7000FFF71EFBBDE81040012000F017B82DE979
:100D8000F041074615460E461020FFF789FB040088
:100D90000AD06760C4E9026500F012F801682160BA
:100DA00004600020BDE8F0810120FBE70149182024
:100DB000ABBEFEE726000200004870471881FF1F07
:100DC000004870475081FF1F034640688C4600284A
:100DD00018BF88423CBF03464068F8D318681844DF
:100DE000884207D00CF1030020F00700001D411AD3
:100DF000521A0146081D0A60FFF781BB30B5B0F1F9
:100E00000A0271F100034FEA900E4EEA817EB0EBC8
:100E10000E0061EB91014FEA101E4EEA017E10EBCD
:100E20000E0041EB11114FEA102E4EEA016E10EB4D
:100E30000E0041EB11214FEA104E4EEA014E10EB2D
:100E40000E0041EB1141401841F100014FEAD00082
:100E500040EA41704FEAD1014FEA810444EA9074BC
:100E600010EB800544EB01046D1944EB0404521BA4
:100E7000A3414FF0000348BF0A3200D530BD401CEB
:100E800041F1000130BD2DE9F0470D4699469246EB
:100E9000044600F124080168880604D5E06921F0C1
:100EA0001001216000E00120A84201DD471B00E0A5
:100EB0000027A1697A1902EB0900081AA0612078BD
:100EC000C00602D42046FFF795FC002608E0D4E9CE
:100ED00001211AF806009047206A401C761C206207
:100EE0004E45F4DB2078C0060AD52046FFF782FC89
:100EF00006E0D4E9012130209047206A401C20629E
:100F0000381EA7F10107F4DC07E0D4E9012118F845
:100F100005009047206A401C2062281EA5F10105AB
:100F2000F3DC2046FFF77CFC2078000602D5022087
:100F3000BDE8F0870120FBE72DE9FF4F0C461E4678
:100F40004FF0FF378BB0D2E90001DDF860800A90E6
:100F50008A46C1F30A5505B93D46002108464FF0BF
:100F60000000BAF1000F00F4400005DA00EB800049
:100F70004FF4400101EA50004FEA9059B9F1010FD6
:100F800000DDB9460A9850EA4A000ED044F61050E7
:100F9000A5F2FF3545432F14B8F1000F1ED075425E
:100FA000291E1EDDC9F100021CE0B8F1010F4FF04F
:100FB000000001D0302103E0F24305E02154401C41
:100FC000B042FBDB30460022002121540B99C1F8CE
:100FD0000880C1E900200FB0BDE8F08FBD1B6D1C7B
:100FE000DEE74A4600DA694206A800F017FC06ABC5
:100FF00093E8070003AB83E8070050460A9907F01F
:1010000072F88DE80700A0F500501F380090039893
:10101000002D0ADD42F21F014A460844002303A9BD
:101020000390684607F0DCFA09E0A0F500504A4654
:101030001F38002303A90390684607F0E6FA8DE8FD
:1010400007000004000C03D04FF0FF30410800E01F
:101050001046B8F1000F03D00022009215461EE0A2
:10106000751E05D4FFF7CAFE303262556D1EF9D5E4
:10107000B3460122084302D000227F1C04E02078FE
:10108000302801D100227F1E002A099784D01DE05C
:10109000112D07DAFFF7B2FE303262556D1C50EAAF
:1010A0000102F5D1084302D00098C8B10EE000213A
:1010B000681E05E0235C625C63542254401E491C98
:1010C0008142F7DBAB46A81B401E0990002004F8C4
:1010D0000B000B98099AC0F80880C0E9002B7AE74A
:1010E00011264FF0000857E72DE9F04F88460446D7
:1010F000D21D22F0070191B0D1E90001CDE90A012A
:1011000007F0BAFB02460B98C00F01D02D2007E074
:101110002068810701D52B2002E0202101EAC000D0
:10112000032A099001D0072A05DB034641462046E1
:1011300000F034FB0BE12078800601D5E06900E087
:101140000620B8F1650F814606D0B8F1660F18D0B9
:10115000B8F1670F70D131E00020B9F1110F0090A4
:1011600001DB112301E009F101030AAA01A90CA87E
:10117000FFF7E2FEDDE90C70002609F10105834668
:1011800047E001204B4600904FF000470AAA01A912
:101190000CA8FFF7D1FEDDE90DB00C995D460026E5
:1011A00010B909F101000D18B9EB050003D4C0F125
:1011B000FF3609F10105A5EB09002BE0B9F1010F9C
:1011C00001DA4FF001090020B9F1110F00904846F3
:1011D00001DD112300E003460AAA01A90CA8FFF7CC
:1011E000ABFEDDE90C704D460026834620780007F3
:1011F0000AD4AB4500DA5D4601A8012D04DD411992
:1012000011F8011C302907D04F4502DA17F1040FFD
:1012100004DA012082460FE06D1EEEE7002F02DCAB
:10122000ED1B3E4403E0781CA84200DD7D1CB81B8A
:1012300000F1010A4FF000472078000703D4AA45C7
:1012400001DB4FF0FF3A0021B7F1004F0DF14308E9
:101250008DF8431024D002202B23002F01DA7F4287
:101260002D230A21021EA0F1010000DC5FB197FBD3
:10127000F1FC97FBF1F201FB1C7C17460CF1300CE2
:1012800008F801CDEEE7A8F10100037021880905F7
:1012900001D5452100E06521A0F1010800F8011CFD
:1012A00009980FA9A1EB0807FF1D00B10120411902
:1012B00001EBEA70A1693844081A401EA061207849
:1012C000C00602D42046FFF795FA099828B1D4E960
:1012D00001219047206A401C20622078C00622D558
:1012E0002046FFF787FA1EE0002E04DBB34502DD3F
:1012F00001A8805D00E03020D4E901219047206AF8
:10130000401C2062761CAAF101005FEA000A0AD1A3
:10131000FFF71EFAC0680168405CD4E901219047DC
:10132000206A401C2062281EA5F10105DCDC07E0D4
:10133000D4E9012118F8010B9047206A401C206273
:10134000381EA7F10107F3DC2046FFF769FA0320F6
:1013500011B041E62DE9F04F04460D46D21D22F0B2
:10136000070089B0D0E900974846394607F084FA6B
:101370000246F80F01D02D2307E02068810701D530
:101380002B2302E0202101EAC0038DF820300BB1AD
:10139000012000E00020032A824601D0072A04DB56
:1013A0002946204600F0FAF93FE12078800601D472
:1013B0000D2500E0E569C7F30A560D2D49DA002135
:1013C0004FEA175B08464FF00000002F00F4400082
:1013D00007DA00EB80004FF4400100EBD07001EA27
:1013E00060008115012901DD4FF0FF3100224FEA35
:1013F000850CBCF1180F06D31346ACF118004FF062
:101400008052C24003E04FF4801323FA0CF30CF136
:101410000C0CBCF1200F04D3ACF1200C09FA0CF039
:1014200001E007FA0CF000294FF0004801DD18B97F
:101430000FE00ED140450CD319EB02095F4121B9F1
:10144000404502D19F4329EA0209BBEB175F00D058
:10145000761C2088000502D57B48784402E07A4853
:101460007844193808AA302302F80A30037C0AF1BC
:101470000101002E0AF1020A53546A4602DC4FF0C1
:10148000300101E04FF031014FF001088DF80010FC
:1014900002D0A6F2FF3603E059EA470100D06B4EB6
:1014A000002D02DC2178090704D54FF002082E2117
:1014B0008DF80110C44600210BE0C7F303433F0140
:1014C000C35C491C6D1E02F80830052908F10108AB
:1014D00001DA002DF1DC00210CE000EB1973491C4E
:1014E0001B786D1E082902F808304FEA091908F127
:1014F000010801DA002DF0DC21688B0602D516E028
:10150000A8F10108E04505DD02EB080313F8013CF2
:10151000302BF5D0B8F1000F09DD02EB080313F80A
:10152000013C2E2B03D1090701D4A8F10108002D9D
:1015300005DD3E2102F808106D1E08F10108407C0F
:10154000002E02F8080008F1010804DA2D20764286
:1015500002F8080002E02B2002F808000A214FF4EC
:101560007A70864208F101080BDB96FBF0F330330A
:1015700002F8083096FBF0F308F1010800FB13664F
:1015800001E0642E0CDB642096FBF0F3303302F8AC
:10159000083096FBF0F308F1010800FB136601E048
:1015A0000A2E06DB96FBF1F0303002F8080008F155
:1015B000010896FBF1F001FB1060303002F80800E2
:1015C000A16908F1010808EB050202EB0A00081AFC
:1015D000A0612078C00602D42046FFF70BF9216AEB
:1015E00008AE01EB0A00206204E0D4E9012116F8FC
:1015F000010B9047BAF1010AF7D22078C00602D554
:101600002046FFF7F7F86E4609E016F8010B3E2872
:101610000FD0D4E901219047206A401C2062B8F124
:101620000108F2D22046FFF7FBF809B00320BDE81D
:10163000F08F206A2844206203E0D4E901213020A1
:1016400090476D1EEBD3F8E7527F000002FCFFFFCE
:1016500010B5436913B1AFF3008001E0FFF703F960
:10166000012010BD127800F124010A7000224A7096
:101670000122EDE711684FF0FF32E9E710B5436949
:1016800013B1AFF3008001E0FFF78CF9012010BD2A
:10169000128800F1240182840022C2840122EDE735
:1016A00011684FF0FF32E9E72DE9F04116460C468C
:1016B0000546FEF791FE036893F80101012807D063
:1016C000FF2C12D8185D80B101202C70BDE8F0818C
:1016D000D3F807013246214603F20713C7182846FC
:1016E000BC46BDE8F041002360474FF0FF30EDE716
:1016F0002DE9F0410646FFF763FB8046454613E0BF
:1017000016B1E068B0420ED120682860D4E901012A
:10171000D8F8007088472046FEF7F1FED8F80000A0
:10172000B842EBD100E025462C68002CE8D1BDE89A
:10173000F08110B500F0F2F8BDE8104000F0E9B813
:1017400010B500F003F9BDE8104000F0E2B87047B2
:101750007546FFF731FBAE4605006946534620F05B
:101760000700854618B020B5FEF780FEBDE8204092
:101770004FF000064FF000074FF000084FF0000B4D
:10178000AC46ACE8C009ACE8C009ACE8C009ACE8BC
:10179000C00921F007018D46704700002DE9F04196
:1017A0001F46044603260168072A01F4006004DB93
:1017B00008B116A505E016A503E008B115A500E0DF
:1017C00015A521F010002060A069C01EA0610FB116
:1017D000401EA0612046FFF70DF84FB1D4E901216A
:1017E00038469047206A401C2062C01C206206E0F8
:1017F000206AFAE7D4E9012115F8010B9047761E1B
:10180000F8D22046FFF70CF8BDE8F0814E414E00BB
:101810006E616E00494E4600696E66002DE9F04724
:10182000814616468AB0354878440DC88DE80D00CB
:1018300032487844801C03AC0DC884E80D0041F6A2
:101840009B300844372190FBF1F290FBF1F5A5F1B4
:10185000800501FB12041B3C02D56442012000E01C
:101860000020DFF898A080460027FA44AAF1BE0ABB
:101870000EE0E0070AD03246684607EB4701012335
:101880000AEB810106F0C1FE8DE8070064107F1CA1
:10189000002CEED1194F7F44AE3F19E0E80715D078
:1018A00007EB04100DF1180A90E80E008AE80E000C
:1018B000C068F04201D1981908903246012306A968
:1018C00003A806F0A2FE03AB83E807006D10641CBA
:1018D000002DE3D14FF0010332466946B8F1000F05
:1018E00003A802D006F07CFE01E006F08EFEC9E9F6
:1018F0000001C9F808200AB0BDE8F087147C000098
:1019000010B50446AFF300802046BDE81040FEF756
:101910005DBD002801D0FFF749BA704710B500211E
:1019200002A000F03BF8012010BD000053494741E0
:101930004252543A2041626E6F726D616C20746540
:10194000726D696E6174696F6E00000010B50128D8
:1019500005D0002103A000F021F8012010BD09A14D
:10196000F8E7000053494752544D454D3A204F7512
:1019700074206F662068656170206D656D6F727987
:10198000000000003A2048656170206D656D6F723F
:101990007920636F727275707465640070B5054666
:1019A0000C460A2000E06D1C00F011F835B12878D3
:1019B0000028F8D102E0641C00F009F814B1207886
:1019C0000028F8D1BDE870400A20AFF3008008B5C8
:1019D00069468DF800000320ABBE08BD80B584B019
:1019E00003908DF80B108DF80A208DF80930FFE771
:1019F00003980021C4F20401884205D1FFE79DF855
:101A00000A0011280DD3FFE7039840F20041C4F209
:101A10000401884206D1FFE79DF80A00082801D892
:101A2000FFE708E049F21170C0F2000040F26511D2
:101A300000F07CFFFFE7FFE7FFE79DF80B0028B110
:101A4000FFE79DF80B00012801D1FFE708E049F20C
:101A50001170C0F200004FF4B37100F067FFFFE7B0
:101A6000FFE7FFE79DF8090028B1FFE79DF80900AF
:101A7000012801D1FFE708E049F21170C0F200002F
:101A800040F2671100F052FFFFE7FFE703989DF86F
:101A90000B1000EB81000C3001909DF8090001282B
:101AA0000AD1FFE79DF80A10012000FA01F201991E
:101AB00008681043086009E09DF80A10012000FA48
:101AC00001F20199086890430860FFE704B080BD07
:101AD00080B582B001908DF803108DF80220FFE7E9
:101AE00001980021C4F20401884205D1FFE79DF866
:101AF000030011280DD3FFE7019840F20041C4F222
:101B00000401884206D1FFE79DF80300082801D8A8
:101B1000FFE708E049F21170C0F200004FF4EA71EB
:101B200000F004FFFFE7FFE7FFE79DF8020028B1A0
:101B3000FFE79DF80200012801D1FFE708E049F224
:101B40001170C0F2000040F2D51100F0EFFEFFE787
:101B5000FFE79DF8020001280AD1FFE79DF8031076
:101B6000012000FA01F2019948691043486109E037
:101B70009DF80310012000FA01F201994869904391
:101B80004861FFE702B080BD80B582B00190ADF83A
:101B90000210FFE701980021C4F20401884208D036
:101BA000FFE7019840F20041C4F20401884201D1EC
:101BB000FFE708E049F21170C0F2000040F2C311E3
:101BC00000F0B4FEFFE7FFE7FFE7BDF8020040F4D6
:101BD000E060B0F5E06F01D1FFE708E049F2117075
:101BE000C0F200004FF4E27100F0A0FEFFE7FFE753
:101BF0000198408820F4E060BDF8021001F4E06133
:101C000008440199488002B080BD000080B584B0CE
:101C1000039002916FF002000190FFE7039800210A
:101C2000C4F20401884208D0FFE7039840F2004163
:101C3000C4F20401884201D1FFE707E049F21170C4
:101C4000C0F20000E52100F071FEFFE7FFE7029817
:101C5000002856D0FFE7FFE70298008878B1FFE739
:101C60000298008801280AD0FFE70298008802281D
:101C700005D0FFE702980088032801D1FFE707E0BD
:101C800049F21170C0F20000E82100F04FFEFFE7BA
:101C9000FFE7FFE702984088202809D0FFE7029875
:101CA0004088102804D0FFE70298408808B9FFE771
:101CB00007E049F21170C0F20000E92100F036FEA1
:101CC000FFE7FFE7FFE70298808828B1FFE7029867
:101CD0008088802801D1FFE707E049F21170C0F247
:101CE0000000EA2100F022FEFFE7FFE702990888E2
:101CF0004A8810438988084303994880002001904E
:101D0000FFE7019804B080BD80B584B003908DF8E2
:101D10000B108DF80A20FFE79DF80A00052801D373
:101D2000FFE708E049F21170C0F2000040F2A5118F
:101D300000F0FCFDFFE7FFE7FFE703980021C4F296
:101D40000401884205D1FFE79DF80B0011280DD34F
:101D5000FFE7039840F20041C4F20401884206D133
:101D6000FFE79DF80B00082801D8FFE708E049F2DB
:101D70001170C0F2000040F2A71100F0D7FDFFE79C
:101D8000FFE703989DF80B100844203001909DF860
:101D90000B000F2805D8FFE79DF80A00019908708D
:101DA00005E09DF80A00039981F83000FFE704B0D0
:101DB00080BD000080B548F68021C1F6FF7108683B
:101DC00040F400600860FFE70120022101F080F983
:101DD00008B9FFE7F8E7022000F094FE80BD00009C
:101DE00080B582B0019000200090019820B9FFE7F3
:101DF0006FF00200009003E0019801F06BFBFFE739
:101E0000009802B080BD000080B582B08DF8070058
:101E1000FFE79DF8070040B1FFE79DF8070040F09D
:101E20006900692801D1FFE708E049F23070C0F28B
:101E3000000040F28B5100F079FDFFE7FFE744F22C
:101E40003C00C4F2050000789DF807100840C0B2BD
:101E5000002818BF012002B080BD000080B582B00C
:101E60008DF8070000200090FFE79DF8070028B1DB
:101E7000FFE79DF80700012801D1FFE708E049F2DC
:101E80003070C0F2000040F2E54100F04FFDFFE786
:101E9000FFE7FFE744F2FE30C4F205000088C00708
:101EA00008B1FFE708E049F23070C0F2000040F2EC
:101EB000E64100F03BFDFFE7FFE79DF80700B0B902
:101EC000FFE744F22600C4F20500007800F00700A6
:101ED000052804D1FFE76FF00500009006E044F20A
:101EE0002A01C4F2050101200870FFE729E044F24D
:101EF0000010C4F205000068C1B20020B0EBD11F91
:101F000007D1FFE708204FF4805100F061FA0090FC
:101F100006E001204FF4805100F05AFA0090FFE7EC
:101F2000009868B9FFE744F22A01C4F205010020D5
:101F3000087020204FF4805100F04AFA0090FFE72B
:101F4000FFE7009802B080BD80B586B00590059887
:101F500020B9FFE76FF002000490D1E1FFE7059898
:101F600001790020B0EBD11F07D0FFE70598017978
:101F70000120B0EBD11F01D1FFE708E049F230703A
:101F8000C0F200004FF4976100F0D0FCFFE7FFE7DC
:101F9000FFE70598007900F01F000130182808D8E5
:101FA000FFE70598007900F01F00013008B1FFE756
:101FB00008E049F23070C0F2000040F2B94100F090
:101FC000B5FCFFE7FFE7FFE70598B0F805006FF302
:101FD0005F200130B0F5F07F0AD8FFE70598B0F830
:101FE00005006FF35F200130142801D3FFE708E0FC
:101FF00049F23070C0F2000040F2BA4100F096FCA5
:10200000FFE7FFE7FFE70598C0790104012000EB37
:10201000115010280AD8FFE70598C0790104012063
:1020200000EB1150022801D3FFE708E049F23070BD
:10203000C0F2000040F2BB4100F078FCFFE7FFE790
:10204000059801790020B0EBD11F06D1FFE741F2DE
:102050000020C0F27A00019006E048F20000C1F6CC
:10206000FF7000680190FFE701980599097901F078
:102070001F010131B0FBF1F0039003980599B1F80D
:1020800005106FF35F21013148430290FFE7039889
:1020900047F64001C0F27D11884209D8FFE7039856
:1020A00044F24021C0F20F01884201D3FFE708E06B
:1020B00049F23070C0F200004FF4986100F036FC35
:1020C000FFE7FFE7FFE7029843F60001C1F69C41F6
:1020D000884209D8FFE7029841F60041C0F64E61F8
:1020E000884201D3FFE708E049F23070C0F20000F7
:1020F00040F2C14100F01AFCFFE7FFE7FFE702985A
:102100000599C9790A04012101EB1251B0FBF1F0E4
:102110004CF20021C0F6EB31884211D8FFE702985B
:102120000599C9790A04012101EB1251B0FBF1F0C4
:102130004EF2C011C0F2E401884201D3FFE708E08B
:1021400049F23070C0F2000040F2C24100F0EEFBF4
:10215000FFE7FFE7FFE70598C07900F00F000130C7
:10216000102809D8FFE70598C07900F00F0001306A
:10217000022801D3FFE708E049F23070C0F2000006
:1021800040F2C34100F0D2FBFFE7FFE7FFE705980D
:10219000B0F80510012000EB113010280AD8FFE735
:1021A0000598B0F80510012000EB1130022801D38A
:1021B000FFE708E049F23070C0F2000040F2C4418D
:1021C00000F0B4FBFFE7FFE7FFE702980599B1F8DD
:1021D0000520012101EB1231B0FBF1F04CF200219E
:1021E000C0F6EB31884211D8FFE702980599B1F8A3
:1021F0000520012101EB1231B0FBF1F04EF2C011CC
:10220000C0F2E401884201D3FFE708E049F23070F0
:10221000C0F2000040F2C54100F088FBFFE7FFE795
:10222000FFE702980599C97901F00F010131B0FB70
:10223000F1F04CF20021C0F6EB31884210D8FFE7F4
:1022400002980599C97901F00F010131B0FBF1F055
:102250004EF2C011C0F2E401884201D3FFE708E06A
:1022600049F23070C0F2000040F2C64100F05EFB5F
:10227000FFE7FFE7FFE705980078012804D0FFE7B4
:102280000598007808B9FFE708E049F23070C0F21D
:1022900000004FF4996100F049FBFFE7FFE7FFE71B
:1022A00044F2FE30C4F205000088C00708B1FFE721
:1022B00008E049F23070C0F2000040F2C94100F07D
:1022C00035FBFFE7FFE744F20011C4F2050108689F
:1022D000059A1279D20962F3C71008600598406820
:1022E00008600598007828B9FFE70120FFF7B6FDE0
:1022F000049004E00020FFF7B1FD0490FFE7FFE742
:10230000049806B080BD000082B0019000200090CB
:10231000019820B9FFE76FF0020000903DE00199BD
:10232000002048600199087900F07F000871019948
:10233000087900F0E0000871019931F8050F8A78FA
:1023400000F47E4013308A700880019A32F8050F3D
:10235000917840EA0141012060F31F511180090C7E
:102360009170019A32F8051F937841EA03434FF6C2
:10237000FF7CC0F2F00C03EA0C0303F580331B0C66
:1023800093701180019A32F8051F937860F31F3122
:102390009370118001990870FFE7009802B07047B0
:1023A00080B582B0019000910198009902F054FD2F
:1023B00003F002FA02B080BD80B582B08DF807004C
:1023C0009DF8070002F094FF03F0F6F902B080BD1B
:1023D00080B584B08DF80F000291002001906FF05D
:1023E00007000090FFE70198029988420ED8FFE7A6
:1023F0009DF80F00FFF708FD012803D1FFE700203B
:10240000009003E0019801300190ECE7009804B0DF
:1024100080BD000080B582B08DF8070000200090DC
:10242000FFE79DF8070028B1FFE79DF807000128A6
:1024300001D1FFE708E049F23070C0F200004FF42C
:10244000677100F073FAFFE7FFE7FFE744F2FE3041
:10245000C4F205000088C00708B1FFE708E049F2B0
:102460003070C0F2000040F29D3100F05FFAFFE7EB
:10247000FFE79DF80700A8BBFFE744F22600C4F27F
:102480000500007800F00700032804D1FFE76FF093
:102490000500009025E044F20010C4F20500006839
:1024A000C1B20020B0EBD11F13D1FFE744F22A00E4
:1024B000C4F20500007820B9FFE76FF00500009036
:1024C00006E044F23201C4F2050101200870FFE782
:1024D00006E044F23201C4F2050101200870FFE772
:1024E000FFE70CE044F23201C4F20501002008705D
:1024F00008204FF48051FFF76BFF0090FFE7009832
:1025000002B080BD80B582B00190019820B9FFE78C
:102510006FF002000090CBE0FFE7019800780128FF
:1025200004D0FFE70198007808B9FFE708E049F216
:102530003070C0F200004FF45F7100F0F7F9FFE770
:10254000FFE7FFE70198407878B1FFE7019840780E
:1025500010280AD0FFE701984078202805D0FFE72F
:1025600001984078302801D1FFE708E049F2307047
:10257000C0F2000040F27D3100F0D8F9FFE7FFE73C
:10258000FFE70198807828B1FFE70198807840281C
:1025900001D1FFE708E049F23070C0F2000040F2DC
:1025A0007E3100F0C3F9FFE7FFE7FFE70198C0784D
:1025B000802804D0FFE70198C07808B9FFE708E059
:1025C00049F23070C0F2000040F27F3100F0AEF905
:1025D000FFE7FFE7FFE701980079012828D0FFE730
:1025E00001980079022823D0FFE701980079032899
:1025F0001ED0FFE701980079042819D0FFE7019861
:102600000079052814D0FFE70198007906280FD03B
:10261000FFE70198007907280AD0FFE701980079C1
:10262000082805D0FFE701980079092801D1FFE7C4
:1026300008E049F23070C0F200004FF4607100F021
:1026400075F9FFE7FFE7FFE744F2FE30C4F205004B
:102650000088C00708B1FFE708E049F23070C0F217
:10266000000040F2813100F061F9FFE7FFE70198D7
:10267000007944F2A201C4F2050108700198427881
:102680008178C0781043084344F21041C4F2050138
:1026900008700198007828B9FFE70120FFF7BAFE1B
:1026A000009004E00020FFF7B5FE0090FFE7FFE791
:1026B000009802B080BD000082B001900020009020
:1026C000019820B9FFE76FF0020000900EE0019939
:1026D00001200870019900208870019948700199C3
:1026E0008020C870019905200871FFE7009802B0AA
:1026F0007047000080B594B01390129101200790AC
:102700004FF0FF300690FFE713984DF20001C4F23E
:102710000101884218D0FFE713984DF20041C4F23E
:102720000101884210D0FFE7139841F20001C4F282
:102730000201884208D0FFE7139841F20041C4F239
:102740000201884201D1FFE708E049F63100C0F2FA
:10275000000040F2A51100F0E9F8FFE7FFE712984A
:10276000006810901298406811901098002800F0AE
:10277000DA80FFE71198002800F0D580FFE7109875
:1027800011998900B0FBF1F001380B900B98FF28EC
:1027900078D8FFE70B9812998860109A11988100F9
:1027A000B2FBF1F000FB11200A900A9828B9FFE76C
:1027B000129900200861069063E00B98411C4FF0CD
:1027C000000343F10000119AA1FB021C00FB02C0B0
:1027D000800040EA917089000E910F90DDF838E09A
:1027E0000F98000240EA1E61109A5FEA530C4FEA0C
:1027F000320010EB0E2041EB0C01FDF7A7FE8038F4
:10280000099009987F2838D8FFE709981299C8607D
:102810000E990F98000240EA116009020E910F9084
:102820001098099980314FF00002059242F10002A0
:10283000A0FB011300FB02300C910D900C980D9938
:1028400006F002FA039004910E980F9906F0FCF935
:10285000024603980B46049906F088F806F054F8EF
:102860000021CBF6807106F089FA0146059808919F
:102870000899129A1161069002E000200790FFE784
:10288000FFE7FFE7079800284CD1FFE7109800EB1F
:102890008000400011998900B0FBF1F005304CF642
:1028A000CD41CCF6CC41A0FB01014FF0FF3000EB55
:1028B000D1000B900B98FF2833D8FFE70B981299A3
:1028C00088600B98411C4FF00000029040F100001E
:1028D000119AA1FB021300FB0230800040EA9170C4
:1028E00089000E910F90109806F09AF900900191CE
:1028F0000E980F9906F0A8F9024600980B46019928
:1029000006F034F806F000F80021CBF6807106F0EE
:1029100035FA0146029808910899129A11610690B9
:10292000FFE7FFE7FFE7069814B080BD82B0019093
:102930000091FFE7FEE7000080B582B08DF8070048
:10294000FFE79DF8070028B1FFE79DF80700012881
:1029500001D1FFE708E049F24F70C0F2000040F2F9
:102960007111FFF7E3FFFFE7FFE7FFE740F20040E9
:10297000C4F201000068012801D1FFE708E049F234
:102980004F70C0F200004FF4B971FFF7CFFFFFE7BF
:10299000FFE79DF8070048F24011C4F220210860CB
:1029A00002B080BD80B582B08DF80700FFE79DF8CA
:1029B000070028B1FFE79DF80700012801D1FFE7D4
:1029C00008E049F24F70C0F2000040F26311FFF7D7
:1029D000ADFFFFE7FFE7FFE740F20040C4F2010070
:1029E0000068012801D1FFE708E049F24F70C0F20A
:1029F00000004FF4B271FFF799FFFFE7FFE79DF882
:102A0000070048F26011C4F22021086002B080BDC6
:102A100040F20041C4F2010100200860704700004C
:102A200040F20041C4F2010140F22310086043F279
:102A3000102008607047000080B584B0029000202C
:102A40000190FFE740F20040C4F201000068012855
:102A500001D1FFE708E049F24F70C0F2000040F2F8
:102A60004F11FFF763FFFFE7FFE7FFE70298F0284A
:102A700001D8FFE708E049F24F70C0F200004FF4C0
:102A8000A871FFF753FFFFE7FFE740F20841C4F2E8
:102A900001010868029A120962F307100860FFE753
:102AA000029840F20841C4F20101096801F0F00106
:102AB000884220D0FFE7019801300190019848F248
:102AC0000401C1F6FF71096844F22002C4F2050254
:102AD0001268C2F30262D14041F25972CDF2B712CC
:102AE000A1FB0221B0EB913F04D9FFE76FF0070093
:102AF000039003E0D4E700200390FFE7039804B0BD
:102B000080BD000080B582B00190FFE7019840B120
:102B1000FFE701984FF6FF710843884201D1FFE7B4
:102B200008E049F2CC70C0F2000040F20F21FFF73C
:102B3000FDFEFFE7FFE7019841F25801C4F20501ED
:102B4000086002B080BD000080B582B001908DF8B1
:102B50000310FFE7019850B1FFE701984FF6795154
:102B6000C0F60F710843884201D1FFE707E049F240
:102B70006E70C0F200008421FFF7D8FEFFE7FFE788
:102B8000FFE79DF8030028B1FFE79DF80300012847
:102B900001D1FFE707E049F26E70C0F20000852125
:102BA000FFF7C4FEFFE7FFE79DF80300012809D106
:102BB000FFE7019A48F20401C4F204010868904357
:102BC000086008E0019A48F20401C4F204010868B0
:102BD00010430860FFE702B080BD000080B582B0FE
:102BE00001908DF80310FFE7019840B1FFE70198CD
:102BF00041F203110843884201D1FFE707E049F29F
:102C00006E70C0F20000A821FFF790FEFFE7FFE71B
:102C1000FFE79DF8030028B1FFE79DF803000128B6
:102C200001D1FFE707E049F26E70C0F20000A92170
:102C3000FFF77CFEFFE7FFE79DF80300012809D1BD
:102C4000FFE7019A48F20C01C4F2040108689043BE
:102C5000086008E0019A48F20C01C4F20401086817
:102C600010430860FFE702B080BD000080B584B06B
:102C70008DF80F00ADF80C108DF80B20FFE743F630
:102C8000FC30C4F205000088C00708B1FFE708E087
:102C900049F28D70C0F2000040F28121FFF746FE3C
:102CA000FFE7FFE7FFE79DF80F00C8B1FFE79DF8DA
:102CB0000F00012814D0FFE79DF80F0002280FD065
:102CC000FFE79DF80F0003280AD0FFE79DF80F00EB
:102CD000042805D0FFE79DF80F00052801D1FFE784
:102CE00008E049F28D70C0F2000040F28221FFF747
:102CF0001DFEFFE7FFE7FFE7BDF80C0028B1FFE787
:102D0000BDF80C0008B1FFE708E049F28D70C0F291
:102D1000000040F28321FFF709FEFFE7FFE70020F4
:102D20008DF80300FFE79DF803000F2835D8FFE773
:102D3000BDF80C00C007F8B1FFE79DF80F00800157
:102D40009DF8031000EB810043F60041C4F2050139
:102D5000084401909DF80B00012806D1FFE7019976
:102D6000088840F40040088005E0019908886FF366
:102D7000DF300880FFE7FFE7BDF80C004008ADF842
:102D80000C00BDF80C0008B9FFE706E0FFE79DF86E
:102D9000030001308DF80300C5E704B080BD0000DA
:102DA00080B588B08DF81F00ADF81C100692002089
:102DB0000390069820B9FFE76FF00200039073E1DB
:102DC000FFE743F6FC30C4F205000088C00708B1F5
:102DD000FFE708E049F28D70C0F200004FF4807107
:102DE000FFF7A4FDFFE7FFE7FFE79DF81F00C8B16D
:102DF000FFE79DF81F00012814D0FFE79DF81F0092
:102E000002280FD0FFE79DF81F0003280AD0FFE734
:102E10009DF81F00042805D0FFE79DF81F00052836
:102E200001D1FFE708E049F28D70C0F2000040F2E6
:102E30000111FFF77BFDFFE7FFE7FFE7BDF81C008F
:102E400028B1FFE7BDF81C0008B1FFE708E049F230
:102E50008D70C0F200004FF48171FFF767FDFFE74E
:102E6000FFE7FFE70698008828B1FFE7069800888B
:102E7000012801D1FFE708E049F28D70C0F200009F
:102E800040F20311FFF752FDFFE7FFE7FFE7069867
:102E9000408828B1FFE706984088022801D1FFE763
:102EA00008E049F28D70C0F200004FF48271FFF724
:102EB0003DFDFFE7FFE7FFE70698808828B1FFE7C1
:102EC00006988088042801D1FFE708E049F28D7058
:102ED000C0F2000040F20511FFF728FDFFE7FFE711
:102EE000FFE70698C08850B1FFE70698C088102811
:102EF00005D0FFE70698C088202801D1FFE708E049
:102F000049F28D70C0F200004FF48371FFF70EFD9F
:102F1000FFE7FFE7FFE70698008930B1FFE7069873
:102F20000089B0F5804F01D1FFE708E049F28D70CC
:102F3000C0F2000040F20711FFF7F8FCFFE7FFE7DF
:102F4000FFE70698408928B1FFE7069840894028A6
:102F500001D1FFE708E049F28D70C0F200004FF4A4
:102F60008471FFF7E3FCFFE7FFE7FFE7069880893E
:102F700030B1FFE706988089B0F5007F01D1FFE707
:102F800008E049F28D70C0F2000040F20911FFF72D
:102F9000CDFCFFE7FFE7FFE70698C08930B1FFE708
:102FA0000698C089B0F5805F01D1FFE708E049F2DB
:102FB0008D70C0F200004FF48571FFF7B7FCFFE79A
:102FC000FFE7FFE70698008A30B1FFE70698008A1E
:102FD000B0F5004F01D1FFE708E049F28D70C0F273
:102FE000000040F20B11FFF7A1FCFFE7FFE7002014
:102FF0008DF81700FFE79DF817000F2853D8FFE75B
:10300000BDF81C00C007E8B3FFE7069901910888E6
:103010004A8810438A881043CA8810434A8910435B
:103020008A891043CA89104309890843ADF81400FE
:1030300045F27720ADF812000698018ABDF8140019
:103040000843ADF81400BDF8120040F40040ADF89C
:1030500012009DF81F0080019DF8171000EB810001
:1030600043F60041C4F2050108440290029800882A
:10307000BDF812209043BDF8141011400843029986
:103080000880FFE7BDF81C004008ADF81C00BDF843
:103090001C0008B9FFE706E0FFE79DF817000130C4
:1030A0008DF81700A7E7FFE7039808B080BD000080
:1030B00043F6FC31C4F205014FF425400880704707
:1030C00043F6FC31C4F205014AF201500880704712
:1030D00080B582B08DF80700ADF80410FFE79DF8C9
:1030E0000700C8B1FFE79DF80700012814D0FFE7EB
:1030F0009DF8070002280FD0FFE79DF8070003287E
:103100000AD0FFE79DF80700042805D0FFE79DF8E7
:103110000700052801D1FFE708E049F28D70C0F2F1
:1031200000004FF4FF71FFF701FCFFE7FFE7FFE747
:10313000BDF8040028B1FFE7BDF8040008B1FFE7BF
:1031400008E049F28D70C0F2000040F2FF11FFF775
:10315000EDFBFFE7FFE79DF80700010143F60000E4
:10316000C4F20500405ABDF80410084080B200289F
:1031700018BF012002B080BD80B584B08DF80F006B
:10318000ADF80C10ADF80A20FFE79DF80F00C8B1AC
:10319000FFE79DF80F00012814D0FFE79DF80F000E
:1031A00002280FD0FFE79DF80F0003280AD0FFE7A1
:1031B0009DF80F00042805D0FFE79DF80F000528B3
:1031C00001D1FFE708E049F28D70C0F200004FF432
:1031D000BE71FFF7ABFBFFE7FFE7FFE7BDF80C00B1
:1031E00028B1FFE7BDF80C0008B1FFE708E049F29D
:1031F0008D70C0F2000040F27D11FFF797FBFFE7F2
:10320000FFE7FFE7BDF80A0010280AD3FFE7BDF883
:103210000A00202806D3FFE7BDF80A003B2801D8A2
:10322000FFE708E049F28D70C0F200004FF4BF7173
:10323000FFF77CFBFFE7FFE7FFE743F6FC30C4F254
:1032400005000088C00708B1FFE708E049F28D706B
:10325000C0F2000040F27F11FFF768FBFFE7FFE7D5
:1032600000208DF80900FFE79DF809000F282CD8F1
:10327000FFE7BDF80C00C007B0B1FFE79DF80F00F5
:1032800080019DF8091000EB810043F60241C4F271
:1032900005010844019001980088BDF80A1061F307
:1032A000050001990880FFE7BDF80C004008ADF863
:1032B0000C00BDF80C0008B9FFE706E0FFE79DF839
:1032C000090001308DF80900CEE704B080BD000090
:1032D00080B584B0ADF80E00ADF80C108DF80B2061
:1032E0008DF80A30BDF90E00002805D4FFE7BDF9BE
:1032F0000E00532801DBFFE7FFE7BDF90E0000EBEE
:10330000400249F25841C0F200018818895C49091D
:10331000019104F063FC01460198BDF80C20FFF711
:103320002BFF9DF80B00012810D1FFE79DF80A0044
:1033300058B9FFE748F29810C1F6FF7049F2C5612D
:10334000C0F2000104F0B0FBFFE7FFE704B080BD6E
:1033500080B582B0ADF80600FFE7BDF8060090B179
:10336000FFE7BDF80600B0F5804F0CD0FFE7BDF8D1
:103370000600B0F5004F06D0FFE7BDF80600B0F537
:10338000404F01D1FFE708E049F28D70C0F2000024
:103390004FF4ED71FFF7CAFAFFE7FFE7FFE743F6E7
:1033A000FC30C4F205000088C00708B1FFE708E060
:1033B00049F28D70C0F2000040F2DB11FFF7B6FA5F
:1033C000FFE7FFE743F6F831C4F2050108886FF321
:1033D0009F30BDF8062002F440421044088002B03D
:1033E00080BD000083B0029000200190029820B9B7
:1033F000FFE76FF00200019014E0029900200090B6
:103400000880029948800299C8800299088202992E
:10341000088102994881029988810299C88102999C
:103420008880FFE7019803B07047000080B582B044
:103430008DF80700ADF80410FFE79DF80700C8B14C
:10344000FFE79DF80700012814D0FFE79DF807006B
:1034500002280FD0FFE79DF8070003280AD0FFE7F6
:103460009DF80700042805D0FFE79DF80700052810
:1034700001D1FFE708E049F28D70C0F2000040F290
:103480006D21FFF753FAFFE7FFE7FFE7BDF8040000
:1034900028B1FFE7BDF8040008B1FFE708E049F2F2
:1034A0008D70C0F2000040F26E21FFF73FFAFFE797
:1034B000FFE79DF8071043F60C00C4F2050000EB8F
:1034C00001100090BDF8042000990888104308807E
:1034D00002B080BD85B0049044F22600C4F205001D
:1034E000007800F007000146009105286BD800998C
:1034F000DFE801F0030B12171E2348F20000C1F6AB
:10350000FF700068049908605EE0049941F20020B1
:10351000C0F27A00086057E004994FF40040086058
:1035200052E0049941F20020C0F27A0008604BE0BA
:1035300004994FF40040086046E044F20010C4F2E1
:1035400005000168090F8DF806100168090A8DF859
:103550000710016801F01F018DF805100068C1B265
:103560000020B0EBD11F15D1FFE79DF80500411CED
:1035700041F20020C0F27A00B0FBF1F09DF8071094
:10358000013148439DF806100131B0FBF1F0049978
:10359000086017E048F20000C1F6FF700068029072
:1035A00002989DF805100131B0FBF1F09DF807106D
:1035B000013148439DF806100131B0FBF1F0049948
:1035C0000860FFE700E0FFE744F22000C4F20500D6
:1035D000039000680399086004990868039AD278F8
:1035E00002F00702D040486004990868039A1278F4
:1035F000C2F30212D040C86004990868039A927816
:1036000002F00702D040886104990868039A527852
:10361000C2F30212D040486104990868039A927874
:10362000C2F30212D040C86104990868039A127864
:1036300002F00702D040886004990868039A527823
:1036400002F00702D040086105B0704780B59AB01B
:103650001990189117920020169011900221109144
:103660000B90189818B1FFE7179820B9FFE76FF093
:103670000200169024E1FFE719984EF20001C4F20F
:103680000401884210D0FFE719984EF20041C4F2BD
:103690000401884208D0FFE719984EF60001C4F2F1
:1036A0000401884201D1FFE708E049F2AD70C0F2A1
:1036B00000004FF48A71FFF739F9FFE7FFE7FFE7F2
:1036C0001898406850B1FFE71898406841F680218B
:1036D000C0F20601884201D8FFE708E049F2AD7068
:1036E000C0F2000040F21511FFF720F9FFE7FFE7F5
:1036F000FFE718980068072801D8FFE708E049F2BB
:10370000AD70C0F200004FF48B71FFF70FF9FFE7C7
:10371000FFE748F20400C1F6FF70006844F22001A0
:10372000C4F205010968C1F30231C8401590189828
:1037300001680120884014901898806813901898A8
:10374000406812901998006BC006002807D5FFE763
:103750001998006B00F0030001301190FFE71898F2
:10376000006818B9FFE703201090FFE714980028BD
:1037700000F0A180FFE7159805F0AEFC05901298C7
:1037800005F0AAFC0146059805F090FB06901498F8
:1037900005F0A2FC0146069805F088FB0E901098F3
:1037A00005F09AFC0146084605F0E8FA07901198E2
:1037B00005F092FC0146084605F0E0FA014607983C
:1037C00005F0DCFA0890139805F086FC014608988D
:1037D00005F0D4FA0D900E980D9905F045FD0C906A
:1037E0000E98099005F058FC05F076FC0146099802
:1037F00005F03AFD4FF07C5105F045FB58B9FFE765
:103800000E9805F049FC05F067FC4FF07E5105F07D
:10381000B5FA0E9006E00E9805F03EFC05F05CFC53
:103820000E90FFE70E980D9905F018FB20B9FFE701
:103830006FF0020016903DE00020C4F278200A905C
:103840000C980A9905F018FB20B9FFE76FF0020009
:1038500016902EE0159801900E9805F01DFC01467B
:103860000198B0FBF1F01499B0FBF1F00F901298B1
:1038700005F032FC02900F9805F02EFC01460298EC
:10388000039105F0F1FC039905F010FB0B901898DB
:103890000068000404900C9805F0FEFB01460498B3
:1038A00040EA5100A1EB510140EA01201999C86298
:1038B000FFE7FFE703E06FF002001690FFE7FFE786
:1038C000179838B1FFE7169820B9FFE70B981799BA
:1038D0000860FFE716981AB080BD000080B582B07E
:1038E00001900091FFE701984EF20001C4F204013B
:1038F000884210D0FFE701984EF20041C4F2040163
:10390000884208D0FFE701984EF60001C4F2040196
:10391000884201D1FFE708E049F2AD70C0F2000033
:1039200040F28D21FFF702F8FFE7FFE7FFE700987D
:1039300050B1FFE7009845F25F21C0F2F001084363
:10394000884201D1FFE708E049F2AD70C0F2000003
:1039500040F28E21FEF7EAFFFFE7FFE700980199AA
:10396000086202B080BD000080B582B001908DF881
:103970000310FFE701984EF20001C4F204018842EF
:1039800010D0FFE701984EF20041C4F204018842D2
:1039900008D0FFE701984EF60001C4F20401884206
:1039A00001D1FFE708E049F2AD70C0F200004FF42A
:1039B000EF71FEF7BBFFFFE7FFE7FFE79DF80300AE
:1039C00028B1FFE79DF80300012801D1FFE708E0D7
:1039D00049F2AD70C0F2000040F2DF11FEF7A6FF21
:1039E000FFE7FFE7019800689DF8031061F300000E
:1039F0000199086002B080BD80B582B00190FFE7F8
:103A000001984EF20001C4F20401884210D0FFE791
:103A100001984EF20041C4F20401884208D0FFE749
:103A200001984EF60001C4F20401884201D1FFE77B
:103A300008E049F2AD70C0F200004FF4AE71FEF73D
:103A400075FFFFE7FFE70199086820F001000860B3
:103A50000199086840F400400860002002B080BD71
:103A600080B582B001900091FFE701984EF200010D
:103A7000C4F20401884210D0FFE701984EF20041E1
:103A8000C4F20401884208D0FFE701984EF6000115
:103A9000C4F20401884201D1FFE708E049F2AD70A9
:103AA000C0F200004FF41F71FEF740FFFFE7FFE791
:103AB000FFE7009850B1FFE7009845F2DF61C0F2E0
:103AC000F7010843884201D1FFE708E049F2AD70F1
:103AD000C0F2000040F27D21FEF728FFFFE7FFE77C
:103AE0000198C06900990840002818BF012002B061
:103AF00080BD000080B584B00390029101920298CD
:103B000020B9FFE76FF00200009077E0FFE703982D
:103B10004EF20001C4F20401884210D0FFE703987E
:103B20004EF20041C4F20401884208D0FFE7039836
:103B30004EF60001C4F20401884201D1FFE708E01B
:103B400049F2AD70C0F200004FF4C471FEF7EEFE12
:103B5000FFE7FFE7FFE70298406850B1FFE70298F0
:103B6000406841F68021C0F20601884201D8FFE793
:103B700008E049F2AD70C0F2000040F28911FEF792
:103B8000D5FEFFE7FFE7FFE702980068072801D8A6
:103B9000FFE708E049F2AD70C0F200004FF4C571D4
:103BA000FEF7C4FEFFE7FFE70399086820F0010075
:103BB00008600399086840F40040086003990868A9
:103BC00040F00100086003980299019AFFF73EFD5A
:103BD00000900399086820F0400008600399086885
:103BE00020F4004008600399086820F00100086094
:103BF0000399086920F480500861FFE7009804B039
:103C000080BD000080B584B0039002918DF807203C
:103C1000FFE703984EF20001C4F20401884210D07D
:103C2000FFE703984EF20041C4F20401884208D035
:103C3000FFE703984EF60001C4F20401884201D167
:103C4000FFE708E049F2AD70C0F2000040F2AE219B
:103C5000FEF76CFEFFE7FFE7FFE7029850B1FFE7D2
:103C6000029845F2DF21C0F2F0010843884201D1F9
:103C7000FFE708E049F2AD70C0F2000040F2AF216A
:103C8000FEF754FEFFE7FFE7FFE79DF8070028B1C6
:103C9000FFE79DF80700012801D1FFE708E049F29E
:103CA000AD70C0F200004FF42C71FEF73FFEFFE74D
:103CB000FFE79DF80700012806D1FFE7029A039964
:103CC00048681043486005E0029A039948689043A9
:103CD0004860FFE704B080BD80B582B00190FFE787
:103CE00001984EF20001C4F20401884210D0FFE7AF
:103CF00001984EF20041C4F20401884208D0FFE767
:103D000001984EF60001C4F20401884201D1FFE798
:103D100008E049F2AD70C0F2000040F2D121FEF798
:103D200005FEFFE7FFE7019890F8280002B080BD8C
:103D300080B586B00590049103920293059804998A
:103D400000EB810010300190FFE705984EF2000172
:103D5000C4F20401884210D0FFE705984EF20041FA
:103D6000C4F20401884208D0FFE705984EF600012E
:103D7000C4F20401884201D1FFE708E049F2AD70C6
:103D8000C0F200004FF4D771FEF7D0FDFFE7FFE768
:103D9000FFE7049820B1FFE70498012801D1FFE76D
:103DA00008E049F2AD70C0F2000040F2AF11FEF73A
:103DB000BDFDFFE7FFE7FFE70398B0F5805F04D1A3
:103DC000FFE7029880280DD3FFE70398B0F5104F66
:103DD00005D1FFE70298B0F5806F03D3FFE70398A2
:103DE00008B9FFE708E049F2AD70C0F200004FF4F7
:103DF000D871FEF79BFDFFE7FFE7039830B9FFE7B7
:103E00000199086820F48050086020E00398B0F51C
:103E1000104F0DD1FFE70198006849F2FF3290433F
:103E20000399029B194311400844019908600DE071
:103E30000198006849F2FF3290430399029B41EADE
:103E400043011140084401990860FFE7FFE706B00D
:103E500080BD000082B0019000200090019820B940
:103E6000FFE76FF00200009009E001994CF250303A
:103E7000486001990020886001990860FFE7009878
:103E800002B0704780B582B001908DF80310FFE753
:103E900001984EF20001C4F20401884210D0FFE7FD
:103EA00001984EF20041C4F20401884208D0FFE7B5
:103EB00001984EF60001C4F20401884201D1FFE7E7
:103EC00008E049F2AD70C0F2000040F2C321FEF7F5
:103ED0002DFDFFE7FFE79DF80300019981F824001D
:103EE00002B080BD80B584B003900020019003989B
:103EF00020B9FFE76FF00200019071E0FFE703983F
:103F00000088B0F5007F01DAFFE707E049F2CC70E6
:103F1000C0F20000CD21FEF709FDFFE7FFE703999E
:103F20000888400900EB4002202000EB4200B1F974
:103F3000021088420DD8FFE703990888400900EB7A
:103F40004002252000EB4200B1F9021088420AD25B
:103F5000FFE70398B0F90200202804D3FFE76FF0D1
:103F6000020001903BE00398B0F9021041F25C00BE
:103F7000C4F2050000EB81000290029800686FF324
:103F80005F2040F2FF1188420FD1FFE703980088BD
:103F90000299086003994868B1F9022048F6800147
:103FA000C1F6FF7141F8220018E0039800880299D9
:103FB00009686FF35F2188420BD1FFE703994868D6
:103FC000B1F9022048F68001C1F6FF7141F82200E4
:103FD00003E06FF001000190FFE7FFE7FFE7FFE775
:103FE000019804B080BD000080B548F68000C1F69D
:103FF000FF7000688047BFF34F8F80BD80B548F6E3
:104000008000C1F6FF7040688047BFF34F8F80BDCE
:1040100080B548F68000C1F6FF7080688047BFF326
:104020004F8F80BD80B548F68000C1F6FF70C06834
:104030008047BFF34F8F80BD80B548F68000C1F642
:10404000FF7000698047BFF34F8F80BD80B548F691
:104050008000C1F6FF7040698047BFF34F8F80BD7D
:1040600080B548F68000C1F6FF7080698047BFF3D5
:104070004F8F80BD80B548F68000C1F6FF70C069E3
:104080008047BFF34F8F80BD80B548F68000C1F6F2
:10409000FF70006A8047BFF34F8F80BD80B548F640
:1040A0008000C1F6FF70406A8047BFF34F8F80BD2C
:1040B00080B548F68000C1F6FF70806A8047BFF384
:1040C0004F8F80BD80B548F68000C1F6FF70C06A92
:1040D0008047BFF34F8F80BD80B548F68000C1F6A2
:1040E000FF70006B8047BFF34F8F80BD80B548F6EF
:1040F0008000C1F6FF70406B8047BFF34F8F80BDDB
:1041000080B548F68000C1F6FF70806B8047BFF332
:104110004F8F80BD80B548F68000C1F6FF70C06B40
:104120008047BFF34F8F80BD80B548F68000C1F651
:10413000FF70006C8047BFF34F8F80BD80B548F69D
:104140008000C1F6FF70406C8047BFF34F8F80BD89
:1041500080B548F68000C1F6FF70806C8047BFF3E1
:104160004F8F80BD80B548F68000C1F6FF70C06CEF
:104170008047BFF34F8F80BD80B548F68000C1F601
:10418000FF70006D8047BFF34F8F80BD80B548F64C
:104190008000C1F6FF70406D8047BFF34F8F80BD38
:1041A00080B548F68000C1F6FF70806D8047BFF390
:1041B0004F8F80BD80B548F68000C1F6FF70C06D9E
:1041C0008047BFF34F8F80BD80B548F68000C1F6B1
:1041D000FF70006E8047BFF34F8F80BD80B548F6FB
:1041E0008000C1F6FF70406E8047BFF34F8F80BDE7
:1041F00080B548F68000C1F6FF70806E8047BFF33F
:104200004F8F80BD80B548F68000C1F6FF70C06E4C
:104210008047BFF34F8F80BD80B548F68000C1F660
:10422000FF70006F8047BFF34F8F80BD80B548F6A9
:104230008000C1F6FF70406F8047BFF34F8F80BD95
:1042400080B548F68000C1F6FF70806F8047BFF3ED
:104250004F8F80BD80B548F68000C1F6FF70C06FFB
:104260008047BFF34F8F80BD80B548F68000C1F610
:10427000FF70D0F880008047BFF34F8F80BD0000F3
:1042800080B548F68000C1F6FF70D0F88400804702
:10429000BFF34F8F80BD000080B548F68000C1F6A7
:1042A000FF70D0F888008047BFF34F8F80BD0000BB
:1042B00080B548F68000C1F6FF70D0F88C008047CA
:1042C000BFF34F8F80BD000080B548F68000C1F677
:1042D000FF70D0F890008047BFF34F8F80BD000083
:1042E00080B548F68000C1F6FF70D0F89400804792
:1042F000BFF34F8F80BD000080B548F68000C1F647
:10430000FF70D0F898008047BFF34F8F80BD00004A
:1043100080B548F68000C1F6FF70D0F89C00804759
:10432000BFF34F8F80BD000080B548F68000C1F616
:10433000FF70D0F8A0008047BFF34F8F80BD000012
:1043400080B548F68000C1F6FF70D0F8A400804721
:10435000BFF34F8F80BD000080B548F68000C1F6E6
:10436000FF70D0F8A8008047BFF34F8F80BD0000DA
:1043700080B548F68000C1F6FF70D0F8AC008047E9
:10438000BFF34F8F80BD000080B548F68000C1F6B6
:10439000FF70D0F8B0008047BFF34F8F80BD0000A2
:1043A00080B548F68000C1F6FF70D0F8B4008047B1
:1043B000BFF34F8F80BD000080B548F68000C1F686
:1043C000FF70D0F8B8008047BFF34F8F80BD00006A
:1043D00080B548F68000C1F6FF70D0F8BC00804779
:1043E000BFF34F8F80BD000080B548F68000C1F656
:1043F000FF70D0F8C0008047BFF34F8F80BD000032
:1044000080B548F68000C1F6FF70D0F8C400804740
:10441000BFF34F8F80BD000080B548F68000C1F625
:10442000FF70D0F8C8008047BFF34F8F80BD0000F9
:1044300080B548F68000C1F6FF70D0F8CC00804708
:10444000BFF34F8F80BD000080B548F68000C1F6F5
:10445000FF70D0F8D0008047BFF34F8F80BD0000C1
:1044600080B548F68000C1F6FF70D0F8D4008047D0
:10447000BFF34F8F80BD000080B548F68000C1F6C5
:10448000FF70D0F8D8008047BFF34F8F80BD000089
:1044900080B548F68000C1F6FF70D0F8DC00804798
:1044A000BFF34F8F80BD000080B548F68000C1F695
:1044B000FF70D0F8E0008047BFF34F8F80BD000051
:1044C00080B548F68000C1F6FF70D0F8E400804760
:1044D000BFF34F8F80BD000080B548F68000C1F665
:1044E000FF70D0F8E8008047BFF34F8F80BD000019
:1044F00080B548F68000C1F6FF70D0F8EC00804728
:10450000BFF34F8F80BD000080B548F68000C1F634
:10451000FF70D0F8F0008047BFF34F8F80BD0000E0
:1045200080B548F68000C1F6FF70D0F8F4008047EF
:10453000BFF34F8F80BD000080B548F68000C1F604
:10454000FF70D0F8F8008047BFF34F8F80BD0000A8
:1045500080B548F68000C1F6FF70D0F8FC008047B7
:10456000BFF34F8F80BD000080B548F68000C1F6D4
:10457000FF70D0F800018047BFF34F8F80BD00006F
:1045800080B548F68000C1F6FF70D0F8040180477E
:10459000BFF34F8F80BD000080B548F68000C1F6A4
:1045A000FF70D0F808018047BFF34F8F80BD000037
:1045B00080B548F68000C1F6FF70D0F80C01804746
:1045C000BFF34F8F80BD000080B548F68000C1F674
:1045D000FF70D0F810018047BFF34F8F80BD0000FF
:1045E00080B548F68000C1F6FF70D0F8140180470E
:1045F000BFF34F8F80BD000080B548F68000C1F644
:10460000FF70D0F818018047BFF34F8F80BD0000C6
:1046100080B548F68000C1F6FF70D0F81C018047D5
:10462000BFF34F8F80BD000080B548F68000C1F613
:10463000FF70D0F820018047BFF34F8F80BD00008E
:1046400080B548F68000C1F6FF70D0F8240180479D
:10465000BFF34F8F80BD000080B548F68000C1F6E3
:10466000FF70D0F828018047BFF34F8F80BD000056
:1046700080B548F68000C1F6FF70D0F82C01804765
:10468000BFF34F8F80BD000080B548F68000C1F6B3
:10469000FF70D0F830018047BFF34F8F80BD00001E
:1046A00080B548F68000C1F6FF70D0F8340180472D
:1046B000BFF34F8F80BD000080B548F68000C1F683
:1046C000FF70D0F838018047BFF34F8F80BD0000E6
:1046D00080B548F68000C1F6FF70D0F83C018047F5
:1046E000BFF34F8F80BD000080B548F68000C1F653
:1046F000FF70D0F840018047BFF34F8F80BD0000AE
:1047000080B548F68000C1F6FF70D0F844018047BC
:10471000BFF34F8F80BD000080B548F68000C1F622
:10472000FF70D0F848018047BFF34F8F80BD000075
:1047300080B548F68000C1F6FF70D0F84C01804784
:10474000BFF34F8F80BD000080B548F68000C1F6F2
:10475000FF70D0F850018047BFF34F8F80BD00003D
:1047600080B548F68000C1F6FF70D0F8540180474C
:10477000BFF34F8F80BD000080B548F68000C1F6C2
:10478000FF70D0F858018047BFF34F8F80BD000005
:1047900080B548F68000C1F6FF70D0F85C01804714
:1047A000BFF34F8F80BD000080B548F68000C1F692
:1047B000FF70D0F860018047BFF34F8F80BD0000CD
:1047C00080B548F68000C1F6FF70D0F864018047DC
:1047D000BFF34F8F80BD000080B548F68000C1F662
:1047E000FF70D0F868018047BFF34F8F80BD000095
:1047F00080B548F68000C1F6FF70D0F86C018047A4
:10480000BFF34F8F80BD000080B548F68000C1F631
:10481000FF70D0F870018047BFF34F8F80BD00005C
:1048200080B548F68000C1F6FF70D0F8740180476B
:10483000BFF34F8F80BD000080B548F68000C1F601
:10484000FF70D0F878018047BFF34F8F80BD000024
:1048500080B548F68000C1F6FF70D0F87C01804733
:10486000BFF34F8F80BD000080B548F68000C1F6D1
:10487000FF70D0F880018047BFF34F8F80BD0000EC
:1048800080B548F68000C1F6FF70D0F884018047FB
:10489000BFF34F8F80BD000080B548F68000C1F6A1
:1048A000FF70D0F888018047BFF34F8F80BD0000B4
:1048B00080B548F68000C1F6FF70D0F88C018047C3
:1048C000BFF34F8F80BD000080B548F68000C1F671
:1048D000FF70D0F890018047BFF34F8F80BD00007C
:1048E00080B548F68000C1F6FF70D0F8940180478B
:1048F000BFF34F8F80BD000080B548F68000C1F641
:10490000FF70D0F898018047BFF34F8F80BD000043
:1049100080B548F68000C1F6FF70D0F89C01804752
:10492000BFF34F8F80BD000080B548F68000C1F610
:10493000FF70D0F8A0018047BFF34F8F80BD00000B
:1049400080B548F68000C1F6FF70D0F8A40180471A
:10495000BFF34F8F80BD000080B548F68000C1F6E0
:10496000FF70D0F8A8018047BFF34F8F80BD0000D3
:1049700080B548F68000C1F6FF70D0F8AC018047E2
:10498000BFF34F8F80BD000080B548F68000C1F6B0
:10499000FF70D0F8B0018047BFF34F8F80BD00009B
:1049A00080B548F68000C1F6FF70D0F8B4018047AA
:1049B000BFF34F8F80BD000080B548F68000C1F680
:1049C000FF70D0F8B8018047BFF34F8F80BD000063
:1049D00080B548F68000C1F6FF70D0F8BC01804772
:1049E000BFF34F8F80BD000080B548F68000C1F650
:1049F000FF70D0F8C0018047BFF34F8F80BD00002B
:104A000080B548F68000C1F6FF70D0F8C401804739
:104A1000BFF34F8F80BD000080B548F68000C1F61F
:104A2000FF70D0F8C8018047BFF34F8F80BD0000F2
:104A300080B548F68000C1F6FF70D0F8CC01804701
:104A4000BFF34F8F80BD000080B548F68000C1F6EF
:104A5000FF70D0F8D0018047BFF34F8F80BD0000BA
:104A600080B548F68000C1F6FF70D0F8D4018047C9
:104A7000BFF34F8F80BD000080B548F68000C1F6BF
:104A8000FF70D0F8D8018047BFF34F8F80BD000082
:104A900080B548F68000C1F6FF70D0F8DC01804791
:104AA000BFF34F8F80BD000080B548F68000C1F68F
:104AB000FF70D0F8E0018047BFF34F8F80BD00004A
:104AC00080B548F68000C1F6FF70D0F8E401804759
:104AD000BFF34F8F80BD000080B548F68000C1F65F
:104AE000FF70D0F8E8018047BFF34F8F80BD000012
:104AF00080B548F68000C1F6FF70D0F8EC01804721
:104B0000BFF34F8F80BD000080B548F68000C1F62E
:104B1000FF70D0F8F0018047BFF34F8F80BD0000D9
:104B200080B548F68000C1F6FF70D0F8F4018047E8
:104B3000BFF34F8F80BD000080B548F68000C1F6FE
:104B4000FF70D0F8F8018047BFF34F8F80BD0000A1
:104B500080B548F68000C1F6FF70D0F8FC018047B0
:104B6000BFF34F8F80BD000080B582B001909DF8EB
:104B70000400C00718B1FFE7FDF752FFFFE79DF8FB
:104B800004008007002803D5FFE700F073F8FFE773
:104B90009DF804004007002803D5FFE7FEF790FAD0
:104BA000FFE79DF80400C006002805D5FFE74AF29C
:104BB000085000F0A3F8FFE79DF804004006002825
:104BC00005D5FFE74AF2035000F098F8FFE79DF89B
:104BD00004000006002803D5FFE700F0A9F8FFE76E
:104BE00002B080BD80B582B001909DF80400C0077E
:104BF00018B1FFE7FDF70CFFFFE79DF80400800701
:104C0000002803D5FFE700F02BF8FFE79DF804002C
:104C10004007002803D5FFE7FEF74AFAFFE79DF8B3
:104C20000400C006002805D5FFE74AF2085000F04E
:104C300055F8FFE79DF804004006002805D5FFE77A
:104C40004AF2035000F04AF8FFE79DF8040000061E
:104C5000002803D5FFE700F05FF8FFE702B080BD52
:104C600048F21001C4F204010020CAF2A550086005
:104C70007047000048F21001C4F204010120CAF29A
:104C8000A55008607047000080B5FFE744F2FE3091
:104C9000C4F2050000888007002801D5FFE708E07E
:104CA00049F2F270C0F2000040F2AE41FDF73EFE64
:104CB000FFE7FFE744F20241C4F20501087800F083
:104CC000C0000F30087044F20F41C4F205011020FB
:104CD00008701E2003F0BCF8002080BD81B0ADF844
:104CE0000200BDF8022044F2FE31C4F2050108883A
:104CF000904340F42540088001B0704781B0ADF882
:104D00000200BDF8022044F2FE31C4F20501088819
:104D10001043088001B0704740F60401C4F2050159
:104D20007620086040F60C01C4F205010860704767
:104D300040F60401C4F205017720086040F60C013A
:104D4000C4F205010860704780B584B003900291F9
:104D5000019200208DF80300FFE7039838B1FFE7C8
:104D6000039840F00F000F2801D1FFE707E049F654
:104D70001100C0F20000C721FDF7D8FDFFE7FFE7F3
:104D8000FFE70298072801D8FFE707E049F611007E
:104D9000C0F20000C821FDF7C9FDFFE7FFE7FFE70C
:104DA0000198072801D8FFE707E049F61100C0F293
:104DB0000000C921FDF7BAFDFFE7FFE7FFE740F676
:104DC0000400C4F205000068772801D1FFE707E07E
:104DD00049F61100C0F20000CA21FDF7A7FDFFE768
:104DE000FFE7FFE70398A8B3FFE79DF80C00C007B3
:104DF00038B3FFE79DF80300C0008DF801009DF86F
:104E0000010004308DF8020040F60001C4F20501F3
:104E100008689DF802C0072303FA0CF29DF801E030
:104E200003FA0EF313439843029A02FA0CF2DDF8E8
:104E300004C00CFA0EFC42EA0C021A40104308604F
:104E4000FFE70398400803909DF8030001308DF8B8
:104E50000300C7E704B080BD80B588B00790069115
:104E600000208DF8170048F20000C4F2040000682A
:104E7000049048F20400C4F204000068039048F271
:104E80000800C4F204000068029048F20C00C4F26A
:104E9000040000680190FFE79DF81B00400750B335
:104EA000FFE7069800F0E060B0F1807F23D0FFE7D5
:104EB000069800F0E060B0F1007F1CD0FFE7069894
:104EC00000F0E060B0F1407F15D0FFE7069800F0F9
:104ED000E060B0F1806F0ED0FFE7069800F0E06070
:104EE000B0F1A06F07D0FFE7069800F0E060B0F1E6
:104EF000C06F01D1FFE708E049F23070C0F2000056
:104F000040F2A121FDF712FDFFE7FFE7FFE79DF863
:104F1000180010F0700F24D0FFE7069800F0700022
:104F200010281ED0FFE7069800F07000202818D047
:104F3000FFE7069800F07000302812D0FFE70698CF
:104F400000F0700040280CD0FFE7069800F07000D9
:104F5000502806D0FFE7069800F07000602801D1C5
:104F6000FFE708E049F23070C0F2000040F2A221F1
:104F7000FDF7DCFCFFE7FFE7FFE79DF81A004007BD
:104F800050B3FFE7069800F4E020B0F5803F23D04F
:104F9000FFE7069800F4E020B0F5003F1CD0FFE7E3
:104FA000069800F4E020B0F5403F15D0FFE70698E2
:104FB00000F4E020B0F5802F0ED0FFE7069800F453
:104FC000E020B0F5A02F07D0FFE7069800F4E0201E
:104FD000B0F5C02F01D1FFE708E049F23070C0F210
:104FE000000040F2A321FDF7A1FCFFE7FFE7FFE788
:104FF0009DF81A0010F0700F2AD0FFE7069800F411
:10500000E000B0F5801F23D0FFE7069800F4E00031
:10501000B0F5001F1CD0FFE7069800F4E000B0F5E3
:10502000401F15D0FFE7069800F4E000B0F5800FB0
:105030000ED0FFE7069800F4E000B0F5A00F07D00F
:10504000FFE7069800F4E000B0F5C00F01D1FFE7DC
:1050500008E049F23070C0F200004FF42971FDF70A
:1050600065FCFFE7FFE7FFE79DF81800400720B366
:10507000FFE7069800F0070001281ED0FFE706981A
:1050800000F00700022818D0FFE7069800F007009C
:10509000032812D0FFE7069800F0070004280CD080
:1050A000FFE7069800F00700052806D0FFE70698FE
:1050B00000F00700062801D1FFE708E049F2307050
:1050C000C0F2000040F2A521FDF730FCFFE7FFE74A
:1050D000FFE79DF81900400750B3FFE7069800F47A
:1050E000E060B0F5807F23D0FFE7069800F4E06031
:1050F000B0F5007F1CD0FFE7069800F4E060B0F543
:10510000407F15D0FFE7069800F4E060B0F5806FAF
:105110000ED0FFE7069800F4E060B0F5A06F07D06E
:10512000FFE7069800F4E060B0F5C06F01D1FFE73B
:1051300008E049F23070C0F2000040F2A621FDF70D
:10514000F5FBFFE7FFE7FFE79DF8190010F0700F90
:105150002AD0FFE7069800F4E040B0F5805F23D046
:10516000FFE7069800F4E040B0F5005F1CD0FFE7D1
:10517000069800F4E040B0F5405F15D0FFE70698D0
:1051800000F4E040B0F5804F0ED0FFE7069800F441
:10519000E040B0F5A04F07D0FFE7069800F4E040EC
:1051A000B0F5C04F01D1FFE708E049F23070C0F21E
:1051B000000040F2A721FDF7B9FBFFE7FFE7FFE79B
:1051C000079847F27771C0F27771084201D0FFE784
:1051D00008E049F23070C0F200004FF42A71FDF788
:1051E000A5FBFFE7FFE7FFE744F2FE30C4F205004E
:1051F0000088C00708B1FFE708E049F23070C0F24C
:10520000000040F2A921FDF791FBFFE7FFE744F220
:105210002600C4F20500007800F00700052835D10B
:10522000FFE701208DF81700FFE748F21000C4F2F5
:1052300004000068C00708B1FFE708E049F23070D9
:10524000C0F200004FF42C71FDF770FBFFE7FFE7A1
:1052500048F20001C4F204014FF6EE20CFF6FF70D1
:10526000086048F20401C4F204014FF0FF30086006
:1052700048F20801C4F20401086048F20C01C4F2CB
:10528000040108601E2002F0E3FDFFE744F2200164
:10529000C4F205010868079B9843069A1A40104318
:1052A00008601E2002F0D4FD9DF8170001281CD1D3
:1052B000FFE7049848F20001C4F204010860039873
:1052C00048F20401C4F204010860029848F208019F
:1052D000C4F204010860019848F20C01C4F2040110
:1052E00008601E2002F0B4FDFFE708B080BD00009A
:1052F00080B586B08DF8170000208DF8160048F2B2
:105300000000C4F204000068049048F20400C4F2F3
:1053100004000068039048F20800C4F2040000682A
:10532000029048F20C00C4F2040000680190FFE70C
:105330009DF81700C8B1FFE79DF81700012814D0A9
:10534000FFE79DF8170002280FD0FFE79DF8170030
:1053500003280AD0FFE79DF81700042805D0FFE7CF
:105360009DF81700052801D1FFE708E049F23070E9
:10537000C0F2000040F23721FDF7D8FAFFE7FFE75F
:10538000FFE744F2FE30C4F205000088C00708B110
:10539000FFE708E049F23070C0F200004FF40E71F0
:1053A000FDF7C4FAFFE7FFE744F22600C4F2050068
:1053B000007800F00700052805D0FFE79DF81700EA
:1053C000052835D1FFE701208DF81600FFE748F2E8
:1053D0001000C4F204000068C00708B1FFE708E04D
:1053E00049F23070C0F200004FF41071FDF79EFAE0
:1053F000FFE7FFE748F20001C4F204014FF6EE2098
:10540000CFF6FF70086048F20401C4F204014FF0C7
:10541000FF30086048F20801C4F20401086048F255
:105420000C01C4F2040108601E2002F011FDFFE728
:105430009DF8170044F22601C4F2050108701E20F1
:1054400002F006FD9DF8160001281CD1FFE7049824
:1054500048F20001C4F204010860039848F2040114
:10546000C4F204010860029848F20801C4F2040181
:105470000860019848F20C01C4F2040108601E2083
:1054800002F0E6FCFFE706B080BD000080B59AB0F0
:105490001990189149F2B453C0F200031868596882
:1054A0009A68DB680B930A92099108904FF0FF30DD
:1054B0000790FFE719984DF20001C4F201018842FC
:1054C00018D0FFE719984DF20041C4F2010188425B
:1054D00010D0FFE7199841F20001C4F2020188429E
:1054E00008D0FFE7199841F20041C4F20201884256
:1054F00001D1FFE708E049F63100C0F2000040F2B8
:10550000F311FDF713FAFFE7FFE71898006816900C
:105510001898406817901698002800F01681FFE749
:105520001798002800F01181FFE71998406900F4EE
:1055300060001590FFE71598A0B1FFE71598B0F54A
:10554000001F0FD0FFE71598B0F5C00F0AD0FFE796
:105550001598B0F5200F05D0FFE71598B0F5400F6E
:1055600001D1FFE708E049F63100C0F2000040F247
:10557000F911FDF7DBF9FFE7FFE71598410D08A8E2
:1055800030F81100159016981799159A5143490053
:10559000B0FBF1F001380F900F98FF287CD8FFE79F
:1055A0000F9818998860169A1798159948434100E2
:1055B000B2FBF1F000FB11200E900E9828B9FFE726
:1055C000189900200861079065E015980F9901313E
:1055D000A0FB011C4FF0000343F1000200FB02C0DE
:1055E000179AA1FB021C00FB02C0400040EAD170E8
:1055F000490012911390DDF848E01398000240EA48
:105600001E61169A5FEA530C4FEA320010EB0E202F
:1056100041EB0C01FAF79AFF80380D900D987F2826
:1056200038D8FFE70D981899C860129913980002AE
:1056300040EA116009021291139016980D99803179
:105640004FF00002069242F10002A0FB011300FBA2
:105650000230109111901098119903F0F5FA04900E
:1056600005911298139903F0EFFA024604980B463D
:10567000059903F07BF903F047F90021CBF680711F
:1056800003F07CFB014606980C910C99189A116165
:105690000790FFE7FFE7FFE707980130002853D1A5
:1056A000FFE7169800EB800040001799159A5143C8
:1056B0004900B0FBF1F005304CF6CD41CCF6CC41C1
:1056C000A0FB01014FF0FF3000EBD1000F900F98CD
:1056D000FF2838D8FFE70F981899886015980F9918
:1056E0000131A0FB01134FF00002039242F10002CE
:1056F00000FB0230179AA1FB021300FB02304000AE
:1057000040EAD170490012911390169803F088FA7C
:10571000019002911298139903F096FA02460198AB
:105720000B46029903F022F903F0EEF80021CBF6C4
:10573000807103F023FB014603980C910C99189A91
:1057400011610790FFE7FFE7FFE707981AB080BDF8
:1057500080B582B0009000980138B0F1807F03D30B
:10576000FFE70120019019E0009801384EF2140182
:10577000CEF2000108604FF0FF300F2102F094FAE2
:105780004EF21801CEF20001002008604EF2100225
:10579000CEF20002072111600190FFE7019802B0EC
:1057A00080BD000048F2CC31C1F6FF7108680130BD
:1057B0000860BFF34F8F704786B040F28460C4F238
:1057C00001000068C00750B1FFE748F20001C1F6D0
:1057D000FF7142F20040C0F2F400086009E048F2B4
:1057E0000001C1F6FF7142F60050C0F231100860AE
:1057F000FFE744F22600C4F20500007800F007003D
:105800008DF817009DF8170001460091052867D80C
:105810000099DFE801F0030E18202A3248F2000058
:10582000C1F6FF70006848F20401C1F6FF7108601C
:1058300057E048F20401C1F6FF7141F20020C0F2C6
:105840007A0008604DE048F20401C1F6FF714FF4A0
:105850000040086045E048F20401C1F6FF7141F2E2
:105860000020C0F27A0008603BE048F20401C1F673
:10587000FF714FF40040086033E044F20010C4F2BE
:1058800005000168C1F3082104910168090F039123
:10589000016801F01F01029100680006002806D48B
:1058A000FFE741F20020C0F27A00019006E048F2E2
:1058B0000000C1F6FF7000680190FFE701980299AF
:1058C0000131B0FBF1F004990131484303990131F2
:1058D000B0FBF1F048F20401C1F6FF71086000E08E
:1058E000FFE706B07047000080B5FFF765FF4EF692
:1058F0000851CEF200010020086080BD10B598B0BC
:1059000017901691012007904FF0FF300690FFE7A7
:1059100017984DF20001C4F20101884218D0FFE748
:1059200017984DF20041C4F20101884210D0FFE700
:10593000179841F20001C4F20201884208D0FFE743
:10594000179841F20041C4F20201884201D1FFE7F9
:1059500008E049F63100C0F200004FF4A771FCF7EF
:10596000E5FFFFE7FFE71698006814901698406877
:1059700015901498002800F01281FFE71598002870
:1059800000F00D81FFE71798C06880B2C00B13903C
:1059900014981599139AC2F102025143C900B0FB41
:1059A000F1F001380B900B98FF2800F29780FFE789
:1059B0000B9816998860149A15981399C1F10201F1
:1059C0004843C100B2FBF1F000FB11200A900A9895
:1059D00028B9FFE716990020086106907DE013982A
:1059E000D0F1020C4FF0000262F100000B994B1C49
:1059F000ACFB031442F1000E0CFB0E4C00FB03C089
:105A0000159BA1FB031C00FB03C0C00040EA5170C2
:105A1000C9000E910F900E990F98000240EA116094
:105A200009020E910F900E990F98149B5FEA520293
:105A30004FEA3303C918504110911190119848B1A1
:105A4000FFE710981199149A0023FAF77FFD803828
:105A5000099006E010981499B0FBF1F08038099095
:105A6000FFE709987F2834D8FFE709981699C8609E
:105A70000E980F99119110901498099980314FF058
:105A80000002059242F10002A0FB011300FB02306C
:105A90000C910D900C980D9903F0D6F80390049199
:105AA0001098119903F0D0F8024603980B46049918
:105AB00002F05CFF02F028FF0021CBF6807103F0BA
:105AC0005DF90146059808910899169A11610690AA
:105AD00002E000200790FFE7FFE7FFE707980028B4
