:020000040000FA
:10000000A8E9FF1F4D03000085030000C5040000A0
:10001000890300008B0300008D0300000000000036
:100020000000000000000000000000008F0300003E
:1000300091030000000000004F040000C9510000BF
:10004000613A0000753A0000893A00009D3A0000CC
:10005000B13A0000C53A0000D93A0000ED3A00007C
:10006000013B0000153B0000293B00003D3B000028
:10007000513B0000653B0000793B00008D3B0000D8
:10008000A13B0000B53B0000C93B0000DD3B000088
:10009000F13B0000053C0000193C00002D3C000035
:1000A000413C0000553C0000693C00007D3C0000E4
:1000B000913C0000A53C0000B93C0000CD3C000094
:1000C000E13C0000F93C0000113D0000293D00002A
:1000D000413D0000593D0000713D0000893D000098
:1000E000A13D0000B93D0000D13D0000E93D000008
:1000F000013E0000193E0000313E0000493E000074
:10010000613E0000793E0000913E0000A93E0000E3
:10011000C13E0000D93E0000F13E0000093F000052
:10012000213F0000393F0000513F0000693F0000BF
:10013000813F0000993F0000B13F0000C93F00002F
:10014000E13F0000F93F000011400000294000009D
:10015000414000005940000071400000894000000B
:10016000A1400000B9400000D1400000E94000007B
:1001700001410000194100003141000049410000E7
:10018000614100007941000091410000A941000057
:10019000C1410000D9410000F141000009420000C6
:1001A0002142000039420000514200006942000033
:1001B0008142000099420000B1420000C9420000A3
:1001C000E1420000F9420000114300002943000011
:1001D000414300005943000071430000894300007F
:1001E000A1430000B9430000D1430000E9430000EF
:1001F000014400001944000031440000494400005B
:10020000614400007944000091440000A9440000CA
:10021000C1440000D9440000F14400000945000039
:1002200021450000394500005145000069450000A6
:100230008145000099450000B1450000C945000016
:100240009703000097030000970300009703000046
:100250009703000097030000970300009703000036
:100260009703000097030000970300009703000026
:100270009703000097030000970300009703000016
:1002800000F002F800F053F80AA090E8000C824455
:100290008344AAF10107DA4501D100F048F8AFF232
:1002A000090EBAE80F0013F0010F18BFFB1A43F054
:1002B0000103184784D20000A4D200000A4410F8B9
:1002C000014B14F00F0508BF10F8015B240908BFAB
:1002D00010F8014B6D1E05D010F8013B6D1E01F8A2
:1002E000013BF9D1641E03D0641E01F8015BFBD110
:1002F0009142E4D37047000000230024002500262B
:10030000103A28BF78C1FBD8520728BF30C148BF78
:100310000B6070471FB59DE8030000F005FA00F080
:100320005DF81FBD10B5002000F07EFA10BD00F092
:10033000ABFA1146FFF7EEFF00F03AFB00F0C9FA06
:1003400003B4FFF7EFFF03BC00F046FA15484FF087
:100350001F01016014484FF07701016013484FF00E
:100360007701016012484FF4885101600E484FF048
:10037000760101600D484FF0760101600D4880471D
:100380000D480047FEE7FEE7FEE7FEE7FEE7FEE773
:10039000FEE7FEE7FEE7FEE708480949094A0A4B7F
:1003A0007047000010080540040805400C0805408F
:1003B000000805400953000081020000A8A9FF1FA2
:1003C000A8E9FF1FA8C9FF1FA8C9FF1F0B460146C8
:1003D000184600F0EAB970477047704770B5064C90
:1003E0007C44064D7D4404E0204601680844804773
:1003F000241DAC42F8D170BD74D1000080D1000042
:10040000BFFFDFFFFFFEFFFFFFFFFFFFFFFFFFFF5D
:10041000FFFFFFFFFFFFFFFFFFFFFFFFFFFFFFFFEC
:10042000EFF3108072B6704780F310887047324A3D
:100430001368012B04D04FF0010313602F4A1060A2
:100440002F4A11602F484FF0805101607047EFF341
:10045000108272B62848016891B14FF00001016026
:100460002648016829B1EFF3098121E9F00F0068FE
:100470000160234909680968B1E8F00F81F3098830
:1004800082F310884EF0040E70471D4908601B4926
:100490004FF00000086018494FF0010008601A484A
:1004A0001A49D0F8002041EA0201016015484FF0D6
:1004B0008051016016480068006880F3088861B6C2
:1004C00062B670471EF0040F0CBFEFF30880EFF325
:1004D000098020E9F00F40F804ED1EF0040F0CBF76
:1004E00080F3088880F3098800B509F0E1F85DF829
:1004F00004EB4EF0040E704710A7FF1F34A5FF1F3A
:100500003CA5FF1F04ED00E020ED00E00000FFFF30
:1005100008ED00E070B5064600F0EAF8056806F15F
:100520000B0020F00704B4429CBF002070BD2B4696
:100530006A68BAB11068A04210D304F10801884279
:100540003CBF5068586007D351681019416011686A
:10055000091B016058601460101D70BD134652687D
:10056000002AE7D12146284600F0CAF80028DED14B
:1005700070BD70B50446051F00F0BAF80068002C85
:1005800014BF446870BD002C18BFAC423CBF20466D
:100590006468F8D301680A18AA4218BF456003D1FD
:1005A0002A6805461144016028684119A1421CBF10
:1005B0006C6070BD6168696021680844286070BD26
:1005C00053EA020C00F069802DE9F04B4FF0000671
:1005D000002B1FBFB3FA83F503FA05F424FA05F6DE
:1005E0005E4012BF1643B2FA82F502FA05F4C5F175
:1005F00020051EBF22FA05FC44EA0C04203556EA09
:10060000044C4FEA144418BF641C4FF000084FF02C
:100610000009904271EB030C39D3002919BFB1FADC
:1006200081F701FA07F6B0FA80F700FA07F6C7F18A
:1006300020071EBF20FA07FC46EA0C062037B6FB4F
:10064000F4FCA7EB0507103F07F01F0BCBF12006CA
:100650002CFA06F60CFA0BFB44BFB3460026202FFB
:10066000A4BF5E464FF0000B5BEA060C08BF4FF0DC
:10067000010B19EB0B0948EB0608ABFB027C06FBF0
:1006800002CC0BFB03CCC01B71EB0C01C1E70B468A
:10069000024641464846BDE8F08B13B5084318BFF3
:1006A0004FF0FF300146AFF30080BDE81C407047BB
:1006B00010B5431C02E010F8011B71B18107FAD19B
:1006C0004FF0013202C88C1A8C4314EAC211F9D0DF
:1006D000C01A0A0603D0C01E10BDC01A10BD0A04FD
:1006E00001D0801E10BD0902FCD0401E10BD0000CC
:1006F000004870477881FF1F704770477047704708
:1007000038B504460A4600206946AFF30080002849
:1007100008BF38BD02460099204600F06BF8012062
:1007200038BD012000F0A8B8F8B5AFF30080054649
:1007300000200C46102000BF0646A819A0420DD983
:10074000324669460020AFF30080070008BF00F082
:1007500093F80098A04218BF0546C419FFF7C8FFD8
:1007600005600746F01D20F007004619284600F0F6
:100770000AF8B44208BFF8BDA21B31463868BDE88C
:10078000F84000F037B800210160C0E9011070475F
:100790001020704710B5002000F067F8FFF7C2FD89
:1007A000BDE81040012000F017B82DE9F0410746E0
:1007B00015460E461020FFF7ADFE04000AD0676014
:1007C000C4E9026500F012F80168216004600020AD
:1007D000BDE8F0810120FBE701491820ABBEFEE730
:1007E00026000200004870477081FF1F00487047D4
:1007F000A881FF1F034640688C46002818BF884226
:100800003CBF03464068F8D318681844884207D0B4
:100810000CF1030020F00700001D411A521A014696
:10082000081D0A60FFF7A5BE2DE9F0410646FFF757
:10083000DDFF8046454613E016B1E068B0420ED1B8
:1008400020682860D4E90101D8F800708847204664
:10085000FFF78FFED8F80000B842EBD100E0254644
:100860002C68002CE8D1BDE8F08110B500F040F80C
:10087000BDE8104000F036B810B500F051F8BDE802
:10088000104000F02FB870477546FFF7ABFFAE463B
:1008900005006946534620F00700854618B020B58C
:1008A000FFF77AFDBDE820404FF000064FF000074B
:1008B0004FF000084FF0000BAC46ACE8C009ACE8C4
:1008C000C009ACE8C009ACE8C00921F007018D46B9
:1008D000704710B50446AFF300802046BDE81040D5
:1008E000FFF72EBD002801D0FFF776BF704700004C
:1008F00010B5002102A000F03BF8012010BD00005F
:10090000534947414252543A2041626E6F726D61C1
:100910006C207465726D696E6174696F6E000000A1
:1009200010B5012805D0002103A000F021F8012016
:1009300010BD09A1F8E7000053494752544D454DF9
:100940003A204F7574206F662068656170206D6570
:100950006D6F7279000000003A2048656170206D6B
:10096000656D6F727920636F727275707465640063
:1009700070B505460C460A2000E06D1C00F011F829
:1009800035B128780028F8D102E0641C00F009F89D
:1009900014B120780028F8D1BDE870400A20AFF3E8
:1009A000008008B569468DF800000320ABBE08BD85
:1009B00080B50AF029FD002080BD000080B584B01C
:1009C00003908DF80B108DF80A208DF80930FFE7A1
:1009D00003980021C4F20401884205D1FFE79DF885
:1009E0000A0011280DD3FFE7039840F20041C4F23A
:1009F0000401884206D1FFE79DF80A00082801D8C3
:100A0000FFE708E04DF2BB00C0F2000040F26511C4
:100A100001F09CF8FFE7FFE7FFE79DF80B0028B126
:100A2000FFE79DF80B00012801D1FFE708E04DF238
:100A3000BB00C0F200004FF4B37101F087F8FFE78C
:100A4000FFE7FFE79DF8090028B1FFE79DF80900DF
:100A5000012801D1FFE708E04DF2BB00C0F2000021
:100A600040F2671101F072F8FFE7FFE703989DF885
:100A70000B1000EB81000C3001909DF8090001285B
:100A80000AD1FFE79DF80A10012000FA01F201994E
:100A900008681043086009E09DF80A10012000FA78
:100AA00001F20199086890430860FFE704B080BD37
:100AB00080B582B001908DF80310FFE70198002106
:100AC000C4F20401884208D0FFE7019840F20041D7
:100AD000C4F20401884201D1FFE708E04DF2BB00F7
:100AE000C0F2000040F2AB2101F030F8FFE7FFE771
:100AF000FFE79DF8030040B1FFE79DF8030040F0D9
:100B00000300032801D1FFE708E04DF2BB00C0F26B
:100B100000004FF42B7101F019F8FFE7FFE79DF893
:100B2000030080F00300019981F8460002B080BD07
:100B300080B582B001908DF803108DF80220FFE798
:100B400001980021C4F20401884205D1FFE79DF815
:100B5000030011280DD3FFE7019840F20041C4F2D1
:100B60000401884206D1FFE79DF80300082801D858
:100B7000FFE708E04DF2BB00C0F200004FF4EA715D
:100B800000F0E4FFFFE7FFE7FFE79DF8020028B170
:100B9000FFE79DF80200012801D1FFE708E04DF2D0
:100BA000BB00C0F2000040F2D51100F0CFFFFFE71C
:100BB000FFE79DF8020001280AD1FFE79DF8031026
:100BC000012000FA01F2019948691043486109E0E7
:100BD0009DF80310012000FA01F201994869904341
:100BE0004861FFE702B080BD80B582B00190ADF8EA
:100BF0000210FFE701980021C4F20401884208D0E6
:100C0000FFE7019840F20041C4F20401884201D19B
:100C1000FFE708E04DF2BB00C0F2000040F2C31154
:100C200000F094FFFFE7FFE7FFE7BDF8020040F4A4
:100C3000E060B0F5E06F01D1FFE708E04DF2BB00E6
:100C4000C0F200004FF4E27100F080FFFFE7FFE721
:100C50000198408820F4E060BDF8021001F4E061E2
:100C600008440199488002B080BD000080B582B080
:100C700001908DF8031000208DF80200FFE7019825
:100C80000021C4F20401884208D0FFE7019840F235
:100C90000041C4F20401884201D1FFE708E04DF2AF
:100CA000BB00C0F2000040F2962100F04FFFFFE7CA
:100CB000FFE7FFE79DF8030040B1FFE79DF8030061
:100CC00040F00300032801D1FFE708E04DF2BB002C
:100CD000C0F2000040F2972100F038FFFFE7FFE785
:100CE000019890F846009DF803100840000620B1D6
:100CF000FFE701208DF80200FFE79DF8020002B037
:100D000080BD000080B584B0039002916FF00200B6
:100D10000190FFE703980021C4F20401884208D043
:100D2000FFE7039840F20041C4F20401884201D178
:100D3000FFE707E04DF2BB00C0F20000E52100F044
:100D400005FFFFE7FFE70298002856D0FFE7FFE71F
:100D50000298008878B1FFE70298008801280AD03D
:100D6000FFE702980088022805D0FFE70298008874
:100D7000032801D1FFE707E04DF2BB00C0F20000FD
:100D8000E82100F0E3FEFFE7FFE7FFE70298408875
:100D9000202809D0FFE702984088102804D0FFE7F8
:100DA0000298408808B9FFE707E04DF2BB00C0F2A7
:100DB0000000E92100F0CAFEFFE7FFE7FFE7029825
:100DC000808828B1FFE702988088802801D1FFE75A
:100DD00007E04DF2BB00C0F20000EA2100F0B6FED1
:100DE000FFE7FFE7029908884A881043898808438B
:100DF0000399488000200190FFE7019804B080BD6E
:100E000080B584B003908DF80B108DF80A20FFE7B1
:100E10009DF80A00052801D3FFE708E04DF2BB006A
:100E2000C0F2000040F2A51100F090FEFFE7FFE7DE
:100E3000FFE703980021C4F20401884205D1FFE7CF
:100E40009DF80B0011280DD3FFE7039840F20041F5
:100E5000C4F20401884206D1FFE79DF80B00082880
:100E600001D8FFE708E04DF2BB00C0F2000040F2FD
:100E7000A71100F06BFEFFE7FFE703989DF80B104A
:100E80000844203001909DF80B000F2805D8FFE79B
:100E90009DF80A000199087005E09DF80A00039981
:100EA00081F83000FFE704B080BD000080B582B05B
:100EB000019000200090FFE701980021C4F2040196
:100EC000884208D0FFE7019840F20041C4F20401D3
:100ED000884201D1FFE708E04DF2BB00C0F20000FC
:100EE00040F2532100F032FEFFE7FFE7019800785F
:100EF000012804D1FFE76FF00500009003E001999D
:100F000001200870FFE7009802B080BD80B549F26B
:100F10000451C1F6FF71086840F400600860FFE703
:100F20000120022101F008FA08B9FFE7F8E70220E2
:100F300000F0F8FE80BD000080B582B00190002076
:100F40000090019820B9FFE76FF00200009003E0E5
:100F5000019801F08BFCFFE7009802B080BD000013
:100F600080B582B08DF80700FFE79DF8070040B11B
:100F7000FFE79DF8070040F06900692801D1FFE70D
:100F800008E04DF2DA00C0F2000040F28B5100F0B0
:100F9000DDFDFFE7FFE744F23C00C4F20500007806
:100FA0009DF807100840C0B2002818BF012002B009
:100FB00080BD000080B582B08DF807000020009051
:100FC000FFE79DF8070028B1FFE79DF8070001281B
:100FD00001D1FFE708E04DF2DA00C0F2000040F274
:100FE000E54100F0B3FDFFE7FFE7FFE744F2FE3025
:100FF000C4F205000088C00708B1FFE708E04DF221
:10100000DA00C0F2000040F2E64100F09FFDFFE789
:10101000FFE79DF80700B0B9FFE744F22600C4F2ED
:101020000500007800F00700052804D1FFE76FF005
:101030000500009006E044F22A01C4F205010120F7
:101040000870FFE729E044F20010C4F205000068D0
:10105000C1B20020B0EBD11F07D1FFE708204FF449
:10106000805100F0C5FA009006E001204FF4805155
:1010700000F0BEFA0090FFE7009868B9FFE744F27D
:101080002A01C4F205010020087020204FF480518D
:1010900000F0AEFA0090FFE7FFE7009802B080BDD5
:1010A00080B586B00590059820B9FFE76FF0020083
:1010B0000490D1E1FFE7059801790020B0EBD11F42
:1010C00007D0FFE7059801790120B0EBD11F01D1CE
:1010D000FFE708E04DF2DA00C0F200004FF497613C
:1010E00000F034FDFFE7FFE7FFE70598007900F027
:1010F0001F000130182808D8FFE70598007900F094
:101100001F00013008B1FFE708E04DF2DA00C0F23D
:10111000000040F2B94100F019FDFFE7FFE7FFE7EB
:101120000598B0F805006FF35F200130B0F5F07F4F
:101130000AD8FFE70598B0F805006FF35F2001308B
:10114000142801D3FFE708E04DF2DA00C0F20000F6
:1011500040F2BA4100F0FAFCFFE7FFE7FFE705982D
:10116000C0790104012000EB115010280AD8FFE7D4
:101170000598C0790104012000EB1150022801D329
:10118000FFE708E04DF2DA00C0F2000040F2BB4198
:1011900000F0DCFCFFE7FFE7059801790020B0EBE9
:1011A000D11F06D1FFE741F20020C0F27A00019082
:1011B00006E048F20000C1F6FF7000680190FFE70A
:1011C00001980599097901F01F010131B0FBF1F097
:1011D000039003980599B1F805106FF35F21013171
:1011E00048430290FFE7039847F64001C0F27D11A3
:1011F000884209D8FFE7039844F24021C0F20F016A
:10120000884201D3FFE708E04DF2DA00C0F20000A7
:101210004FF4986100F09AFCFFE7FFE7FFE70298C0
:1012200043F60001C1F69C41884209D8FFE70298C5
:1012300041F60041C0F64E61884201D3FFE708E065
:101240004DF2DA00C0F2000040F2C14100F07EFC35
:10125000FFE7FFE7FFE702980599C9790A04012132
:1012600001EB1251B0FBF1F04CF20021C0F6EB3172
:10127000884211D8FFE702980599C9790A0401212B
:1012800001EB1251B0FBF1F04EF2C011C0F2E401DB
:10129000884201D3FFE708E04DF2DA00C0F2000017
:1012A00040F2C24100F052FCFFE7FFE7FFE705987C
:1012B000C07900F00F000130102809D8FFE7059829
:1012C000C07900F00F000130022801D3FFE708E0E9
:1012D0004DF2DA00C0F2000040F2C34100F036FCEB
:1012E000FFE7FFE7FFE70598B0F80510012000EBE6
:1012F000113010280AD8FFE70598B0F80510012032
:1013000000EB1130022801D3FFE708E04DF2DA00CC
:10131000C0F2000040F2C44100F018FCFFE7FFE714
:10132000FFE702980599B1F80520012101EB123180
:10133000B0FBF1F04CF20021C0F6EB31884211D83D
:10134000FFE702980599B1F80520012101EB123160
:10135000B0FBF1F04EF2C011C0F2E401884201D3BB
:10136000FFE708E04DF2DA00C0F2000040F2C541AC
:1013700000F0ECFBFFE7FFE7FFE702980599C9796A
:1013800001F00F010131B0FBF1F04CF20021C0F689
:10139000EB31884210D8FFE702980599C97901F02E
:1013A0000F010131B0FBF1F04EF2C011C0F2E401C7
:1013B000884201D3FFE708E04DF2DA00C0F20000F6
:1013C00040F2C64100F0C2FBFFE7FFE7FFE70598E8
:1013D0000078012804D0FFE70598007808B9FFE7F6
:1013E00008E04DF2DA00C0F200004FF4996100F01D
:1013F000ADFBFFE7FFE7FFE744F2FE30C4F2050074
:101400000088C00708B1FFE708E04DF2DA00C0F23B
:10141000000040F2C94100F099FBFFE7FFE744F20A
:101420000011C4F205010868059A1279D20962F325
:10143000C71008600598406808600598007828B9CA
:10144000FFE70120FFF7B6FD049004E00020FFF75E
:10145000B1FD0490FFE7FFE7049806B080BD0000EF
:1014600082B0019000200090019820B9FFE76FF052
:10147000020000903DE00199002048600199087940
:1014800000F07F0008710199087900F0E000087110
:10149000019931F8050F8A7800F47E4013308A7084
:1014A0000880019A32F8050F917840EA0141012045
:1014B00060F31F511180090C9170019A32F8051FD9
:1014C000937841EA03434FF6FF7CC0F2F00C03EA45
:1014D0000C0303F580331B0C93701180019A32F8D2
:1014E000051F937860F31F31937011800199087084
:1014F000FFE7009802B0704780B582B0019000917C
:101500000198009903F0E4F903F066FE02B080BD93
:1015100080B582B0ADF80600FFE7BDF80600F0B177
:10152000FFE7BDF80600082819D0FFE7BDF8060060
:10153000092814D0FFE7BDF806000A280FD0FFE7FE
:10154000BDF806000B280AD0FFE7BDF806000C28FE
:1015500005D0FFE7BDF806000D2801D1FFE708E040
:101560004DF2DA00C0F2000040F22B6100F0EEFA1A
:10157000FFE7FFE7FFE744F2FE30C4F20500008812
:10158000C00708B1FFE708E04DF2DA00C0F2000042
:1015900040F22C6100F0DAFAFFE7FFE7FFE744F2E0
:1015A000FE30C4F2050000888007002801D5FFE75F
:1015B00008E04DF2DA00C0F2000040F22D6100F0C8
:1015C000C5FAFFE7FFE79DF8060044F21001C4F2F8
:1015D0000501088002B080BD80B582B08DF807009B
:1015E0009DF8070003F0C0FB03F0F6FD02B080BDDC
:1015F00080B584B08DF80F000291002001906FF04B
:1016000007000090FFE70198029988420ED8FFE793
:101610009DF80F00FFF7A4FC012803D1FFE700208D
:10162000009003E0019801300190ECE7009804B0CD
:1016300080BD000080B582B08DF8070000200090CA
:10164000FFE79DF8070028B1FFE79DF80700012894
:1016500001D1FFE708E04DF2DA00C0F200004FF4DC
:10166000677100F073FAFFE7FFE7FFE744F2FE302F
:10167000C4F205000088C00708B1FFE708E04DF29A
:10168000DA00C0F2000040F29D3100F05FFAFFE79F
:10169000FFE79DF80700A8BBFFE744F22600C4F26D
:1016A0000500007800F00700032804D1FFE76FF081
:1016B0000500009025E044F20010C4F20500006827
:1016C000C1B20020B0EBD11F13D1FFE744F22A00D2
:1016D000C4F20500007820B9FFE76FF00500009024
:1016E00006E044F23201C4F2050101200870FFE770
:1016F00006E044F23201C4F2050101200870FFE760
:10170000FFE70CE044F23201C4F20501002008704A
:1017100008204FF48051FFF76BFF0090FFE700981F
:1017200002B080BD80B582B00190019820B9FFE77A
:101730006FF002000090CBE0FFE7019800780128ED
:1017400004D0FFE70198007808B9FFE708E04DF200
:10175000DA00C0F200004FF45F7100F0F7F9FFE724
:10176000FFE7FFE70198407878B1FFE701984078FC
:1017700010280AD0FFE701984078202805D0FFE71D
:1017800001984078302801D1FFE708E04DF2DA00F7
:10179000C0F2000040F27D3100F0D8F9FFE7FFE72A
:1017A000FFE70198807828B1FFE70198807840280A
:1017B00001D1FFE708E04DF2DA00C0F2000040F28C
:1017C0007E3100F0C3F9FFE7FFE7FFE70198C0783B
:1017D000802804D0FFE70198C07808B9FFE708E047
:1017E0004DF2DA00C0F2000040F27F3100F0AEF9B5
:1017F000FFE7FFE7FFE701980079012828D0FFE71E
:1018000001980079022823D0FFE701980079032886
:101810001ED0FFE701980079042819D0FFE701984E
:101820000079052814D0FFE70198007906280FD029
:10183000FFE70198007907280AD0FFE701980079AF
:10184000082805D0FFE701980079092801D1FFE7B2
:1018500008E04DF2DA00C0F200004FF4607100F0D1
:1018600075F9FFE7FFE7FFE744F2FE30C4F2050039
:101870000088C00708B1FFE708E04DF2DA00C0F2C7
:10188000000040F2813100F061F9FFE7FFE70198C5
:10189000007944F2A201C4F205010870019842786F
:1018A0008178C0781043084344F21041C4F2050126
:1018B00008700198007828B9FFE70120FFF7BAFE09
:1018C000009004E00020FFF7B5FE0090FFE7FFE77F
:1018D000009802B080BD000082B00190002000900E
:1018E000019820B9FFE76FF0020000900EE0019927
:1018F00001200870019900208870019948700199B1
:101900008020C870019905200871FFE7009802B097
:101910007047000080B594B0139012910120079099
:101920004FF0FF300690FFE713984DF20001C4F22C
:101930000101884218D0FFE713984DF20041C4F22C
:101940000101884210D0FFE7139841F20001C4F270
:101950000201884208D0FFE7139841F20041C4F227
:101960000201884201D1FFE708E04DF2DB10C0F22E
:10197000000040F2A51100F0E9F8FFE7FFE7129838
:10198000006810901298406811901098002800F09C
:10199000DA80FFE71198002800F0D580FFE7109863
:1019A00011998900B0FBF1F001380B900B98FF28DA
:1019B00078D8FFE70B9812998860109A11988100E7
:1019C000B2FBF1F000FB11200A900A9828B9FFE75A
:1019D000129900200861069063E00B98411C4FF0BB
:1019E000000343F10000119AA1FB021C00FB02C09E
:1019F000800040EA917089000E910F90DDF838E088
:101A00000F98000240EA1E61109A5FEA530C4FEAF9
:101A1000320010EB0E2041EB0C01FEF7D1FD8038B7
:101A2000099009987F2838D8FFE709981299C8606B
:101A30000E990F98000240EA116009020E910F9072
:101A40001098099980314FF00002059242F100028E
:101A5000A0FB011300FB02300C910D900C980D9926
:101A60000AF036F8039004910E980F990AF030F8B6
:101A7000024603980B46049909F00CFE09F024FD78
:101A80000021CBF680710AF0F9FA01460598089119
:101A90000899129A1161069002E000200790FFE772
:101AA000FFE7FFE7079800284CD1FFE7109800EB0D
:101AB0008000400011998900B0FBF1F005304CF630
:101AC000CD41CCF6CC41A0FB01014FF0FF3000EB43
:101AD000D1000B900B98FF2833D8FFE70B98129991
:101AE00088600B98411C4FF00000029040F100000C
:101AF000119AA1FB021300FB0230800040EA9170B2
:101B000089000E910F90109809F0CEFF009001917E
:101B10000E980F9909F0DCFF024600980B460199D8
:101B200009F0B8FD09F0D0FC0021CBF680710AF075
:101B3000A5FA0146029808910899129A1161069037
:101B4000FFE7FFE7FFE7069814B080BD82B0019081
:101B50000091FFE7FEE7000080B582B08DF8070036
:101B6000FFE79DF8070028B1FFE79DF8070001286F
:101B700001D1FFE708E04DF2F900C0F2000040F2A9
:101B80007111FFF7E3FFFFE7FFE7FFE740F20040D7
:101B9000C4F201000068012801D1FFE708E04DF21E
:101BA000F900C0F200004FF4B971FFF7CFFFFFE773
:101BB000FFE79DF8070048F24011C4F220210860B9
:101BC00002B080BD80B582B08DF80700FFE79DF8B8
:101BD000070028B1FFE79DF80700012801D1FFE7C2
:101BE00008E04DF2F900C0F2000040F26311FFF787
:101BF000ADFFFFE7FFE7FFE740F20040C4F201005E
:101C00000068012801D1FFE708E04DF2F900C0F2B9
:101C100000004FF4B271FFF799FFFFE7FFE79DF86F
:101C2000070048F26011C4F22021086002B080BDB4
:101C300040F20041C4F2010100200860704700003A
:101C400040F20041C4F2010140F22310086043F267
:101C5000102008607047000080B584B0029000201A
:101C60000190FFE740F20040C4F201000068012843
:101C700001D1FFE708E04DF2F900C0F2000040F2A8
:101C80004F11FFF763FFFFE7FFE7FFE70298F02838
:101C900001D8FFE708E04DF2F900C0F200004FF470
:101CA000A871FFF753FFFFE7FFE740F20841C4F2D6
:101CB00001010868029A120962F307100860FFE741
:101CC000029840F20841C4F20101096801F0F001F4
:101CD000884220D0FFE7019801300190019848F236
:101CE0000401C1F6FF71096844F22002C4F2050242
:101CF0001268C2F30262D14041F25972CDF2B712BA
:101D0000A1FB0221B0EB913F04D9FFE76FF0070080
:101D1000039003E0D4E700200390FFE7039804B0AA
:101D200080BD000080B582B00190FFE7019840B10E
:101D3000FFE701984FF6FF710843884201D1FFE7A2
:101D400008E04DF27610C0F2000040F20F21FFF7DC
:101D5000FDFEFFE7FFE7019841F25801C4F20501DB
:101D6000086002B080BD000080B582B001908DF89F
:101D70000310FFE7019850B1FFE701984FF6795142
:101D8000C0F60F710843884201D1FFE707E04DF22A
:101D90001810C0F200008421FFF7D8FEFFE7FFE72C
:101DA000FFE79DF8030028B1FFE79DF80300012835
:101DB00001D1FFE707E04DF21810C0F200008521C5
:101DC000FFF7C4FEFFE7FFE79DF80300012809D1F4
:101DD000FFE7019A48F20401C4F204010868904345
:101DE000086008E0019A48F20401C4F2040108689E
:101DF00010430860FFE702B080BD000080B582B0EC
:101E000001908DF80310FFE7019840B1FFE70198BA
:101E100041F203110843884201D1FFE707E04DF288
:101E20001810C0F20000A821FFF790FEFFE7FFE7BF
:101E3000FFE79DF8030028B1FFE79DF803000128A4
:101E400001D1FFE707E04DF21810C0F20000A92110
:101E5000FFF77CFEFFE7FFE79DF80300012809D1AB
:101E6000FFE7019A48F20C01C4F2040108689043AC
:101E7000086008E0019A48F20C01C4F20401086805
:101E800010430860FFE702B080BD000080B584B059
:101E90008DF80F00ADF80C108DF80B20FFE743F61E
:101EA000FC30C4F205000088C00708B1FFE708E075
:101EB0004DF23710C0F2000040F28121FFF746FEDC
:101EC000FFE7FFE7FFE79DF80F00C8B1FFE79DF8C8
:101ED0000F00012814D0FFE79DF80F0002280FD053
:101EE000FFE79DF80F0003280AD0FFE79DF80F00D9
:101EF000042805D0FFE79DF80F00052801D1FFE772
:101F000008E04DF23710C0F2000040F28221FFF7E6
:101F10001DFEFFE7FFE7FFE7BDF80C0028B1FFE774
:101F2000BDF80C0008B1FFE708E04DF23710C0F231
:101F3000000040F28321FFF709FEFFE7FFE70020E2
:101F40008DF80300FFE79DF803000F2835D8FFE761
:101F5000BDF80C00C007F8B1FFE79DF80F00800145
:101F60009DF8031000EB810043F60041C4F2050127
:101F7000084401909DF80B00012806D1FFE7019964
:101F8000088840F40040088005E0019908886FF354
:101F9000DF300880FFE7FFE7BDF80C004008ADF830
:101FA0000C00BDF80C0008B9FFE706E0FFE79DF85C
:101FB000030001308DF80300C5E704B080BD0000C8
:101FC00080B582B0ADF80600BDF90600002805D442
:101FD000FFE7BDF90600532801DBFFE7FFE7BDF986
:101FE000060000EB40024CF60E01C0F2000188181A
:101FF000895C4909009106F0B5F90146009800F0A6
:102000009BF902B080BD000080B588B08DF81F003C
:10201000ADF81C10069200200390069820B9FFE747
:102020006FF00200039073E1FFE743F6FC30C4F267
:1020300005000088C00708B1FFE708E04DF237103F
:10204000C0F200004FF48071FFF780FDFFE7FFE76B
:10205000FFE79DF81F00C8B1FFE79DF81F000128AA
:1020600014D0FFE79DF81F0002280FD0FFE79DF86E
:102070001F0003280AD0FFE79DF81F00042805D0A1
:10208000FFE79DF81F00052801D1FFE708E04DF2AA
:102090003710C0F2000040F20111FFF757FDFFE7D3
:1020A000FFE7FFE7BDF81C0028B1FFE7BDF81C0003
:1020B00008B1FFE708E04DF23710C0F200004FF41E
:1020C0008171FFF743FDFFE7FFE7FFE70698008810
:1020D00028B1FFE706980088012801D1FFE708E052
:1020E0004DF23710C0F2000040F20311FFF72EFD51
:1020F000FFE7FFE7FFE70698408828B1FFE706986B
:102100004088022801D1FFE708E04DF23710C0F205
:1021100000004FF48271FFF719FDFFE7FFE7FFE7CB
:102120000698808828B1FFE706988088042801D1A6
:10213000FFE708E04DF23710C0F2000040F2051151
:10214000FFF704FDFFE7FFE7FFE70698C08850B1FF
:10215000FFE70698C088102805D0FFE70698C088DA
:10216000202801D1FFE708E04DF23710C0F200004F
:102170004FF48371FFF7EAFCFFE7FFE7FFE70698FC
:10218000008930B1FFE706980089B0F5804F01D192
:10219000FFE708E04DF23710C0F2000040F20711EF
:1021A000FFF7D4FCFFE7FFE7FFE70698408928B177
:1021B000FFE706984089402801D1FFE708E04DF28B
:1021C0003710C0F200004FF48471FFF7BFFCFFE747
:1021D000FFE7FFE70698808930B1FFE7069880891E
:1021E000B0F5007F01D1FFE708E04DF23710C0F2F3
:1021F000000040F20911FFF7A9FCFFE7FFE7FFE746
:102200000698C08930B1FFE70698C089B0F5805FB5
:1022100001D1FFE708E04DF23710C0F200004FF4A3
:102220008571FFF793FCFFE7FFE7FFE70698008A59
:1022300030B1FFE70698008AB0F5004F01D1FFE703
:1022400008E04DF23710C0F2000040F20B11FFF72A
:102250007DFCFFE7FFE700208DF81700FFE79DF802
:1022600017000F2853D8FFE7BDF81C00C007E8B3DC
:10227000FFE70699019108884A8810438A8810432D
:10228000CA8810434A8910438A891043CA89104377
:1022900009890843ADF8140045F27720ADF8120023
:1022A0000698018ABDF814000843ADF81400BDF883
:1022B000120040F40040ADF812009DF81F008001AC
:1022C0009DF8171000EB810043F60041C4F20501B0
:1022D0000844029002980088BDF812209043BDF88F
:1022E00014101140084302990880FFE7BDF81C0054
:1022F0004008ADF81C00BDF81C0008B9FFE706E077
:10230000FFE79DF8170001308DF81700A7E7FFE7FA
:10231000039808B080BD000043F6FC31C4F205010B
:102320004FF425400880704743F6FC31C4F20501A4
:102330004AF201500880704780B582B08DF80700DE
:10234000ADF80410FFE79DF80700C8B1FFE79DF85E
:102350000700012814D0FFE79DF8070002280FD0DE
:10236000FFE79DF8070003280AD0FFE79DF8070064
:10237000042805D0FFE79DF80700052801D1FFE7F5
:1023800008E04DF23710C0F200004FF4FF71FFF784
:10239000DDFBFFE7FFE7FFE7BDF8040028B1FFE73B
:1023A000BDF8040008B1FFE708E04DF23710C0F2B5
:1023B000000040F2FF11FFF7C9FBFFE7FFE79DF8C0
:1023C0000700010143F60000C4F20500405ABDF8C1
:1023D0000410084080B2002818BF012002B080BD60
:1023E00080B582B0ADF80600BDF90600002805D41E
:1023F000FFE7BDF90600532801DBFFE7FFE7BDF962
:10240000060000EB40024CF60E01C0F200018818F5
:10241000895C4909009105F0A5FF0146009800F08C
:1024200003F802B080BD000080B582B08DF80700CF
:10243000ADF80410FFE79DF80700C8B1FFE79DF86D
:102440000700012814D0FFE79DF8070002280FD0ED
:10245000FFE79DF8070003280AD0FFE79DF8070073
:10246000042805D0FFE79DF80700052801D1FFE704
:1024700008E04DF23710C0F2000040F24A21FFF7A9
:1024800065FBFFE7FFE7FFE7BDF8040028B1FFE7C2
:10249000BDF8040008B1FFE708E04DF23710C0F2C4
:1024A000000040F24B21FFF751FBFFE7FFE79DF8EB
:1024B000071043F60A00C4F2050000EB011000907B
:1024C000BDF80420009908881043088002B080BD40
:1024D00080B582B0ADF80600BDF90600002805D42D
:1024E000FFE7BDF90600532801DBFFE7FFE7BDF971
:1024F000060000EB40024CF60E01C0F20001881805
:10250000895C4909009105F02DFF0146009800F013
:10251000EBF802B080BD000080B584B08DF80F00EC
:10252000ADF80C10ADF80A20FFE79DF80F00C8B118
:10253000FFE79DF80F00012814D0FFE79DF80F007A
:1025400002280FD0FFE79DF80F0003280AD0FFE70D
:102550009DF80F00042805D0FFE79DF80F0005281F
:1025600001D1FFE708E04DF23710C0F200004FF450
:10257000BE71FFF7EBFAFFE7FFE7FFE7BDF80C00DE
:1025800028B1FFE7BDF80C0008B1FFE708E04DF205
:102590003710C0F2000040F27D11FFF7D7FAFFE7D5
:1025A000FFE7FFE7BDF80A0010280AD3FFE7BDF8F0
:1025B0000A00202806D3FFE7BDF80A003B2801D80F
:1025C000FFE708E04DF23710C0F200004FF4BF7192
:1025D000FFF7BCFAFFE7FFE7FFE743F6FC30C4F282
:1025E00005000088C00708B1FFE708E04DF237108A
:1025F000C0F2000040F27F11FFF7A8FAFFE7FFE703
:1026000000208DF80900FFE79DF809000F282CD85D
:10261000FFE7BDF80C00C007B0B1FFE79DF80F0061
:1026200080019DF8091000EB810043F60241C4F2DD
:1026300005010844019001980088BDF80A1061F373
:10264000050001990880FFE7BDF80C004008ADF8CF
:102650000C00BDF80C0008B9FFE706E0FFE79DF8A5
:10266000090001308DF80900CEE704B080BD0000FC
:1026700080B584B0ADF80E00ADF80C108DF80B20CD
:102680008DF80A30BDF90E00002805D4FFE7BDF92A
:102690000E00532801DBFFE7FFE7BDF90E0000EB5A
:1026A00040024CF60E01C0F200018818895C49090D
:1026B000019105F057FE01460198BDF80C20FFF787
:1026C0002BFF9DF80B0001280CD1FFE79DF80A00B5
:1026D00038B9FFE74CF6F970C0F2000007F070F966
:1026E000FFE7FFE704B080BD80B582B08DF807003A
:1026F000ADF80410FFE79DF80700C8B1FFE79DF8AB
:102700000700012814D0FFE79DF8070002280FD02A
:10271000FFE79DF8070003280AD0FFE79DF80700B0
:10272000042805D0FFE79DF80700052801D1FFE741
:1027300008E04DF23710C0F200004FF40E71FFF7C1
:1027400005FAFFE7FFE7FFE7BDF8040028B1FFE760
:10275000BDF8040008B1FFE708E04DF23710C0F201
:10276000000040F23921FFF7F1F9FFE7FFE79DF89C
:10277000071043F60800C4F2050000EB01100090BA
:10278000BDF80420009908881043088002B080BD7D
:1027900080B582B0ADF80600FFE7BDF8060090B145
:1027A000FFE7BDF80600B0F5804F0CD0FFE7BDF89D
:1027B0000600B0F5004F06D0FFE7BDF80600B0F503
:1027C000404F01D1FFE708E04DF23710C0F20000A2
:1027D0004FF4ED71FFF7BAF9FFE7FFE7FFE743F6C4
:1027E000FC30C4F205000088C00708B1FFE708E02C
:1027F0004DF23710C0F2000040F2DB11FFF7A6F9EE
:10280000FFE7FFE743F6F831C4F2050108886FF3EC
:102810009F30BDF8062002F440421044088002B008
:1028200080BD000083B0029000200190029820B982
:10283000FFE76FF00200019014E002990020009081
:102840000880029948800299C880029908820299FA
:10285000088102994881029988810299C881029968
:102860008880FFE7019803B07047000085B00490AE
:1028700044F22600C4F20500007800F0070001468B
:10288000009105286BD80099DFE801F0030B1217BF
:102890001E2348F20000C1F6FF700068049908602A
:1028A0005EE0049941F20020C0F27A00086057E02F
:1028B00004994FF40040086052E0049941F200206E
:1028C000C0F27A0008604BE004994FF400400860C1
:1028D00046E044F20010C4F205000168090F8DF8CB
:1028E00006100168090A8DF80710016801F01F0140
:1028F0008DF805100068C1B20020B0EBD11F15D1D2
:10290000FFE79DF80500411C41F20020C0F27A006B
:10291000B0FBF1F09DF80710013148439DF8061017
:102920000131B0FBF1F00499086017E048F20000B3
:10293000C1F6FF700068029002989DF80510013101
:10294000B0FBF1F09DF80710013148439DF80610E7
:102950000131B0FBF1F004990860FFE700E0FFE708
:1029600044F22000C4F20500039000680399086057
:1029700004990868039AD27802F00702D0404860B0
:1029800004990868039A1278C2F30212D040C86012
:1029900004990868039A927802F00702D04088618F
:1029A00004990868039A5278C2F30212D040486131
:1029B00004990868039A9278C2F30212D040C86161
:1029C00004990868039A127802F00702D0408860E0
:1029D00004990868039A527802F00702D04008610F
:1029E00005B0704780B582B001900091FFE7019873
:1029F0004EF20001C4F20401884210D0FFE70198B2
:102A00004EF20041C4F20401884208D0FFE7019869
:102A10004EF60001C4F20401884201D1FFE708E04C
:102A20004DF25710C0F200004FF43871FFF78EF8E6
:102A3000FFE7FFE7FFE7009828B1FFE70098B0F550
:102A4000806F01D1FFE708E04DF25710C0F200009F
:102A500040F2E121FFF77AF8FFE7FFE7019800680D
:102A60000099890A61F38A200199086002B080BD4B
:102A700080B59AB019901891179200201690119075
:102A8000022110910B90189818B1FFE7179820B900
:102A9000FFE76FF00200169024E1FFE719984EF26D
:102AA0000001C4F20401884210D0FFE719984EF2E9
:102AB0000041C4F20401884208D0FFE719984EF69D
:102AC0000001C4F20401884201D1FFE708E04DF2A1
:102AD0005710C0F200004FF48A71FFF737F8FFE794
:102AE000FFE7FFE71898406850B1FFE71898406883
:102AF00041F68021C0F20601884201D8FFE708E0D4
:102B00004DF25710C0F2000040F21511FFF71EF809
:102B1000FFE7FFE7FFE718980068072801D8FFE7FD
:102B200008E04DF25710C0F200004FF48B71FFF730
:102B30000DF8FFE7FFE748F20400C1F6FF700068F8
:102B400044F22001C4F205010968C1F30231C84012
:102B50001590189801680120884014901898806892
:102B600013901898406812901998006BC0060028BE
:102B700007D5FFE71998006B00F0030001301190B2
:102B8000FFE71898006818B9FFE703201090FFE7E7
:102B90001498002800F0A180FFE7159809F07AFC4E
:102BA0000590129809F076FC0146059809F028FB7B
:102BB0000690149809F06EFC0146069809F020FB77
:102BC0000E90109809F066FC0146084609F056FA86
:102BD0000790119809F05EFC0146084609F04EFA8C
:102BE0000146079809F04AFA0890139809F052FC38
:102BF0000146089809F042FA0D900E980D9909F0D7
:102C000091FD0C900E98099009F00CFC09F042FC23
:102C10000146099809F086FD4FF07C5109F0DDFA74
:102C200058B9FFE70E9809F0FDFB09F033FC4FF0AF
:102C30007E5109F023FA0E9006E00E9809F0F2FB9F
:102C400009F028FC0E90FFE70E980D9909F0B0FAF4
:102C500020B9FFE76FF0020016903DE00020C4F2BB
:102C600078200A900C980A9909F0B0FA20B9FFE789
:102C70006FF0020016902EE0159801900E9809F062
:102C8000D1FB01460198B0FBF1F01499B0FBF1F0D3
:102C90000F90129809F0FEFB02900F9809F0FAFBD2
:102CA00001460298039109F03DFD039909F0A8FA45
:102CB0000B9018980068000404900C9809F0B2FB7F
:102CC0000146049840EA5100A1EB510140EA01207D
:102CD0001999C862FFE7FFE703E06FF00200169062
:102CE000FFE7FFE7179838B1FFE7169820B9FFE72D
:102CF0000B9817990860FFE716981AB080BD00007E
:102D000080B582B001908DF80310FFE701984EF274
:102D10000001C4F20401884210D0FFE701984EF28E
:102D20000041C4F20401884208D0FFE701984EF642
:102D30000001C4F20401884201D1FFE708E04DF22E
:102D40005710C0F2000040F20121FEF7FFFEFFE73E
:102D5000FFE7FFE79DF8030028B1FFE79DF80300B8
:102D6000012801D1FFE708E04DF25710C0F2000042
:102D700040F20221FEF7EAFEFFE7FFE79DF80300BD
:102D8000012806D1FFE70199C86840F48060C86057
:102D900005E00199C86820F48060C860FFE702B0D0
:102DA00080BD000080B582B001900091FFE70198DE
:102DB0004EF20001C4F20401884210D0FFE70198EE
:102DC0004EF20041C4F20401884208D0FFE70198A6
:102DD0004EF60001C4F20401884201D1FFE708E089
:102DE0004DF25710C0F2000040F28D21FEF7AEFE0A
:102DF000FFE7FFE7FFE7009850B1FFE7009845F2D3
:102E00005F21C0F2F0010843884201D1FFE708E0EA
:102E10004DF25710C0F2000040F28E21FEF796FEF0
:102E2000FFE7FFE700980199086202B080BD00004B
:102E300080B582B001908DF80310FFE701984EF243
:102E40000001C4F20401884210D0FFE701984EF25D
:102E50000041C4F20401884208D0FFE701984EF611
:102E60000001C4F20401884201D1FFE708E04DF2FD
:102E70005710C0F200004FF4EF71FEF767FEFFE756
:102E8000FFE7FFE79DF8030028B1FFE79DF8030087
:102E9000012801D1FFE708E04DF25710C0F2000011
:102EA00040F2DF11FEF752FEFFE7FFE701980068EE
:102EB0009DF8031061F300000199086002B080BD25
:102EC00080B582B00190FFE701984EF20001C4F294
:102ED0000401884210D0FFE701984EF20041C4F28D
:102EE0000401884208D0FFE701984EF60001C4F2C1
:102EF0000401884201D1FFE708E04DF25710C0F20B
:102F000000004FF4AE71FEF721FEFFE7FFE70199E5
:102F1000086820F0010008600199086840F400404A
:102F20000860002002B080BD80B582B00190FFE74C
:102F300001984EF20001C4F20401884210D0FFE76C
:102F400001984EF20041C4F20401884208D0FFE724
:102F500001984EF60001C4F20401884201D1FFE756
:102F600007E04DF25710C0F20000D421FEF7EEFD4D
:102F7000FFE7FFE70199086840F08000086002B0B1
:102F800080BD000080B582B00190FFE701984EF24D
:102F90000001C4F20401884210D0FFE701984EF20C
:102FA0000041C4F20401884208D0FFE701984EF6C0
:102FB0000001C4F20401884201D1FFE707E04DF2AD
:102FC0005710C0F20000C721FEF7C0FDFFE7FFE782
:102FD0000199086840F48070086002B080BD00006C
:102FE00080B582B00190FFE701984EF20001C4F273
:102FF0000401884210D0FFE701984EF20041C4F26C
:103000000401884208D0FFE701984EF60001C4F29F
:103010000401884201D1FFE707E04DF25710C0F2EA
:103020000000E121FEF792FDFFE7FFE70199086844
:1030300040F40070086002B080BD000080B582B02E
:1030400001900091FFE701984EF20001C4F20401E3
:10305000884210D0FFE701984EF20041C4F204010B
:10306000884208D0FFE701984EF60001C4F204013F
:10307000884201D1FFE708E04DF25710C0F200008E
:103080004FF41F71FEF762FDFFE7FFE7FFE70098CF
:1030900050B1FFE7009845F2DF61C0F2F701084345
:1030A000884201D1FFE708E04DF25710C0F200005E
:1030B00040F27D21FEF74AFDFFE7FFE70198C06976
:1030C00000990840002818BF012002B080BD000010
:1030D00080B584B0039002910192029820B9FFE775
:1030E0006FF00200009077E0FFE703984EF20001D6
:1030F000C4F20401884210D0FFE703984EF2004169
:10310000C4F20401884208D0FFE703984EF600019C
:10311000C4F20401884201D1FFE708E04DF25710E4
:10312000C0F200004FF4C471FEF710FDFFE7FFE7A7
:10313000FFE70298406850B1FFE70298406841F607
:103140008021C0F20601884201D8FFE708E04DF275
:103150005710C0F2000040F28911FEF7F7FCFFE7BC
:10316000FFE7FFE702980068072801D8FFE708E0BB
:103170004DF25710C0F200004FF4C571FEF7E6FCA7
:10318000FFE7FFE70399086820F001000860039952
:10319000086840F4004008600399086840F00100A6
:1031A000086003980299019AFFF762FC0090039966
:1031B000086820F0400008600399086820F4004087
:1031C00008600399086820F0010008600399086905
:1031D00020F480500861FFE7009804B080BD000033
:1031E00080B588B007900691059204930020039063
:1031F000FFE707984EF20001C4F20401884210D0A4
:10320000FFE707984EF20041C4F20401884208D05B
:10321000FFE707984EF60001C4F20401884201D18D
:10322000FFE708E04DF25710C0F200004FF48C6148
:10323000FEF78CFCFFE7FFE7069800286BD0FFE75E
:103240000798806800F08000019000200290FFE75E
:1032500002980599884259D2FFE70798049B4021BC
:10326000012200F0C9FA0390019888B9FFE7059898
:1032700002280CD3FFE7029805990239884206D14B
:10328000FFE707984FF48061FFF7ACFBFFE711E021
:10329000029805990139884205D0FFE70798002177
:1032A000FFF7A0FB05E007984FF48061FFF79AFB5A
:1032B000FFE7FFE7039818BBFFE70298059901397C
:1032C000884208D1FFE707981021FFF76BFD0798A8
:1032D000FFF786FEFFE7079800F024F80699029AA8
:1032E0008854029805990139884208D1FFE7079868
:1032F000049B1021012200F07FFA0390FFE700E019
:1033000004E0FFE7029801300290A1E7079800214E
:10331000FFF768FB03E06FF002000390FFE70398FC
:1033200008B080BD80B582B00190FFE701984EF2F1
:103330000001C4F20401884210D0FFE701984EF268
:103340000041C4F20401884208D0FFE701984EF61C
:103350000001C4F20401884201D1FFE708E04DF208
:103360005710C0F2000040F2D121FEF7EFFBFFE75B
:10337000FFE7019890F8280002B080BD80B584B0C6
:1033800003900291FFE703984EF20001C4F204019A
:10339000884210D0FFE703984EF20041C4F20401C6
:1033A000884208D0FFE703984EF60001C4F20401FA
:1033B000884201D1FFE708E04DF25710C0F200004B
:1033C00040F26931FEF7C2FBFFE7FFE70398029B7B
:1033D0004FF40031012200F00FFA0190019890B9EA
:1033E000FFE7039801210091FFF7DCFC0398FFF74A
:1033F0009BFD009A0398029B0121C0F2020100F09C
:10340000FBF90190FFE7019804B080BD80B582B060
:1034100001908DF80310FFE701984EF20001C4F20D
:103420000401884210D0FFE701984EF20041C4F237
:103430000401884208D0FFE701984EF60001C4F26B
:103440000401884201D1FFE708E04DF25710C0F2B5
:10345000000040F29D21FEF779FBFFE7FFE7FFE761
:103460009DF8030028B1FFE79DF80300012801D172
:10347000FFE708E04DF25710C0F2000040F29E2135
:10348000FEF764FBFFE7FFE7019800689DF8031073
:1034900061F3CF300199086002B080BD80B584B07F
:1034A00003900291FFE703984EF20001C4F2040179
:1034B000884210D0FFE703984EF20041C4F20401A5
:1034C000884208D0FFE703984EF60001C4F20401D9
:1034D000884201D1FFE708E04DF25710C0F200002A
:1034E00040F24D31FEF732FBFFE7FFE70398029B06
:1034F0004FF40031002200F07FF90190019868B983
:10350000FFE70398FFF73EFD0398029B0121C0F2FD
:103510000201012200F070F90190FFE7019804B068
:1035200080BD000080B584B003900291FFE703984E
:103530004EF20001C4F20401884210D0FFE7039864
:103540004EF20041C4F20401884208D0FFE703981C
:103550004EF60001C4F20401884201D1FFE708E001
:103560004DF25710C0F2000040F29B41FEF7EEFA18
:10357000FFE7FFE7FFE703981021FFF75FFD014634
:1035800000200129009006D1FFE70298002818BF0B
:1035900001200090FFE70098C00740B1FFE70398C3
:1035A0001021FFF7FFFB029801380290E3E7039830
:1035B000FFF716FD0398029B1021012200F01CF971
:1035C0000190019804B080BD82B00190002000906D
:1035D000019820B9FFE76FF00200009009E001991F
:1035E0004CF25030486001990020886001990860D1
:1035F000FFE7009802B0704780B584B00390ADF843
:103600000A108DF809200193FFE703984EF200019C
:10361000C4F20401884210D0FFE703984EF2004143
:10362000C4F20401884208D0FFE703984EF6000177
:10363000C4F20401884201D1FFE708E04DF25710BF
:10364000C0F2000040F28A31FEF780FAFFE7FFE7A0
:10365000FFE79DF8090028B1FFE79DF80900012860
:1036600001D1FFE708E04DF25710C0F2000040F230
:103670008B31FEF76BFAFFE7FFE7FFE7BDF80A00C3
:103680007F2801D8FFE708E04DF25710C0F2000094
:103690004FF46371FEF75AFAFFE7FFE70398019BC7
:1036A0008021012200F0A8F80090009888BBFFE775
:1036B0000398BDF80A1001F07F029DF8091041EA55
:1036C000420100F01BF99DF8090040B9FFE703989B
:1036D000019B0821012200F08FF8009008E0039878
:1036E000019B4FF48021002200F086F80090FFE754
:1036F000009868B9FFE703984FF48051FFF79EFCEC
:10370000012804D1FFE74FF0FF300090FFE7FFE70B
:10371000FFE7009804B080BD80B588B0079006919F
:1037200005920493002003900290FFE707984EF261
:103730000001C4F20401884210D0FFE707984EF25E
:103740000041C4F20401884208D0FFE707984EF612
:103750000001C4F20401884201D1FFE708E04DF204
:103760005710C0F2000040F2FE31FEF7EFF9FFE71C
:10377000FFE70698C0B3FFE7FFE70299059A00202C
:103780009142019006D0FFE70398B0FA80F040091B
:103790000190FFE70198C00728B3FFE70798049B53
:1037A0008021012200F028F803900398D0B9FFE7A8
:1037B00007980699029A895C00F0A0F80798049B84
:1037C0000821012200F018F8039007984FF4805167
:1037D000FFF734FC012801D1FFE704E00298013033
:1037E0000290FFE7C9E703E06FF002000390FFE7F4
:1037F000039808B080BD000080B586B005900491A4
:103800008DF80F2002936FF007000190FFE70598F5
:103810004EF20001C4F20401884210D0FFE705987F
:103820004EF20041C4F20401884208D0FFE7059837
:103830004EF60001C4F20401884201D1FFE707E01F
:103840004DF25710C0F20000AB21FEF77FF9FFE701
:10385000FFE7FFE7049850B1FFE7049845F2DF6106
:10386000C0F2F7010843884201D1FFE707E04DF2BB
:103870005710C0F20000AC21FEF768F9FFE7FFE740
:10388000FFE79DF80F0028B1FFE79DF80F00012822
:1038900001D1FFE707E04DF25710C0F20000AD2163
:1038A000FEF754F9FFE7FFE7FFE70598C0690499C1
:1038B000084000909DF80F00012805D1FFE704980B
:1038C0000099884207D0FFE79DF80F0030B9FFE765
:1038D000009818B9FFE700200190FFE7019818B1A0
:1038E000FFE7029808B9FFE704E002980138029068
:1038F000FFE7DAE7019806B080BD000080B582B02E
:1039000001908DF80310FFE701984EF20001C4F218
:103910000401884210D0FFE701984EF20041C4F242
:103920000401884208D0FFE701984EF60001C4F276
:103930000401884201D1FFE708E04DF25710C0F2C0
:10394000000040F2C321FEF701F9FFE7FFE79DF811
:103950000300019981F8240002B080BD80B584B0D5
:10396000039000200190039820B9FFE76FF0020058
:10397000019071E0FFE703980088B0F5007F01DA5D
:10398000FFE707E04DF27610C0F20000CD21FEF710
:10399000DDF8FFE7FFE703990888400900EB4002E4
:1039A000202000EB4200B1F9021088420DD8FFE759
:1039B00003990888400900EB4002252000EB4200F3
:1039C000B1F9021088420AD2FFE70398B0F9020069
:1039D000202804D3FFE76FF0020001903BE003983A
:1039E000B0F9021041F25C00C4F2050000EB810066
:1039F0000290029800686FF35F2040F2FF11884246
:103A00000FD1FFE70398008802990860039948687E
:103A1000B1F9022049F20431C1F6FF7141F82200E8
:103A200018E003980088029909686FF35F218842C3
:103A30000BD1FFE703994868B1F9022049F204313C
:103A4000C1F6FF7141F8220003E06FF00100019020
:103A5000FFE7FFE7FFE7FFE7019804B080BD000044
:103A600080B549F20430C1F6FF7000688047BFF3AB
:103A70004F8F80BD80B549F20430C1F6FF704068B9
:103A80008047BFF34F8F80BD80B549F20430C1F647
:103A9000FF7080688047BFF34F8F80BD80B549F2CB
:103AA0000430C1F6FF70C0688047BFF34F8F80BD00
:103AB00080B549F20430C1F6FF7000698047BFF35A
:103AC0004F8F80BD80B549F20430C1F6FF70406968
:103AD0008047BFF34F8F80BD80B549F20430C1F6F7
:103AE000FF7080698047BFF34F8F80BD80B549F27A
:103AF0000430C1F6FF70C0698047BFF34F8F80BDAF
:103B000080B549F20430C1F6FF70006A8047BFF308
:103B10004F8F80BD80B549F20430C1F6FF70406A16
:103B20008047BFF34F8F80BD80B549F20430C1F6A6
:103B3000FF70806A8047BFF34F8F80BD80B549F228
:103B40000430C1F6FF70C06A8047BFF34F8F80BD5D
:103B500080B549F20430C1F6FF70006B8047BFF3B7
:103B60004F8F80BD80B549F20430C1F6FF70406BC5
:103B70008047BFF34F8F80BD80B549F20430C1F656
:103B8000FF70806B8047BFF34F8F80BD80B549F2D7
:103B90000430C1F6FF70C06B8047BFF34F8F80BD0C
:103BA00080B549F20430C1F6FF70006C8047BFF366
:103BB0004F8F80BD80B549F20430C1F6FF70406C74
:103BC0008047BFF34F8F80BD80B549F20430C1F606
:103BD000FF70806C8047BFF34F8F80BD80B549F286
:103BE0000430C1F6FF70C06C8047BFF34F8F80BDBB
:103BF00080B549F20430C1F6FF70006D8047BFF315
:103C00004F8F80BD80B549F20430C1F6FF70406D22
:103C10008047BFF34F8F80BD80B549F20430C1F6B5
:103C2000FF70806D8047BFF34F8F80BD80B549F234
:103C30000430C1F6FF70C06D8047BFF34F8F80BD69
:103C400080B549F20430C1F6FF70006E8047BFF3C3
:103C50004F8F80BD80B549F20430C1F6FF70406ED1
:103C60008047BFF34F8F80BD80B549F20430C1F665
:103C7000FF70806E8047BFF34F8F80BD80B549F2E3
:103C80000430C1F6FF70C06E8047BFF34F8F80BD18
:103C900080B549F20430C1F6FF70006F8047BFF372
:103CA0004F8F80BD80B549F20430C1F6FF70406F80
:103CB0008047BFF34F8F80BD80B549F20430C1F615
:103CC000FF70806F8047BFF34F8F80BD80B549F292
:103CD0000430C1F6FF70C06F8047BFF34F8F80BDC7
:103CE00080B549F20430C1F6FF70D0F880008047FB
:103CF000BFF34F8F80BD000080B549F20430C1F69C
:103D0000FF70D0F884008047BFF34F8F80BD000064
:103D100080B549F20430C1F6FF70D0F888008047C2
:103D2000BFF34F8F80BD000080B549F20430C1F66B
:103D3000FF70D0F88C008047BFF34F8F80BD00002C
:103D400080B549F20430C1F6FF70D0F8900080478A
:103D5000BFF34F8F80BD000080B549F20430C1F63B
:103D6000FF70D0F894008047BFF34F8F80BD0000F4
:103D700080B549F20430C1F6FF70D0F89800804752
:103D8000BFF34F8F80BD000080B549F20430C1F60B
:103D9000FF70D0F89C008047BFF34F8F80BD0000BC
:103DA00080B549F20430C1F6FF70D0F8A00080471A
:103DB000BFF34F8F80BD000080B549F20430C1F6DB
:103DC000FF70D0F8A4008047BFF34F8F80BD000084
:103DD00080B549F20430C1F6FF70D0F8A8008047E2
:103DE000BFF34F8F80BD000080B549F20430C1F6AB
:103DF000FF70D0F8AC008047BFF34F8F80BD00004C
:103E000080B549F20430C1F6FF70D0F8B0008047A9
:103E1000BFF34F8F80BD000080B549F20430C1F67A
:103E2000FF70D0F8B4008047BFF34F8F80BD000013
:103E300080B549F20430C1F6FF70D0F8B800804771
:103E4000BFF34F8F80BD000080B549F20430C1F64A
:103E5000FF70D0F8BC008047BFF34F8F80BD0000DB
:103E600080B549F20430C1F6FF70D0F8C000804739
:103E7000BFF34F8F80BD000080B549F20430C1F61A
:103E8000FF70D0F8C4008047BFF34F8F80BD0000A3
:103E900080B549F20430C1F6FF70D0F8C800804701
:103EA000BFF34F8F80BD000080B549F20430C1F6EA
:103EB000FF70D0F8CC008047BFF34F8F80BD00006B
:103EC00080B549F20430C1F6FF70D0F8D0008047C9
:103ED000BFF34F8F80BD000080B549F20430C1F6BA
:103EE000FF70D0F8D4008047BFF34F8F80BD000033
:103EF00080B549F20430C1F6FF70D0F8D800804791
:103F0000BFF34F8F80BD000080B549F20430C1F689
:103F1000FF70D0F8DC008047BFF34F8F80BD0000FA
:103F200080B549F20430C1F6FF70D0F8E000804758
:103F3000BFF34F8F80BD000080B549F20430C1F659
:103F4000FF70D0F8E4008047BFF34F8F80BD0000C2
:103F500080B549F20430C1F6FF70D0F8E800804720
:103F6000BFF34F8F80BD000080B549F20430C1F629
:103F7000FF70D0F8EC008047BFF34F8F80BD00008A
:103F800080B549F20430C1F6FF70D0F8F0008047E8
:103F9000BFF34F8F80BD000080B549F20430C1F6F9
:103FA000FF70D0F8F4008047BFF34F8F80BD000052
:103FB00080B549F20430C1F6FF70D0F8F8008047B0
:103FC000BFF34F8F80BD000080B549F20430C1F6C9
:103FD000FF70D0F8FC008047BFF34F8F80BD00001A
:103FE00080B549F20430C1F6FF70D0F80001804777
:103FF000BFF34F8F80BD000080B549F20430C1F699
:10400000FF70D0F804018047BFF34F8F80BD0000E0
:1040100080B549F20430C1F6FF70D0F8080180473E
:10402000BFF34F8F80BD000080B549F20430C1F668
:10403000FF70D0F80C018047BFF34F8F80BD0000A8
:1040400080B549F20430C1F6FF70D0F81001804706
:10405000BFF34F8F80BD000080B549F20430C1F638
:10406000FF70D0F814018047BFF34F8F80BD000070
:1040700080B549F20430C1F6FF70D0F818018047CE
:10408000BFF34F8F80BD000080B549F20430C1F608
:10409000FF70D0F81C018047BFF34F8F80BD000038
:1040A00080B549F20430C1F6FF70D0F82001804796
:1040B000BFF34F8F80BD000080B549F20430C1F6D8
:1040C000FF70D0F824018047BFF34F8F80BD000000
:1040D00080B549F20430C1F6FF70D0F8280180475E
:1040E000BFF34F8F80BD000080B549F20430C1F6A8
:1040F000FF70D0F82C018047BFF34F8F80BD0000C8
:1041000080B549F20430C1F6FF70D0F83001804725
:10411000BFF34F8F80BD000080B549F20430C1F677
:10412000FF70D0F834018047BFF34F8F80BD00008F
:1041300080B549F20430C1F6FF70D0F838018047ED
:10414000BFF34F8F80BD000080B549F20430C1F647
:10415000FF70D0F83C018047BFF34F8F80BD000057
:1041600080B549F20430C1F6FF70D0F840018047B5
:10417000BFF34F8F80BD000080B549F20430C1F617
:10418000FF70D0F844018047BFF34F8F80BD00001F
:1041900080B549F20430C1F6FF70D0F8480180477D
:1041A000BFF34F8F80BD000080B549F20430C1F6E7
:1041B000FF70D0F84C018047BFF34F8F80BD0000E7
:1041C00080B549F20430C1F6FF70D0F85001804745
:1041D000BFF34F8F80BD000080B549F20430C1F6B7
:1041E000FF70D0F854018047BFF34F8F80BD0000AF
:1041F00080B549F20430C1F6FF70D0F8580180470D
:10420000BFF34F8F80BD000080B549F20430C1F686
:10421000FF70D0F85C018047BFF34F8F80BD000076
:1042200080B549F20430C1F6FF70D0F860018047D4
:10423000BFF34F8F80BD000080B549F20430C1F656
:10424000FF70D0F864018047BFF34F8F80BD00003E
:1042500080B549F20430C1F6FF70D0F8680180479C
:10426000BFF34F8F80BD000080B549F20430C1F626
:10427000FF70D0F86C018047BFF34F8F80BD000006
:1042800080B549F20430C1F6FF70D0F87001804764
:10429000BFF34F8F80BD000080B549F20430C1F6F6
:1042A000FF70D0F874018047BFF34F8F80BD0000CE
:1042B00080B549F20430C1F6FF70D0F8780180472C
:1042C000BFF34F8F80BD000080B549F20430C1F6C6
:1042D000FF70D0F87C018047BFF34F8F80BD000096
:1042E00080B549F20430C1F6FF70D0F880018047F4
:1042F000BFF34F8F80BD000080B549F20430C1F696
:10430000FF70D0F884018047BFF34F8F80BD00005D
:1043100080B549F20430C1F6FF70D0F888018047BB
:10432000BFF34F8F80BD000080B549F20430C1F665
:10433000FF70D0F88C018047BFF34F8F80BD000025
:1043400080B549F20430C1F6FF70D0F89001804783
:10435000BFF34F8F80BD000080B549F20430C1F635
:10436000FF70D0F894018047BFF34F8F80BD0000ED
:1043700080B549F20430C1F6FF70D0F8980180474B
:10438000BFF34F8F80BD000080B549F20430C1F605
:10439000FF70D0F89C018047BFF34F8F80BD0000B5
:1043A00080B549F20430C1F6FF70D0F8A001804713
:1043B000BFF34F8F80BD000080B549F20430C1F6D5
:1043C000FF70D0F8A4018047BFF34F8F80BD00007D
:1043D00080B549F20430C1F6FF70D0F8A8018047DB
:1043E000BFF34F8F80BD000080B549F20430C1F6A5
:1043F000FF70D0F8AC018047BFF34F8F80BD000045
:1044000080B549F20430C1F6FF70D0F8B0018047A2
:10441000BFF34F8F80BD000080B549F20430C1F674
:10442000FF70D0F8B4018047BFF34F8F80BD00000C
:1044300080B549F20430C1F6FF70D0F8B80180476A
:10444000BFF34F8F80BD000080B549F20430C1F644
:10445000FF70D0F8BC018047BFF34F8F80BD0000D4
:1044600080B549F20430C1F6FF70D0F8C001804732
:10447000BFF34F8F80BD000080B549F20430C1F614
:10448000FF70D0F8C4018047BFF34F8F80BD00009C
:1044900080B549F20430C1F6FF70D0F8C8018047FA
:1044A000BFF34F8F80BD000080B549F20430C1F6E4
:1044B000FF70D0F8CC018047BFF34F8F80BD000064
:1044C00080B549F20430C1F6FF70D0F8D0018047C2
:1044D000BFF34F8F80BD000080B549F20430C1F6B4
:1044E000FF70D0F8D4018047BFF34F8F80BD00002C
:1044F00080B549F20430C1F6FF70D0F8D80180478A
:10450000BFF34F8F80BD000080B549F20430C1F683
:10451000FF70D0F8DC018047BFF34F8F80BD0000F3
:1045200080B549F20430C1F6FF70D0F8E001804751
:10453000BFF34F8F80BD000080B549F20430C1F653
:10454000FF70D0F8E4018047BFF34F8F80BD0000BB
:1045500080B549F20430C1F6FF70D0F8E801804719
:10456000BFF34F8F80BD000080B549F20430C1F623
:10457000FF70D0F8EC018047BFF34F8F80BD000083
:1045800080B549F20430C1F6FF70D0F8F0018047E1
:10459000BFF34F8F80BD000080B549F20430C1F6F3
:1045A000FF70D0F8F4018047BFF34F8F80BD00004B
:1045B00080B549F20430C1F6FF70D0F8F8018047A9
:1045C000BFF34F8F80BD000080B549F20430C1F6C3
:1045D000FF70D0F8FC018047BFF34F8F80BD000013
:1045E00080B582B001909DF80400C00718B1FFE7C4
:1045F000FDF726FBFFE79DF804008007002803D5A0
:10460000FFE700F073F8FFE79DF80400400700287B
:1046100003D5FFE7FDF788FEFFE79DF80400C0061D
:10462000002805D5FFE74AF2085000F0A3F8FFE79D
:104630009DF804004006002805D5FFE74AF2035024
:1046400000F098F8FFE79DF804000006002803D565
:10465000FFE700F0A9F8FFE702B080BD80B582B0A7
:1046600001909DF80400C00718B1FFE7FDF7E0FADC
:10467000FFE79DF804008007002803D5FFE700F05E
:104680002BF8FFE79DF804004007002803D5FFE75B
:10469000FDF742FEFFE79DF80400C006002805D59F
:1046A000FFE74AF2085000F055F8FFE79DF80400D4
:1046B0004006002805D5FFE74AF2035000F04AF80B
:1046C000FFE79DF804000006002803D5FFE700F08F
:1046D0005FF8FFE702B080BD48F21001C4F20401A8
:1046E0000020CAF2A55008607047000048F210018F
:1046F000C4F204010120CAF2A5500860704700000E
:1047000080B5FFE744F2FE30C4F205000088800760
:10471000002801D5FFE708E04DF29C10C0F2000030
:1047200040F2AE41FDF712FAFFE7FFE744F2024123
:10473000C4F20501087800F0C0000F30087044F2A0
:104740000F41C4F20501102008701E2004F0F0F99A
:10475000002080BD81B0ADF80200BDF8022044F217
:10476000FE31C4F205010888904340F425400880DA
:1047700001B0704781B0ADF80200BDF8022044F2EC
:10478000FE31C4F2050108881043088001B070476B
:1047900040F60401C4F205017620086040F60C01E1
:1047A000C4F205010860704740F60401C4F2050137
:1047B0007720086040F60C01C4F2050108607047DC
:1047C00080B584B003900291019200208DF803001F
:1047D000FFE7039838B1FFE7039840F00F000F2878
:1047E00001D1FFE707E04DF2BB10C0F20000C72186
:1047F000FDF7ACF9FFE7FFE7FFE70298072801D8CC
:10480000FFE707E04DF2BB10C0F20000C821FDF742
:104810009DF9FFE7FFE7FFE70198072801D8FFE7C9
:1048200007E04DF2BB10C0F20000C921FDF78EF980
:10483000FFE7FFE7FFE740F60400C4F20500006869
:10484000772801D1FFE707E04DF2BB10C0F200006E
:10485000CA21FDF77BF9FFE7FFE7FFE70398A8B35D
:10486000FFE79DF80C00C00738B3FFE79DF8030091
:10487000C0008DF801009DF8010004308DF80200A1
:1048800040F60001C4F2050108689DF802C0072344
:1048900003FA0CF29DF801E003FA0EF31343984378
:1048A000029A02FA0CF2DDF804C00CFA0EFC42EA9D
:1048B0000C021A4010430860FFE703984008039079
:1048C0009DF8030001308DF80300C7E704B080BDF8
:1048D00080B588B00790069100208DF8170048F247
:1048E0000000C4F204000068049048F20400C4F21E
:1048F00004000068039048F20800C4F20400006855
:10490000029048F20C00C4F2040000680190FFE736
:104910009DF81B00400750B3FFE7069800F0E060E9
:10492000B0F1807F23D0FFE7069800F0E060B0F19F
:10493000007F1CD0FFE7069800F0E060B0F1407FF8
:1049400015D0FFE7069800F0E060B0F1806F0ED060
:10495000FFE7069800F0E060B0F1A06F07D0FFE736
:10496000069800F0E060B0F1C06F01D1FFE708E009
:104970004DF2DA00C0F2000040F2A121FDF7E6F8A6
:10498000FFE7FFE7FFE79DF8180010F0700F24D055
:10499000FFE7069800F0700010281ED0FFE7069889
:1049A00000F07000202818D0FFE7069800F0700093
:1049B000302812D0FFE7069800F0700040280CD095
:1049C000FFE7069800F07000502806D0FFE7069831
:1049D00000F07000602801D1FFE708E04DF2DA0036
:1049E000C0F2000040F2A221FDF7B0F8FFE7FFE7B8
:1049F000FFE79DF81A00400750B3FFE7069800F460
:104A0000E020B0F5803F23D0FFE7069800F4E020D7
:104A1000B0F5003F1CD0FFE7069800F4E020B0F5A9
:104A2000403F15D0FFE7069800F4E020B0F5802F56
:104A30000ED0FFE7069800F4E020B0F5A02F07D0D5
:104A4000FFE7069800F4E020B0F5C02F01D1FFE7A2
:104A500008E04DF2DA00C0F2000040F2A321FDF7B9
:104A600075F8FFE7FFE7FFE79DF81A0010F0700FF9
:104A70002AD0FFE7069800F4E000B0F5801F23D0AD
:104A8000FFE7069800F4E000B0F5001F1CD0FFE738
:104A9000069800F4E000B0F5401F15D0FFE7069837
:104AA00000F4E000B0F5800F0ED0FFE7069800F4A8
:104AB000E000B0F5A00F07D0FFE7069800F4E00093
:104AC000B0F5C00F01D1FFE708E04DF2DA00C0F207
:104AD00000004FF42971FDF739F8FFE7FFE7FFE722
:104AE0009DF81800400720B3FFE7069800F0070084
:104AF00001281ED0FFE7069800F00700022818D012
:104B0000FFE7069800F00700032812D0FFE7069899
:104B100000F0070004280CD0FFE7069800F007001B
:104B2000052806D0FFE7069800F00700062801D107
:104B3000FFE708E04DF2DA00C0F2000040F2A521E4
:104B4000FDF704F8FFE7FFE7FFE79DF819004007CE
:104B500050B3FFE7069800F4E060B0F5807F23D003
:104B6000FFE7069800F4E060B0F5007F1CD0FFE797
:104B7000069800F4E060B0F5407F15D0FFE7069896
:104B800000F4E060B0F5806F0ED0FFE7069800F407
:104B9000E060B0F5A06F07D0FFE7069800F4E06092
:104BA000B0F5C06F01D1FFE708E04DF2DA00C0F2C6
:104BB000000040F2A621FCF7C9FFFFE7FFE7FFE78F
:104BC0009DF8190010F0700F2AD0FFE7069800F446
:104BD000E040B0F5805F23D0FFE7069800F4E040A6
:104BE000B0F5005F1CD0FFE7069800F4E040B0F598
:104BF000405F15D0FFE7069800F4E040B0F5804F25
:104C00000ED0FFE7069800F4E040B0F5A04F07D0C3
:104C1000FFE7069800F4E040B0F5C04F01D1FFE790
:104C200008E04DF2DA00C0F2000040F2A721FCF7E4
:104C30008DFFFFE7FFE7FFE7079847F27771C0F2C4
:104C40007771084201D0FFE708E04DF2DA00C0F2C8
:104C500000004FF42A71FCF779FFFFE7FFE7FFE759
:104C600044F2FE30C4F205000088C00708B1FFE737
:104C700008E04DF2DA00C0F2000040F2A921FCF792
:104C800065FFFFE7FFE744F22600C4F20500007865
:104C900000F00700052835D1FFE701208DF8170047
:104CA000FFE748F21000C4F204000068C00708B132
:104CB000FFE708E04DF2DA00C0F200004FF42C717B
:104CC000FCF744FFFFE7FFE748F20001C4F20401EC
:104CD0004FF6EE20CFF6FF70086048F20401C4F2F0
:104CE00004014FF0FF30086048F20801C4F20401EB
:104CF000086048F20C01C4F2040108601E2003F0B1
:104D000017FFFFE744F22001C4F205010868079B82
:104D10009843069A1A40104308601E2003F008FFCB
:104D20009DF8170001281CD1FFE7049848F2000104
:104D3000C4F204010860039848F20401C4F20401BB
:104D40000860029848F20801C4F204010860019862
:104D500048F20C01C4F2040108601E2003F0E8FED2
:104D6000FFE708B080BD000080B586B08DF8170061
:104D700000208DF8160048F20000C4F2040000681C
:104D8000049048F20400C4F204000068039048F262
:104D90000800C4F204000068029048F20C00C4F25B
:104DA000040000680190FFE79DF81700C8B1FFE715
:104DB0009DF81700012814D0FFE79DF8170002287E
:104DC0000FD0FFE79DF8170003280AD0FFE79DF8F2
:104DD0001700042805D0FFE79DF81700052801D12A
:104DE000FFE708E04DF2DA00C0F2000040F23721A0
:104DF000FCF7ACFEFFE7FFE7FFE744F2FE30C4F24A
:104E000005000088C00708B1FFE708E04DF2DA00AE
:104E1000C0F200004FF40E71FCF798FEFFE7FFE7C9
:104E200044F22600C4F20500007800F007000528CF
:104E300005D0FFE79DF81700052835D1FFE70120D1
:104E40008DF81600FFE748F21000C4F20400006875
:104E5000C00708B1FFE708E04DF2DA00C0F2000039
:104E60004FF41071FCF772FEFFE7FFE748F2000114
:104E7000C4F204014FF6EE20CFF6FF70086048F24E
:104E80000401C4F204014FF0FF30086048F2080149
:104E9000C4F20401086048F20C01C4F20401086085
:104EA0001E2003F045FEFFE79DF8170044F226019F
:104EB000C4F2050108701E2003F03AFE9DF81600AA
:104EC00001281CD1FFE7049848F20001C4F2040154
:104ED0000860039848F20401C4F2040108600298D3
:104EE00048F20801C4F204010860019848F20C017C
:104EF000C4F2040108601E2003F01AFEFFE706B0AA
:104F000080BD000080B59AB0199018914CF6AC2382
:104F1000C0F20003186859689A68DB680B930A921C
:104F2000099108904FF0FF300790FFE719984DF274
:104F30000001C4F20101884218D0FFE719984DF230
:104F40000041C4F20101884210D0FFE7199841F2F4
:104F50000001C4F20201884208D0FFE7199841F22B
:104F60000041C4F20201884201D1FFE708E04DF29E
:104F7000DB10C0F2000040F2F311FCF7E7FDFFE7A1
:104F8000FFE71898006816901898406817901698D0
:104F9000002800F01681FFE71798002800F0118123
:104FA000FFE71998406900F460001590FFE7159835
:104FB000A0B1FFE71598B0F5001F0FD0FFE71598D7
:104FC000B0F5C00F0AD0FFE71598B0F5200F05D057
:104FD000FFE71598B0F5400F01D1FFE708E04DF26B
:104FE000DB10C0F2000040F2F911FCF7AFFDFFE763
:104FF000FFE71598410D08A830F811001590169894
:105000001799159A51434900B0FBF1F001380F9000
:105010000F98FF287CD8FFE70F9818998860169A98
:105020001798159948434100B2FBF1F000FB11209D
:105030000E900E9828B9FFE7189900200861079094
:1050400065E015980F990131A0FB011C4FF000039A
:1050500043F1000200FB02C0179AA1FB021C00FBF7
:1050600002C0400040EAD170490012911390DDF86F
:1050700048E01398000240EA1E61169A5FEA530C5A
:105080004FEA320010EB0E2041EB0C01FBF798FACF
:1050900080380D900D987F2838D8FFE70D98189923
:1050A000C86012991398000240EA11600902129137
:1050B000139016980D9980314FF00002069242F13C
:1050C0000002A0FB011300FB023010911190109818
:1050D000119906F0FDFC049005911298139906F0C1
:1050E000F7FC024604980B46059906F0D3FA06F041
:1050F000EBF90021CBF6807106F0C0FF014606985F
:105100000C910C99189A11610790FFE7FFE7FFE7F0
:1051100007980130002853D1FFE7169800EB800074
:1051200040001799159A51434900B0FBF1F0053042
:105130004CF6CD41CCF6CC41A0FB01014FF0FF3045
:1051400000EBD1000F900F98FF2838D8FFE70F9899
:105150001899886015980F990131A0FB01134FF041
:105160000002039242F1000200FB0230179AA1FBF9
:10517000021300FB0230400040EAD1704900129156
:105180001390169806F090FC0190029112981399D2
:1051900006F09EFC024601980B46029906F07AFA48
:1051A00006F092F90021CBF6807106F067FF014608
:1051B00003980C910C99189A11610790FFE7FFE78B
:1051C000FFE707981AB080BD80B504F073FB05F0C7
:1051D00069FC04F081FB80BD86B040F28460C4F2BB
:1051E00001000068C00750B1FFE748F20001C1F6B6
:1051F000FF7142F20040C0F2F400086009E048F29A
:105200000001C1F6FF7142F60050C0F23110086093
:10521000FFE744F22600C4F20500007800F0070022
:105220008DF817009DF8170001460091052867D8F2
:105230000099DFE801F0030E18202A3248F200003E
:10524000C1F6FF70006848F20401C1F6FF71086002
:1052500057E048F20401C1F6FF7141F20020C0F2AC
:105260007A0008604DE048F20401C1F6FF714FF486
:105270000040086045E048F20401C1F6FF7141F2C8
:105280000020C0F27A0008603BE048F20401C1F659
:10529000FF714FF40040086033E044F20010C4F2A4
:1052A00005000168C1F3082104910168090F039109
:1052B000016801F01F01029100680006002806D471
:1052C000FFE741F20020C0F27A00019006E048F2C8
:1052D0000000C1F6FF7000680190FFE70198029995
:1052E0000131B0FBF1F004990131484303990131D8
:1052F000B0FBF1F048F20401C1F6FF71086000E074
:10530000FFE706B07047000080B5FFF765FF4EF677
:105310000851CEF200010020086080BD10B598B0A1
:1053200017901691012007904FF0FF300690FFE78D
:1053300017984DF20001C4F20101884218D0FFE72E
:1053400017984DF20041C4F20101884210D0FFE7E6
:10535000179841F20001C4F20201884208D0FFE729
:10536000179841F20041C4F20201884201D1FFE7DF
:1053700008E04DF2DB10C0F200004FF4A771FCF71B
:10538000E5FBFFE7FFE71698006814901698406861
:1053900015901498002800F01281FFE71598002856
:1053A00000F00D81FFE71798C06880B2C00B139022
:1053B00014981599139AC2F102025143C900B0FB27
:1053C000F1F001380B900B98FF2800F29780FFE76F
:1053D0000B9816998860149A15981399C1F10201D7
:1053E0004843C100B2FBF1F000FB11200A900A987B
:1053F00028B9FFE716990020086106907DE0139810
:10540000D0F1020C4FF0000262F100000B994B1C2E
:10541000ACFB031442F1000E0CFB0E4C00FB03C06E
:10542000159BA1FB031C00FB03C0C00040EA5170A8
:10543000C9000E910F900E990F98000240EA11607A
:1054400009020E910F900E990F98149B5FEA520279
:105450004FEA3303C918504110911190119848B187
:10546000FFE710981199149A0023FBF7A9F88038E8
:10547000099006E010981499B0FBF1F0803809907B
:10548000FFE709987F2834D8FFE709981699C86084
:105490000E980F99119110901498099980314FF03E
:1054A0000002059242F10002A0FB011300FB023052
:1054B0000C910D900C980D9906F00AFB0390049145
:1054C0001098119906F004FB024603980B460499C4
:1054D00006F0E0F805F0F8FF0021CBF6807106F049
:1054E000CDFD0146059808910899169A116106901C
:1054F00002E000200790FFE7FFE7FFE7079800289A
:105500005CD1FFE7149800EB800040001599139AD6
:10551000C2F102025143C900B0FBF1F005304CF674
:10552000CD41CCF6CC41A0FB01014FF0FF3000EBA8
:10553000D1000B900B98FF283FD8FFE70B981699E6
:1055400088601398D0F102034FF0000CCDF808C02A
:105550006CF100000B994A1CA3FB021E4CF1000CDD
:1055600003FB0CE300FB0230159AA1FB021300FBC6
:105570000230C00040EA5170C90010911190149897
:1055800006F092FA009001911098119906F0A0FA95
:10559000024600980B46019906F07CF805F094FF4E
:1055A0000021CBF6807106F069FD01460298089152
:1055B0000899169A11610690FFE7FFE7FFE7069842
:1055C00018B010BD80B582B001900091FFE701983E
:1055D0004DF20001C4F20101884218D0FFE70198A2
:1055E0004DF20041C4F20101884210D0FFE701985A
:1055F00041F20001C4F20201884208D0FFE701989D
:1056000041F20041C4F20201884201D1FFE708E003
:105610004DF2DB10C0F200004FF48061FCF796FA07
:10562000FFE7FFE7FFE7009850B1FFE7009840F27F
:10563000EB11C0F201010843884201D1FFE708E005
:105640004DF2DB10C0F2000040F20141FCF77EFA9F
:10565000FFE7FFE79DF8000010F00B0F09D0FFE710
:10566000009800F00B020199C86840EA0240C86047
:10567000FFE79DF80100C00730B1FFE70199C86856
:1056800040F48010C860FFE702B080BD80B584B0F0
:10569000039002918DF80720FFE703984DF2000177
:1056A000C4F20101884218D0FFE703984DF200418F
:1056B000C4F20101884210D0FFE7039841F20001D3
:1056C000C4F20201884208D0FFE7039841F200418A
:1056D000C4F20201884201D1FFE708E04DF2DB107D
:1056E000C0F2000040F2BB31FCF730FAFFE7FFE701
:1056F000FFE79DF8070028B1FFE79DF807000128A4
:1057000001D1FFE708E04DF2DB10C0F200004FF4DA
:105710006F71FCF71BFAFFE7FFE7FFE7029838B16C
:10572000FFE7029840F0EF00EF2801D1FFE708E023
:105730004DF2DB10C0F2000040F2BD31FCF706FA7A
:10574000FFE7FFE7BDF808000090009890B1FFE781
:105750009DF80700012806D1FFE7009A0399C86861
:105760001043C86005E0009A0399C8689043C86078
:10577000FFE7FFE704B080BD82B0019048F204006B
:10578000C1F6FF70006844F22001C4F20501096807
:10579000C1F30211C8400090009802B070470000A9
:1057A00080B582B001900091FFE701984DF20001B1
:1057B000C4F20101884218D0FFE701984DF2004180
:1057C000C4F20101884210D0FFE7019841F20001C4
:1057D000C4F20201884208D0FFE7019841F200417B
:1057E000C4F20201884201D1FFE708E04DF2DB106C
:1057F000C0F2000040F2EF31FCF7A8F9FFE7FFE745
:10580000FFE7009850B1FFE7009840F2EB11C0F2BB
:1058100001010843884201D1FFE708E04DF2DB10A7
:10582000C0F200004FF47C71FCF790F9FFE7FFE74E
:105830000198006800990840002818BF012002B0B4
:1058400080BD000080B584B00390FFE703984DF25F
:105850000001C4F20101884218D0FFE703984DF21D
:105860000041C4F20101884210D0FFE7039841F2E1
:105870000001C4F20201884208D0FFE7039841F218
:105880000041C4F20201884201D1FFE708E04DF275
:10589000DB10C0F2000040F24921FCF757F9FFE7A6
:1058A000FFE70398FFF768FF02900398806900F014
:1058B0000300410001208840019002980199B0FB4B
:1058C000F1F00090009804B080BD000080B582B077
:1058D0000190FFE701984DF20001C4F201018842F6
:1058E00018D0FFE701984DF20041C4F2010188424F
:1058F00010D0FFE7019841F20001C4F20201884292
:1059000008D0FFE7019841F20041C4F20201884249
:1059100001D1FFE708E04DF2DB10C0F2000040F2D9
:105920007251FCF713F9FFE7FFE70198C08802B056
:1059300080BD000080B58AB0099008910792FFE70A
:10594000089808B1FFE708E04DF2DB10C0F2000054
:1059500040F2A951FCF7FAF8FFE7FFE7FFE70998E3
:105960004DF20001C4F20101884218D0FFE7099806
:105970004DF20041C4F20101884210D0FFE70998BE
:1059800041F20001C4F20201884208D0FFE7099801
:1059900041F20041C4F20201884201D1FFE708E070
:1059A0004DF2DB10C0F2000040F2AA51FCF7CEF835
:1059B000FFE7FFE7FFE70998C06810F00C0F01D17F
:1059C000FFE708E04DF2DB10C0F2000040F2AB51FF
:1059D000FCF7BCF8FFE7FFE70998FFF733FF0190FA
:1059E0000898029000200590FF2004900998C06854
:1059F00000F080700690069898B9FFE70998406912
:105A00008006002806D4FFE7099801A9FFF786FC65
:105A1000009005E0099801A9FFF774FA0090FFE7EC
:105A200005E0099801A9FBF775FF0090FFE70098D2
:105A3000C0B9FFE7099880684FF67F729043039BD7
:105A4000049941EA032111400844099988600498A7
:105A5000FF2806D0FFE70999C86840F00050C860E9
:105A6000FFE700E0FFE7079820B1FFE705980799F7
:105A70000860FFE700980AB080BD000080B588B0DC
:105A80000790069105926FF0020001900698002899
:105A900000F04681FFE7FFE707984DF20001C4F2EE
:105AA0000101884218D0FFE707984DF20041C4F287
:105AB0000101884210D0FFE7079841F20001C4F2CB
:105AC0000201884208D0FFE7079841F20041C4F282
:105AD0000201884201D1FFE708E04DF2DB10C0F27D
